{
  "_format": "hh-sol-artifact-1",
  "contractName": "A8BallCueMinter",
  "sourceName": "contracts/A8Ball/Minter/A8BallCueMinter.sol",
  "abi": [
    {
      "inputs": [],
      "stateMutability": "nonpayable",
      "type": "constructor"
    },
    {
      "anonymous": false,
      "inputs": [
        {
          "indexed": false,
          "internalType": "address",
          "name": "previousAdmin",
          "type": "address"
        },
        {
          "indexed": false,
          "internalType": "address",
          "name": "newAdmin",
          "type": "address"
        }
      ],
      "name": "AdminChanged",
      "type": "event"
    },
    {
      "anonymous": false,
      "inputs": [
        {
          "indexed": true,
          "internalType": "address",
          "name": "beacon",
          "type": "address"
        }
      ],
      "name": "BeaconUpgraded",
      "type": "event"
    },
    {
      "anonymous": false,
      "inputs": [
        {
          "indexed": true,
          "internalType": "address",
          "name": "from",
          "type": "address"
        },
        {
          "indexed": false,
          "internalType": "uint256",
          "name": "tokenId",
          "type": "uint256"
        },
        {
          "indexed": false,
          "internalType": "uint256",
          "name": "collectionId",
          "type": "uint256"
        },
        {
          "indexed": false,
          "internalType": "enum I8BallCommon.Rarity",
          "name": "rarity",
          "type": "uint8"
        },
        {
          "indexed": false,
          "internalType": "uint256",
          "name": "price",
          "type": "uint256"
        }
      ],
      "name": "CuePurchased",
      "type": "event"
    },
    {
      "anonymous": false,
      "inputs": [
        {
          "indexed": true,
          "internalType": "address",
          "name": "from",
          "type": "address"
        },
        {
          "indexed": false,
          "internalType": "uint256",
          "name": "tokenId",
          "type": "uint256"
        },
        {
          "indexed": false,
          "internalType": "uint256",
          "name": "collectionId",
          "type": "uint256"
        },
        {
          "indexed": false,
          "internalType": "enum I8BallCommon.Rarity",
          "name": "rarity",
          "type": "uint8"
        },
        {
          "indexed": false,
          "internalType": "uint256",
          "name": "price",
          "type": "uint256"
        }
      ],
      "name": "CueUpgraded",
      "type": "event"
    },
    {
      "anonymous": false,
      "inputs": [
        {
          "indexed": false,
          "internalType": "uint8",
          "name": "version",
          "type": "uint8"
        }
      ],
      "name": "Initialized",
      "type": "event"
    },
    {
      "anonymous": false,
      "inputs": [
        {
          "indexed": false,
          "internalType": "address",
          "name": "account",
          "type": "address"
        }
      ],
      "name": "Paused",
      "type": "event"
    },
    {
      "anonymous": false,
      "inputs": [
        {
          "indexed": true,
          "internalType": "bytes32",
          "name": "role",
          "type": "bytes32"
        },
        {
          "indexed": true,
          "internalType": "bytes32",
          "name": "previousAdminRole",
          "type": "bytes32"
        },
        {
          "indexed": true,
          "internalType": "bytes32",
          "name": "newAdminRole",
          "type": "bytes32"
        }
      ],
      "name": "RoleAdminChanged",
      "type": "event"
    },
    {
      "anonymous": false,
      "inputs": [
        {
          "indexed": true,
          "internalType": "bytes32",
          "name": "role",
          "type": "bytes32"
        },
        {
          "indexed": true,
          "internalType": "address",
          "name": "account",
          "type": "address"
        },
        {
          "indexed": true,
          "internalType": "address",
          "name": "sender",
          "type": "address"
        }
      ],
      "name": "RoleGranted",
      "type": "event"
    },
    {
      "anonymous": false,
      "inputs": [
        {
          "indexed": true,
          "internalType": "bytes32",
          "name": "role",
          "type": "bytes32"
        },
        {
          "indexed": true,
          "internalType": "address",
          "name": "account",
          "type": "address"
        },
        {
          "indexed": true,
          "internalType": "address",
          "name": "sender",
          "type": "address"
        }
      ],
      "name": "RoleRevoked",
      "type": "event"
    },
    {
      "anonymous": false,
      "inputs": [
        {
          "indexed": true,
          "internalType": "address",
          "name": "from",
          "type": "address"
        },
        {
          "indexed": true,
          "internalType": "address",
          "name": "to",
          "type": "address"
        },
        {
          "indexed": false,
          "internalType": "uint256",
          "name": "collectionId",
          "type": "uint256"
        },
        {
          "indexed": false,
          "internalType": "uint256",
          "name": "amount",
          "type": "uint256"
        }
      ],
      "name": "RoyaltyPaid",
      "type": "event"
    },
    {
      "anonymous": false,
      "inputs": [
        {
          "indexed": true,
          "internalType": "address",
          "name": "from",
          "type": "address"
        },
        {
          "indexed": true,
          "internalType": "address",
          "name": "to",
          "type": "address"
        },
        {
          "indexed": false,
          "internalType": "uint256",
          "name": "collectionId",
          "type": "uint256"
        },
        {
          "indexed": false,
          "internalType": "uint256",
          "name": "amount",
          "type": "uint256"
        }
      ],
      "name": "RoyaltyShareFailed",
      "type": "event"
    },
    {
      "anonymous": false,
      "inputs": [
        {
          "indexed": false,
          "internalType": "address",
          "name": "account",
          "type": "address"
        }
      ],
      "name": "Unpaused",
      "type": "event"
    },
    {
      "anonymous": false,
      "inputs": [
        {
          "indexed": true,
          "internalType": "address",
          "name": "implementation",
          "type": "address"
        }
      ],
      "name": "Upgraded",
      "type": "event"
    },
    {
      "inputs": [],
      "name": "DEFAULT_ADMIN_ROLE",
      "outputs": [
        {
          "internalType": "bytes32",
          "name": "",
          "type": "bytes32"
        }
      ],
      "stateMutability": "view",
      "type": "function"
    },
    {
      "inputs": [
        {
          "internalType": "uint256",
          "name": "collectionId",
          "type": "uint256"
        },
        {
          "internalType": "string",
          "name": "name",
          "type": "string"
        },
        {
          "components": [
            {
              "internalType": "uint256",
              "name": "startTime",
              "type": "uint256"
            },
            {
              "internalType": "uint256",
              "name": "price",
              "type": "uint256"
            }
          ],
          "internalType": "struct I8BallCueMinter.MintConfig",
          "name": "mintConfig",
          "type": "tuple"
        },
        {
          "components": [
            {
              "internalType": "uint256",
              "name": "duration",
              "type": "uint256"
            },
            {
              "internalType": "uint256",
              "name": "discount",
              "type": "uint256"
            }
          ],
          "internalType": "struct I8BallCueMinter.AllowlistConfig",
          "name": "allowlistConfig",
          "type": "tuple"
        }
      ],
      "name": "addCollection",
      "outputs": [],
      "stateMutability": "nonpayable",
      "type": "function"
    },
    {
      "inputs": [
        {
          "internalType": "uint256",
          "name": "collectionId",
          "type": "uint256"
        },
        {
          "components": [
            {
              "internalType": "enum I8BallCommon.Rarity",
              "name": "rarity",
              "type": "uint8"
            },
            {
              "internalType": "uint256",
              "name": "id",
              "type": "uint256"
            },
            {
              "internalType": "uint256",
              "name": "remaining",
              "type": "uint256"
            },
            {
              "internalType": "string",
              "name": "name",
              "type": "string"
            }
          ],
          "internalType": "struct I8BallCommon.Design[]",
          "name": "designs",
          "type": "tuple[]"
        }
      ],
      "name": "addCollectionDesigns",
      "outputs": [],
      "stateMutability": "nonpayable",
      "type": "function"
    },
    {
      "inputs": [
        {
          "internalType": "uint256",
          "name": "collectionId",
          "type": "uint256"
        },
        {
          "internalType": "address[]",
          "name": "wallets",
          "type": "address[]"
        }
      ],
      "name": "addToCollectionAllowlist",
      "outputs": [],
      "stateMutability": "nonpayable",
      "type": "function"
    },
    {
      "inputs": [],
      "name": "cue",
      "outputs": [
        {
          "internalType": "address",
          "name": "",
          "type": "address"
        }
      ],
      "stateMutability": "view",
      "type": "function"
    },
    {
      "inputs": [
        {
          "internalType": "uint256",
          "name": "collectionId",
          "type": "uint256"
        }
      ],
      "name": "getCollectionAllowlist",
      "outputs": [
        {
          "internalType": "address[]",
          "name": "",
          "type": "address[]"
        }
      ],
      "stateMutability": "view",
      "type": "function"
    },
    {
      "inputs": [
        {
          "internalType": "uint256",
          "name": "collectionId",
          "type": "uint256"
        }
      ],
      "name": "getCollectionAllowlistConfig",
      "outputs": [
        {
          "components": [
            {
              "internalType": "uint256",
              "name": "duration",
              "type": "uint256"
            },
            {
              "internalType": "uint256",
              "name": "discount",
              "type": "uint256"
            }
          ],
          "internalType": "struct I8BallCueMinter.AllowlistConfig",
          "name": "",
          "type": "tuple"
        }
      ],
      "stateMutability": "view",
      "type": "function"
    },
    {
      "inputs": [],
      "name": "getCollectionIds",
      "outputs": [
        {
          "internalType": "uint256[]",
          "name": "",
          "type": "uint256[]"
        }
      ],
      "stateMutability": "view",
      "type": "function"
    },
    {
      "inputs": [
        {
          "internalType": "uint256",
          "name": "collectionId",
          "type": "uint256"
        }
      ],
      "name": "getCollectionMintConfig",
      "outputs": [
        {
          "components": [
            {
              "internalType": "uint256",
              "name": "startTime",
              "type": "uint256"
            },
            {
              "internalType": "uint256",
              "name": "price",
              "type": "uint256"
            }
          ],
          "internalType": "struct I8BallCueMinter.MintConfig",
          "name": "",
          "type": "tuple"
        }
      ],
      "stateMutability": "view",
      "type": "function"
    },
    {
      "inputs": [
        {
          "internalType": "uint256",
          "name": "collectionId",
          "type": "uint256"
        }
      ],
      "name": "getCollectionRoyaltyConfig",
      "outputs": [
        {
          "components": [
            {
              "internalType": "address",
              "name": "treasury",
              "type": "address"
            },
            {
              "internalType": "uint256",
              "name": "basisPoints",
              "type": "uint256"
            }
          ],
          "internalType": "struct I8BallCueMinter.RoyaltyConfig",
          "name": "",
          "type": "tuple"
        }
      ],
      "stateMutability": "view",
      "type": "function"
    },
    {
      "inputs": [
        {
          "internalType": "uint256",
          "name": "collectionId",
          "type": "uint256"
        }
      ],
      "name": "getMintPrice",
      "outputs": [
        {
          "internalType": "uint256",
          "name": "",
          "type": "uint256"
        }
      ],
      "stateMutability": "view",
      "type": "function"
    },
    {
      "inputs": [
        {
          "internalType": "bytes32",
          "name": "role",
          "type": "bytes32"
        }
      ],
      "name": "getRoleAdmin",
      "outputs": [
        {
          "internalType": "bytes32",
          "name": "",
          "type": "bytes32"
        }
      ],
      "stateMutability": "view",
      "type": "function"
    },
    {
      "inputs": [
        {
          "internalType": "bytes32",
          "name": "role",
          "type": "bytes32"
        },
        {
          "internalType": "uint256",
          "name": "index",
          "type": "uint256"
        }
      ],
      "name": "getRoleMember",
      "outputs": [
        {
          "internalType": "address",
          "name": "",
          "type": "address"
        }
      ],
      "stateMutability": "view",
      "type": "function"
    },
    {
      "inputs": [
        {
          "internalType": "bytes32",
          "name": "role",
          "type": "bytes32"
        }
      ],
      "name": "getRoleMemberCount",
      "outputs": [
        {
          "internalType": "uint256",
          "name": "",
          "type": "uint256"
        }
      ],
      "stateMutability": "view",
      "type": "function"
    },
    {
      "inputs": [
        {
          "internalType": "bytes32",
          "name": "role",
          "type": "bytes32"
        },
        {
          "internalType": "address",
          "name": "account",
          "type": "address"
        }
      ],
      "name": "grantRole",
      "outputs": [],
      "stateMutability": "nonpayable",
      "type": "function"
    },
    {
      "inputs": [
        {
          "internalType": "bytes32",
          "name": "role",
          "type": "bytes32"
        },
        {
          "internalType": "address",
          "name": "account",
          "type": "address"
        }
      ],
      "name": "hasRole",
      "outputs": [
        {
          "internalType": "bool",
          "name": "",
          "type": "bool"
        }
      ],
      "stateMutability": "view",
      "type": "function"
    },
    {
      "inputs": [],
      "name": "initialize",
      "outputs": [],
      "stateMutability": "nonpayable",
      "type": "function"
    },
    {
      "inputs": [
        {
          "internalType": "uint256",
          "name": "collectionId",
          "type": "uint256"
        },
        {
          "internalType": "address",
          "name": "wallet",
          "type": "address"
        }
      ],
      "name": "isAllowlisted",
      "outputs": [
        {
          "internalType": "bool",
          "name": "",
          "type": "bool"
        }
      ],
      "stateMutability": "view",
      "type": "function"
    },
    {
      "inputs": [
        {
          "internalType": "uint256",
          "name": "collectionId",
          "type": "uint256"
        }
      ],
      "name": "mintCue",
      "outputs": [],
      "stateMutability": "payable",
      "type": "function"
    },
    {
      "inputs": [],
      "name": "pause",
      "outputs": [],
      "stateMutability": "nonpayable",
      "type": "function"
    },
    {
      "inputs": [],
      "name": "paused",
      "outputs": [
        {
          "internalType": "bool",
          "name": "",
          "type": "bool"
        }
      ],
      "stateMutability": "view",
      "type": "function"
    },
    {
      "inputs": [],
      "name": "proxiableUUID",
      "outputs": [
        {
          "internalType": "bytes32",
          "name": "",
          "type": "bytes32"
        }
      ],
      "stateMutability": "view",
      "type": "function"
    },
    {
      "inputs": [
        {
          "internalType": "uint256",
          "name": "collectionId",
          "type": "uint256"
        },
        {
          "internalType": "address[]",
          "name": "wallets",
          "type": "address[]"
        }
      ],
      "name": "removeFromCollectionAllowlist",
      "outputs": [],
      "stateMutability": "nonpayable",
      "type": "function"
    },
    {
      "inputs": [
        {
          "internalType": "bytes32",
          "name": "role",
          "type": "bytes32"
        },
        {
          "internalType": "address",
          "name": "account",
          "type": "address"
        }
      ],
      "name": "renounceRole",
      "outputs": [],
      "stateMutability": "nonpayable",
      "type": "function"
    },
    {
      "inputs": [
        {
          "internalType": "bytes32",
          "name": "role",
          "type": "bytes32"
        },
        {
          "internalType": "address",
          "name": "account",
          "type": "address"
        }
      ],
      "name": "revokeRole",
      "outputs": [],
      "stateMutability": "nonpayable",
      "type": "function"
    },
    {
      "inputs": [
        {
          "internalType": "uint256",
          "name": "collectionId",
          "type": "uint256"
        },
        {
          "components": [
            {
              "internalType": "uint256",
              "name": "duration",
              "type": "uint256"
            },
            {
              "internalType": "uint256",
              "name": "discount",
              "type": "uint256"
            }
          ],
          "internalType": "struct I8BallCueMinter.AllowlistConfig",
          "name": "config",
          "type": "tuple"
        }
      ],
      "name": "setCollectionAllowlistConfig",
      "outputs": [],
      "stateMutability": "nonpayable",
      "type": "function"
    },
    {
      "inputs": [
        {
          "internalType": "uint256",
          "name": "collectionId",
          "type": "uint256"
        },
        {
          "components": [
            {
              "internalType": "uint256",
              "name": "startTime",
              "type": "uint256"
            },
            {
              "internalType": "uint256",
              "name": "price",
              "type": "uint256"
            }
          ],
          "internalType": "struct I8BallCueMinter.MintConfig",
          "name": "config",
          "type": "tuple"
        }
      ],
      "name": "setCollectionMintConfig",
      "outputs": [],
      "stateMutability": "nonpayable",
      "type": "function"
    },
    {
      "inputs": [
        {
          "internalType": "uint256",
          "name": "collectionId",
          "type": "uint256"
        },
        {
          "components": [
            {
              "internalType": "address",
              "name": "treasury",
              "type": "address"
            },
            {
              "internalType": "uint256",
              "name": "basisPoints",
              "type": "uint256"
            }
          ],
          "internalType": "struct I8BallCueMinter.RoyaltyConfig",
          "name": "config",
          "type": "tuple"
        }
      ],
      "name": "setCollectionRoyaltyConfig",
      "outputs": [],
      "stateMutability": "nonpayable",
      "type": "function"
    },
    {
      "inputs": [
        {
          "internalType": "address",
          "name": "_treasury",
          "type": "address"
        }
      ],
      "name": "setTreasury",
      "outputs": [],
      "stateMutability": "nonpayable",
      "type": "function"
    },
    {
      "inputs": [
        {
          "internalType": "bytes4",
          "name": "interfaceId",
          "type": "bytes4"
        }
      ],
      "name": "supportsInterface",
      "outputs": [
        {
          "internalType": "bool",
          "name": "",
          "type": "bool"
        }
      ],
      "stateMutability": "view",
      "type": "function"
    },
    {
      "inputs": [],
      "name": "treasury",
      "outputs": [
        {
          "internalType": "address",
          "name": "",
          "type": "address"
        }
      ],
      "stateMutability": "view",
      "type": "function"
    },
    {
      "inputs": [],
      "name": "unpause",
      "outputs": [],
      "stateMutability": "nonpayable",
      "type": "function"
    },
    {
      "inputs": [
        {
          "internalType": "uint256",
          "name": "tokenId",
          "type": "uint256"
        },
        {
          "internalType": "uint256",
          "name": "power",
          "type": "uint256"
        },
        {
          "internalType": "uint256",
          "name": "accuracy",
          "type": "uint256"
        },
        {
          "internalType": "uint256",
          "name": "spin",
          "type": "uint256"
        },
        {
          "internalType": "uint256",
          "name": "time",
          "type": "uint256"
        }
      ],
      "name": "upgradeCue",
      "outputs": [],
      "stateMutability": "payable",
      "type": "function"
    },
    {
      "inputs": [],
      "name": "upgradePrice",
      "outputs": [
        {
          "internalType": "uint256",
          "name": "",
          "type": "uint256"
        }
      ],
      "stateMutability": "view",
      "type": "function"
    },
    {
      "inputs": [
        {
          "internalType": "address",
          "name": "newImplementation",
          "type": "address"
        }
      ],
      "name": "upgradeTo",
      "outputs": [],
      "stateMutability": "nonpayable",
      "type": "function"
    },
    {
      "inputs": [
        {
          "internalType": "address",
          "name": "newImplementation",
          "type": "address"
        },
        {
          "internalType": "bytes",
          "name": "data",
          "type": "bytes"
        }
      ],
      "name": "upgradeToAndCall",
      "outputs": [],
      "stateMutability": "payable",
      "type": "function"
    }
  ],
  "bytecode": "0x60a0604052306080523480156200001557600080fd5b506200002062000026565b620000e8565b600054610100900460ff1615620000935760405162461bcd60e51b815260206004820152602760248201527f496e697469616c697a61626c653a20636f6e747261637420697320696e697469604482015266616c697a696e6760c81b606482015260840160405180910390fd5b60005460ff9081161015620000e6576000805460ff191660ff9081179091556040519081527f7f26b83ff96e1f2b6a682f133852f6798a09c465da95921460cefb38474024989060200160405180910390a15b565b6080516137c26200012060003960008181610bd701528181610c1701528181610d2101528181610d610152610df001526137c26000f3fe60806040526004361061020f5760003560e01c8063670216dd11610118578063bec780e0116100a0578063e0072ada1161006f578063e0072ada14610622578063f0f4426014610635578063fa0523ce14610655578063fc43c6bc14610675578063fd2de5391461069557600080fd5b8063bec780e014610595578063ca15c873146105b5578063cfc3b6e6146105d5578063d547741f1461060257600080fd5b80639010d07c116100e75780639010d07c146104f157806391d148541461051157806395947c9d14610531578063a217fddf1461055e578063aff3a7851461057357600080fd5b8063670216dd1461048757806377c9e8d0146104a75780638129fc1c146104c75780638456cb59146104dc57600080fd5b80633659cfe61161019b57806352d1902d1161016a57806352d1902d146103f9578063559e775b1461040e5780635679a5591461042e5780635c975abb1461044e57806361d027b31461046657600080fd5b80633659cfe6146103915780633f4ba83a146103b157806341540b2c146103c65780634f1ef286146103e657600080fd5b8063287ad39f116101e2578063287ad39f146102ee578063298dd1bb146103055780632a5684431461033e5780632f2ff15d1461035157806336568abe1461037157600080fd5b806301ffc9a7146102145780630bca773c146102495780631430bc511461026b578063248a9ca3146102af575b600080fd5b34801561022057600080fd5b5061023461022f366004612c24565b6106b5565b60405190151581526020015b60405180910390f35b34801561025557600080fd5b50610269610264366004612c66565b6106e0565b005b34801561027757600080fd5b5061028b610286366004612c93565b61080f565b6040805182516001600160a01b031681526020928301519281019290925201610240565b3480156102bb57600080fd5b506102e06102ca366004612c93565b600090815261012d602052604090206001015490565b604051908152602001610240565b3480156102fa57600080fd5b506102e06101c15481565b34801561031157600080fd5b506101c054610326906001600160a01b031681565b6040516001600160a01b039091168152602001610240565b61026961034c366004612c93565b610882565b34801561035d57600080fd5b5061026961036c366004612cc1565b610b24565b34801561037d57600080fd5b5061026961038c366004612cc1565b610b4f565b34801561039d57600080fd5b506102696103ac366004612cf1565b610bcd565b3480156103bd57600080fd5b50610269610ca9565b3480156103d257600080fd5b506102346103e1366004612cc1565b610cca565b6102696103f4366004612d55565b610d17565b34801561040557600080fd5b506102e0610de3565b34801561041a57600080fd5b506102e0610429366004612c93565b610e96565b34801561043a57600080fd5b50610269610449366004612e49565b610f0f565b34801561045a57600080fd5b5060335460ff16610234565b34801561047257600080fd5b506101bf54610326906001600160a01b031681565b34801561049357600080fd5b506102696104a2366004612e49565b610fcb565b3480156104b357600080fd5b506102696104c2366004612c66565b611087565b3480156104d357600080fd5b5061026961119f565b3480156104e857600080fd5b50610269611312565b3480156104fd57600080fd5b5061032661050c366004612e95565b611331565b34801561051d57600080fd5b5061023461052c366004612cc1565b61134a565b34801561053d57600080fd5b5061055161054c366004612c93565b611376565b6040516102409190612eb7565b34801561056a57600080fd5b506102e0600081565b34801561057f57600080fd5b506105886113e0565b6040516102409190612ece565b3480156105a157600080fd5b506102696105b0366004612c66565b6113f2565b3480156105c157600080fd5b506102e06105d0366004612c93565b6114c1565b3480156105e157600080fd5b506105f56105f0366004612c93565b6114d9565b6040516102409190612f12565b34801561060e57600080fd5b5061026961061d366004612cc1565b61151e565b610269610630366004612f53565b611544565b34801561064157600080fd5b50610269610650366004612cf1565b61183d565b34801561066157600080fd5b50610551610670366004612c93565b6118fb565b34801561068157600080fd5b50610269610690366004612f8e565b611962565b3480156106a157600080fd5b506102696106b0366004612e49565b611a7d565b600063ca1f040b60e01b6001600160e01b0319831614806106da57506106da82611c76565b92915050565b6106f760008051602061376d833981519152611c9b565b6107036101c283611ca5565b6107285760405162461bcd60e51b815260040161071f9061302e565b60405180910390fd5b428135116107875760405162461bcd60e51b815260206004820152602660248201527f3842616c6c4375654d696e7465723a3a496e76616c6964206d696e7420737461604482015265727454696d6560d01b606482015260840161071f565b60008160200135116107e65760405162461bcd60e51b815260206004820152602260248201527f3842616c6c4375654d696e7465723a3a496e76616c6964206d696e7420707269604482015261636560f01b606482015260840161071f565b60008281526101c4602090815260409091208235815590820135600182015581815b5050505050565b604080518082019091526000808252602082015261082f6101c283611ca5565b61084b5760405162461bcd60e51b815260040161071f9061302e565b5060009081526101c46020908152604091829020825180840190935260068101546001600160a01b03168352600701549082015290565b61088a611cbd565b610892611d03565b61089e6101c282611ca5565b6108ba5760405162461bcd60e51b815260040161071f9061302e565b60008181526101c4602052604090208054421015806108dd57506108dd33611d5c565b6109355760405162461bcd60e51b8152602060048201526024808201527f3842616c6c4375654d696e7465723a3a4d696e7420686173206e6f74207374616044820152631c9d195960e21b606482015260840161071f565b600061094382600801611d76565b116109905760405162461bcd60e51b815260206004820152601860248201527f3842616c6c4375654d696e7465723a3a536f6c64206f75740000000000000000604482015260640161071f565b600061099b83611d80565b905060006109b36109ae84600801611f3e565b611f4b565b6000818152600a8501602052604081206001810180549394509092916109d88361308d565b919050555080600101546000036109f8576109f66008850183612008565b505b6000610a046101c55490565b9050610a156101c580546001019055565b6101c0546040805160e0810190915283546001600160a01b03909216916301e65df1913391859190819060ff166004811115610a5357610a536130a4565b81526020018b815260200188815260200160018152602001600181526020016001815260200160018152506040518463ffffffff1660e01b8152600401610a9c939291906130dc565b600060405180830381600087803b158015610ab657600080fd5b505af1158015610aca573d6000803e3d6000fd5b505083546040513393507f20a1a53afff5899d6a197cadef7db93281256627d98124e9756d69cef4c83f059250610b0a9185918b9160ff16908a9061314a565b60405180910390a25050505050610b21600160c955565b50565b600082815261012d6020526040902060010154610b4081611c9b565b610b4a838361201b565b505050565b6001600160a01b0381163314610bbf5760405162461bcd60e51b815260206004820152602f60248201527f416363657373436f6e74726f6c3a2063616e206f6e6c792072656e6f756e636560448201526e103937b632b9903337b91039b2b63360891b606482015260840161071f565b610bc9828261203e565b5050565b6001600160a01b037f0000000000000000000000000000000000000000000000000000000000000000163003610c155760405162461bcd60e51b815260040161071f90613174565b7f00000000000000000000000000000000000000000000000000000000000000006001600160a01b0316610c5e600080516020613726833981519152546001600160a01b031690565b6001600160a01b031614610c845760405162461bcd60e51b815260040161071f906131c0565b610c8d81612061565b60408051600080825260208201909252610b2191839190612078565b610cc060008051602061376d833981519152611c9b565b610cc86121e3565b565b6000610cd86101c284611ca5565b610cf45760405162461bcd60e51b815260040161071f9061302e565b60008381526101c460205260409020610d109060040183612235565b9392505050565b6001600160a01b037f0000000000000000000000000000000000000000000000000000000000000000163003610d5f5760405162461bcd60e51b815260040161071f90613174565b7f00000000000000000000000000000000000000000000000000000000000000006001600160a01b0316610da8600080516020613726833981519152546001600160a01b031690565b6001600160a01b031614610dce5760405162461bcd60e51b815260040161071f906131c0565b610dd782612061565b610bc982826001612078565b6000306001600160a01b037f00000000000000000000000000000000000000000000000000000000000000001614610e835760405162461bcd60e51b815260206004820152603860248201527f555550535570677261646561626c653a206d757374206e6f742062652063616c60448201527f6c6564207468726f7567682064656c656761746563616c6c0000000000000000606482015260840161071f565b5060008051602061372683398151915290565b60008181526101c460205260408120600281015481548392914291610ebb919061320c565b1115610ef757610ece6004820133612235565b15610ef7576003810154600182015461271091610eea9161321f565b610ef49190613254565b91505b6001810154610f07908390613268565b949350505050565b610f2660008051602061376d833981519152611c9b565b610f326101c284611ca5565b610f4e5760405162461bcd60e51b815260040161071f9061302e565b80610f6b5760405162461bcd60e51b815260040161071f9061327b565b60008381526101c460205260408120905b8281101561080857610fb8848483818110610f9957610f996132bc565b9050602002016020810190610fae9190612cf1565b6004840190612257565b5080610fc3816132d2565b915050610f7c565b610fe260008051602061376d833981519152611c9b565b610fee6101c284611ca5565b61100a5760405162461bcd60e51b815260040161071f9061302e565b806110275760405162461bcd60e51b815260040161071f9061327b565b60008381526101c460205260408120905b8281101561080857611074848483818110611055576110556132bc565b905060200201602081019061106a9190612cf1565b600484019061226c565b508061107f816132d2565b915050611038565b61109e60008051602061376d833981519152611c9b565b6110aa6101c283611ca5565b6110c65760405162461bcd60e51b815260040161071f9061302e565b60208101351580156110d757508035155b806110f057506020810135158015906110f05750803515155b61110c5760405162461bcd60e51b815260040161071f906132eb565b6127108160200135106111745760405162461bcd60e51b815260206004820152602a60248201527f3842616c6c4375654d696e7465723a3a496e76616c696420616c6c6f776c69736044820152691d08191a5cd8dbdd5b9d60b21b606482015260840161071f565b60008281526101c4602052604090208160028201610808828281358155602082013560018201555050565b600054610100900460ff16158080156111bf5750600054600160ff909116105b806111d95750303b1580156111d9575060005460ff166001145b61123c5760405162461bcd60e51b815260206004820152602e60248201527f496e697469616c697a61626c653a20636f6e747261637420697320616c72656160448201526d191e481a5b9a5d1a585b1a5e995960921b606482015260840161071f565b6000805460ff19166001179055801561125f576000805461ff0019166101001790555b611267612281565b61126f6122b0565b6112776123aa565b61127f6123d1565b6112876123aa565b6706f05b59d3b200006101c1556101c080546001600160a01b03191673ecc82f602a7982a9464844dee6dbc751e3615bb41790556112ca6101c580546001019055565b8015610b21576000805461ff0019169055604051600181527f7f26b83ff96e1f2b6a682f133852f6798a09c465da95921460cefb38474024989060200160405180910390a150565b61132960008051602061376d833981519152611c9b565b610cc8612400565b600082815261015f60205260408120610d10908361243d565b600091825261012d602090815260408084206001600160a01b0393909316845291905290205460ff1690565b60408051808201909152600080825260208201526113966101c283611ca5565b6113b25760405162461bcd60e51b815260040161071f9061302e565b5060009081526101c46020908152604091829020825180840190935260028101548352600301549082015290565b60606113ed6101c2611f3e565b905090565b61140960008051602061376d833981519152611c9b565b6114156101c283611ca5565b6114315760405162461bcd60e51b815260040161071f9061302e565b60208101351580156114585750600061144d6020830183612cf1565b6001600160a01b0316145b8061148757506020810135158015906114875750600061147b6020830183612cf1565b6001600160a01b031614155b6114a35760405162461bcd60e51b815260040161071f906132eb565b60008281526101c46020526040902081600682016108088282613331565b600081815261015f602052604081206106da90611d76565b60606114e76101c283611ca5565b6115035760405162461bcd60e51b815260040161071f9061302e565b60008281526101c4602052604090206106da90600401611f3e565b600082815261012d602052604090206001015461153a81611c9b565b610b4a838361203e565b61154c611cbd565b611554611d03565b6101c0546040516334985b9960e01b8152600481018790526001600160a01b039091169060009082906334985b999060240160e060405180830381865afa1580156115a3573d6000803e3d6000fd5b505050506040513d601f19601f820116820180604052508101906115c79190613374565b9050600080825160048111156115df576115df6130a4565b1461160757815160048111156115f7576115f76130a4565b61160290600661320c565b61160a565b60055b905060006101c1548587898b611620919061320c565b61162a919061320c565b611634919061320c565b61163e919061321f565b9050803410156116605760405162461bcd60e51b815260040161071f90613401565b6101bf546040516001600160a01b039091169082156108fc029083906000818181858888f1935050505015801561169b573d6000803e3d6000fd5b5087836060018181516116ae919061320c565b9052506080830180518891906116c590839061320c565b90525060a0830180518791906116dc90839061320c565b90525060c0830180518691906116f390839061320c565b9052506060830151821080159061170e575081836080015111155b801561171e5750818360a0015111155b801561172e5750818360c0015111155b61178a5760405162461bcd60e51b815260206004820152602760248201527f3842616c6c4375654d696e7465723a3a496e76616c6964207570677261646520604482015266616d6f756e747360c81b606482015260840161071f565b604051637ec0722d60e11b81526001600160a01b0385169063fd80e45a906117ba9033908d9088906004016130dc565b600060405180830381600087803b1580156117d457600080fd5b505af11580156117e8573d6000803e3d6000fd5b505050602084015184516040513393507f5cfa1078ee34a46e31f28532801a74fda1a0cd45b83f4c78c7fbb24abec85e4192611827928e92879061314a565b60405180910390a250505050610808600160c955565b61185460008051602061376d833981519152611c9b565b6001600160a01b0381161580159061187b57506101bf546001600160a01b03828116911614155b6118d85760405162461bcd60e51b815260206004820152602860248201527f3842616c6c4375654d696e7465723a3a496e76616c6964207472656173757279604482015267206164647265737360c01b606482015260840161071f565b6101bf80546001600160a01b0319166001600160a01b0392909216919091179055565b604080518082019091526000808252602082015261191b6101c283611ca5565b6119375760405162461bcd60e51b815260040161071f9061302e565b5060009081526101c46020908152604091829020825180840190935280548352600101549082015290565b61197960008051602061376d833981519152611c9b565b6119856101c286612449565b6119e05760405162461bcd60e51b815260206004820152602660248201527f3842616c6c4375654d696e7465723a3a4578697374696e6720636f6c6c6563746044820152651a5bdb88125160d21b606482015260840161071f565b60008581526101c4602090815260409182902084358155848201356001820155833560028201559083013560038201556101c054915162a4bcfb60e11b815290916001600160a01b03169063014979f690611a439089908990899060040161346e565b600060405180830381600087803b158015611a5d57600080fd5b505af1158015611a71573d6000803e3d6000fd5b50505050505050505050565b611a9460008051602061376d833981519152611c9b565b611aa06101c284611ca5565b611abc5760405162461bcd60e51b815260040161071f9061302e565b60008381526101c460205260408120905b82811015611c0857611b0a848483818110611aea57611aea6132bc565b9050602002810190611afc9190613488565b600884019060200135612449565b506040518060400160405280858584818110611b2857611b286132bc565b9050602002810190611b3a9190613488565b611b489060208101906134a8565b6004811115611b5957611b596130a4565b8152602001858584818110611b7057611b706132bc565b9050602002810190611b829190613488565b604001359052600a83016000868685818110611ba057611ba06132bc565b9050602002810190611bb29190613488565b602090810135825281019190915260400160002081518154829060ff19166001836004811115611be457611be46130a4565b02179055506020919091015160019091015580611c00816132d2565b915050611acd565b506101c05460405163fd2de53960e01b81526001600160a01b039091169063fd2de53990611c3e908790879087906004016134c5565b600060405180830381600087803b158015611c5857600080fd5b505af1158015611c6c573d6000803e3d6000fd5b5050505050505050565b60006001600160e01b03198216635a05180f60e01b14806106da57506106da82612455565b610b21813361248a565b60008181526001830160205260408120541515610d10565b60335460ff1615610cc85760405162461bcd60e51b815260206004820152601060248201526f14185d5cd8589b194e881c185d5cd95960821b604482015260640161071f565b600260c95403611d555760405162461bcd60e51b815260206004820152601f60248201527f5265656e7472616e637947756172643a207265656e7472616e742063616c6c00604482015260640161071f565b600260c955565b60006106da60008051602061376d8339815191528361134a565b60006106da825490565b600080611d8c83610e96565b90508034811115611daf5760405162461bcd60e51b815260040161071f90613401565b60008481526101c46020526040902060060180546001600160a01b031615611ef9576000612710826001015485611de6919061321f565b611df09190613254565b9050611dfc8184613268565b6101bf546040519194506000916001600160a01b039091169083908381818185875af1925050503d8060008114611e4f576040519150601f19603f3d011682016040523d82523d6000602084013e611e54565b606091505b505090508015611eac57825460408051898152602081018590526001600160a01b039092169133917f98ffdf4f5be5af8de356ea9db372549d2182650280d5234acb94a9955e788c56910160405180910390a3611ef6565b825460408051898152602081018590526001600160a01b039092169133917f820d26b4d2455e90e3d3f84dc019d6873705f91d9ec310888cc6357f0914988d910160405180910390a35b50505b6101bf546040516001600160a01b039091169083156108fc029084906000818181858888f19350505050158015611f34573d6000803e3d6000fd5b5091949350505050565b60606000610d10836124e3565b604080514260208201526bffffffffffffffffffffffff193360601b16918101919091524360548201526000908190610100906074016040516020818303038152906040528051906020012060001c611fa491906135b9565b90506000611fb28243613268565b6040805191406020830152016040516020818303038152906040528051906020012060001c905083845182611fe791906135b9565b81518110611ff757611ff76132bc565b602002602001015192505050919050565b6000610d10838361253f565b600160c955565b6120258282612632565b600082815261015f60205260409020610b4a908261226c565b61204882826126b9565b600082815261015f60205260409020610b4a9082612257565b610b2160008051602061376d833981519152611c9b565b7f4910fdfa16fed3260ed0e7147f7cc6da11a60208b5b9406d12a635614ffd91435460ff16156120ab57610b4a83612721565b826001600160a01b03166352d1902d6040518163ffffffff1660e01b8152600401602060405180830381865afa925050508015612105575060408051601f3d908101601f19168201909252612102918101906135cd565b60015b6121685760405162461bcd60e51b815260206004820152602e60248201527f45524331393637557067726164653a206e657720696d706c656d656e7461746960448201526d6f6e206973206e6f74205555505360901b606482015260840161071f565b60008051602061372683398151915281146121d75760405162461bcd60e51b815260206004820152602960248201527f45524331393637557067726164653a20756e737570706f727465642070726f786044820152681a58589b195555525160ba1b606482015260840161071f565b50610b4a8383836127bd565b6121eb6127e8565b6033805460ff191690557f5db9ee0a495bf2e6ff9c91a7834c1ba4fdd244a5e8aa4e537bd38aeae4b073aa335b6040516001600160a01b03909116815260200160405180910390a1565b6001600160a01b03811660009081526001830160205260408120541515610d10565b6000610d10836001600160a01b03841661253f565b6000610d10836001600160a01b038416612831565b600054610100900460ff166122a85760405162461bcd60e51b815260040161071f906135e6565b610cc8612880565b600054610100900460ff166122d75760405162461bcd60e51b815260040161071f906135e6565b6122df6123aa565b6122ea60003361201b565b61230260008051602061376d8339815191523361201b565b61232c7f364d3d7565c7a8300c96fd53e065d19b65848d7b23b3191adcd55621c744223c3361201b565b6123567f9f2df0fed2c77648de5860a4cc508cd0818c85b8b8a1ab4ceeef8d981c8956a63361201b565b6123807ff18b77e1ef402111bacb54bd5e03494cbdba92fbd1bd3bbcc1ce77e69b42ea6c3361201b565b610cc87f52ba824bfabc2bcfcdf7f0edbb486ebb05e1836c90e78047efeb949990f72e5f3361201b565b600054610100900460ff16610cc85760405162461bcd60e51b815260040161071f906135e6565b600054610100900460ff166123f85760405162461bcd60e51b815260040161071f906135e6565b610cc86128b3565b612408611cbd565b6033805460ff191660011790557f62e78cea01bee320cd4e420270b5ea74000d11b0c9f74754ebdbfc544b05a2586122183390565b6000610d1083836128da565b6000610d108383612831565b60006001600160e01b03198216637965db0b60e01b14806106da57506301ffc9a760e01b6001600160e01b03198316146106da565b612494828261134a565b610bc9576124a181612904565b6124ac836020612916565b6040516020016124bd929190613655565b60408051601f198184030181529082905262461bcd60e51b825261071f916004016136ca565b60608160000180548060200260200160405190810160405280929190818152602001828054801561253357602002820191906000526020600020905b81548152602001906001019080831161251f575b50505050509050919050565b60008181526001830160205260408120548015612628576000612563600183613268565b855490915060009061257790600190613268565b90508181146125dc576000866000018281548110612597576125976132bc565b90600052602060002001549050808760000184815481106125ba576125ba6132bc565b6000918252602080832090910192909255918252600188019052604090208390555b85548690806125ed576125ed6136fd565b6001900381819060005260206000200160009055905585600101600086815260200190815260200160002060009055600193505050506106da565b60009150506106da565b61263c828261134a565b610bc957600082815261012d602090815260408083206001600160a01b03851684529091529020805460ff191660011790556126753390565b6001600160a01b0316816001600160a01b0316837f2f8788117e7eff1d82e926ec794901d17c78024a50270940304540a733656f0d60405160405180910390a45050565b6126c3828261134a565b15610bc957600082815261012d602090815260408083206001600160a01b0385168085529252808320805460ff1916905551339285917ff6391f5c32d9c69d2a47ea670b442974b53935d1edc7fd64eb21e047a839171b9190a45050565b6001600160a01b0381163b61278e5760405162461bcd60e51b815260206004820152602d60248201527f455243313936373a206e657720696d706c656d656e746174696f6e206973206e60448201526c1bdd08184818dbdb9d1c9858dd609a1b606482015260840161071f565b60008051602061372683398151915280546001600160a01b0319166001600160a01b0392909216919091179055565b6127c683612ab2565b6000825111806127d35750805b15610b4a576127e28383612af2565b50505050565b60335460ff16610cc85760405162461bcd60e51b815260206004820152601460248201527314185d5cd8589b194e881b9bdd081c185d5cd95960621b604482015260640161071f565b6000818152600183016020526040812054612878575081546001818101845560008481526020808220909301849055845484825282860190935260409020919091556106da565b5060006106da565b600054610100900460ff166128a75760405162461bcd60e51b815260040161071f906135e6565b6033805460ff19169055565b600054610100900460ff166120145760405162461bcd60e51b815260040161071f906135e6565b60008260000182815481106128f1576128f16132bc565b9060005260206000200154905092915050565b60606106da6001600160a01b03831660145b6060600061292583600261321f565b61293090600261320c565b67ffffffffffffffff81111561294857612948612d0e565b6040519080825280601f01601f191660200182016040528015612972576020820181803683370190505b509050600360fc1b8160008151811061298d5761298d6132bc565b60200101906001600160f81b031916908160001a905350600f60fb1b816001815181106129bc576129bc6132bc565b60200101906001600160f81b031916908160001a90535060006129e084600261321f565b6129eb90600161320c565b90505b6001811115612a63576f181899199a1a9b1b9c1cb0b131b232b360811b85600f1660108110612a1f57612a1f6132bc565b1a60f81b828281518110612a3557612a356132bc565b60200101906001600160f81b031916908160001a90535060049490941c93612a5c8161308d565b90506129ee565b508315610d105760405162461bcd60e51b815260206004820181905260248201527f537472696e67733a20686578206c656e67746820696e73756666696369656e74604482015260640161071f565b612abb81612721565b6040516001600160a01b038216907fbc7cd75a20ee27fd9adebab32041f755214dbc6bffa90cc0225b39da2e5c2d3b90600090a250565b60606001600160a01b0383163b612b5a5760405162461bcd60e51b815260206004820152602660248201527f416464726573733a2064656c65676174652063616c6c20746f206e6f6e2d636f6044820152651b9d1c9858dd60d21b606482015260840161071f565b600080846001600160a01b031684604051612b759190613713565b600060405180830381855af49150503d8060008114612bb0576040519150601f19603f3d011682016040523d82523d6000602084013e612bb5565b606091505b5091509150612bdd828260405180606001604052806027815260200161374660279139612be6565b95945050505050565b60608315612bf5575081610d10565b610d108383815115612c0a5781518083602001fd5b8060405162461bcd60e51b815260040161071f91906136ca565b600060208284031215612c3657600080fd5b81356001600160e01b031981168114610d1057600080fd5b600060408284031215612c6057600080fd5b50919050565b60008060608385031215612c7957600080fd5b82359150612c8a8460208501612c4e565b90509250929050565b600060208284031215612ca557600080fd5b5035919050565b6001600160a01b0381168114610b2157600080fd5b60008060408385031215612cd457600080fd5b823591506020830135612ce681612cac565b809150509250929050565b600060208284031215612d0357600080fd5b8135610d1081612cac565b634e487b7160e01b600052604160045260246000fd5b604051601f8201601f1916810167ffffffffffffffff81118282101715612d4d57612d4d612d0e565b604052919050565b60008060408385031215612d6857600080fd5b8235612d7381612cac565b915060208381013567ffffffffffffffff80821115612d9157600080fd5b818601915086601f830112612da557600080fd5b813581811115612db757612db7612d0e565b612dc9601f8201601f19168501612d24565b91508082528784828501011115612ddf57600080fd5b80848401858401376000848284010152508093505050509250929050565b60008083601f840112612e0f57600080fd5b50813567ffffffffffffffff811115612e2757600080fd5b6020830191508360208260051b8501011115612e4257600080fd5b9250929050565b600080600060408486031215612e5e57600080fd5b83359250602084013567ffffffffffffffff811115612e7c57600080fd5b612e8886828701612dfd565b9497909650939450505050565b60008060408385031215612ea857600080fd5b50508035926020909101359150565b8151815260208083015190820152604081016106da565b6020808252825182820181905260009190848201906040850190845b81811015612f0657835183529284019291840191600101612eea565b50909695505050505050565b6020808252825182820181905260009190848201906040850190845b81811015612f065783516001600160a01b031683529284019291840191600101612f2e565b600080600080600060a08688031215612f6b57600080fd5b505083359560208501359550604085013594606081013594506080013592509050565b600080600080600060c08688031215612fa657600080fd5b85359450602086013567ffffffffffffffff80821115612fc557600080fd5b818801915088601f830112612fd957600080fd5b813581811115612fe857600080fd5b896020828501011115612ffa57600080fd5b6020830196508095505050506130138760408801612c4e565b91506130228760808801612c4e565b90509295509295909350565b60208082526029908201527f3842616c6c4375654d696e7465723a3a4e6f6e2d6578697374656e7420636f6c6040820152681b1958dd1a5bdb925960ba1b606082015260800190565b634e487b7160e01b600052601160045260246000fd5b60008161309c5761309c613077565b506000190190565b634e487b7160e01b600052602160045260246000fd5b600581106130d857634e487b7160e01b600052602160045260246000fd5b9052565b6001600160a01b03841681526020810183905281516101208201906131059060408401906130ba565b6020830151606083015260408301516080830152606083015160a0830152608083015160c083015260a083015160e083015260c0830151610100830152949350505050565b848152602081018490526080810161316560408301856130ba565b82606083015295945050505050565b6020808252602c908201527f46756e6374696f6e206d7573742062652063616c6c6564207468726f7567682060408201526b19195b1959d85d1958d85b1b60a21b606082015260800190565b6020808252602c908201527f46756e6374696f6e206d7573742062652063616c6c6564207468726f7567682060408201526b6163746976652070726f787960a01b606082015260800190565b808201808211156106da576106da613077565b600081600019048311821515161561323957613239613077565b500290565b634e487b7160e01b600052601260045260246000fd5b6000826132635761326361323e565b500490565b818103818111156106da576106da613077565b60208082526021908201527f3842616c6c4375654d696e7465723a3a456d7074792077616c6c6574206c69736040820152601d60fa1b606082015260800190565b634e487b7160e01b600052603260045260246000fd5b6000600182016132e4576132e4613077565b5060010190565b60208082526026908201527f3842616c6c4375654d696e7465723a3a496e76616c696420726f79616c747920604082015265636f6e66696760d01b606082015260800190565b813561333c81612cac565b81546001600160a01b0319166001600160a01b03919091161781556020919091013560019190910155565b60058110610b2157600080fd5b600060e0828403121561338657600080fd5b60405160e0810181811067ffffffffffffffff821117156133a9576133a9612d0e565b60405282516133b781613367565b808252506020830151602082015260408301516040820152606083015160608201526080830151608082015260a083015160a082015260c083015160c08201528091505092915050565b60208082526024908201527f3842616c6c4375654d696e7465723a3a496e73756666696369656e74207061796040820152631b595b9d60e21b606082015260800190565b81835281816020850137506000828201602090810191909152601f909101601f19169091010190565b838152604060208201526000612bdd604083018486613445565b60008235607e1983360301811261349e57600080fd5b9190910192915050565b6000602082840312156134ba57600080fd5b8135610d1081613367565b600060408083018684526020828186015281868352606092508286019050828760051b8701018860005b898110156135a957888303605f190184528135368c9003607e1901811261351557600080fd5b8b016080813561352481613367565b61352e86826130ba565b508682013587860152888201358986015287820135601e1983360301811261355557600080fd5b90910186810191903567ffffffffffffffff81111561357357600080fd5b80360383131561358257600080fd5b81898701526135948287018285613445565b968801969550505091850191506001016134ef565b50909a9950505050505050505050565b6000826135c8576135c861323e565b500690565b6000602082840312156135df57600080fd5b5051919050565b6020808252602b908201527f496e697469616c697a61626c653a20636f6e7472616374206973206e6f74206960408201526a6e697469616c697a696e6760a81b606082015260800190565b60005b8381101561364c578181015183820152602001613634565b50506000910152565b7f416363657373436f6e74726f6c3a206163636f756e742000000000000000000081526000835161368d816017850160208801613631565b7001034b99036b4b9b9b4b733903937b6329607d1b60179184019182015283516136be816028840160208801613631565b01602801949350505050565b60208152600082518060208401526136e9816040850160208701613631565b601f01601f19169190910160400192915050565b634e487b7160e01b600052603160045260246000fd5b6000825161349e81846020870161363156fe360894a13ba1a3210667c828492db98dca3e2076cc3735a920a3ca505d382bbc416464726573733a206c6f772d6c6576656c2064656c65676174652063616c6c206661696c6564a49807205ce4d355092ef5a8a18f56e8913cf4a201fbe287825b095693c21775a2646970667358221220c6cc7b563ce6194e2c82520415443e04d97057c7b3df3256f7a1f487af4c2bf664736f6c63430008100033",
  "linkReferences": {},
  "deployedLinkReferences": {}
}