{
  "_format": "hh-sol-artifact-1",
  "contractName": "A8BallCueMinter",
  "sourceName": "contracts/A8Ball/Minter/A8BallCueMinter.sol",
  "abi": [
    {
      "inputs": [],
      "stateMutability": "nonpayable",
      "type": "constructor"
    },
    {
      "anonymous": false,
      "inputs": [
        {
          "indexed": false,
          "internalType": "address",
          "name": "previousAdmin",
          "type": "address"
        },
        {
          "indexed": false,
          "internalType": "address",
          "name": "newAdmin",
          "type": "address"
        }
      ],
      "name": "AdminChanged",
      "type": "event"
    },
    {
      "anonymous": false,
      "inputs": [
        {
          "indexed": true,
          "internalType": "address",
          "name": "beacon",
          "type": "address"
        }
      ],
      "name": "BeaconUpgraded",
      "type": "event"
    },
    {
      "anonymous": false,
      "inputs": [
        {
          "indexed": true,
          "internalType": "address",
          "name": "from",
          "type": "address"
        },
        {
          "indexed": false,
          "internalType": "uint256",
          "name": "tokenId",
          "type": "uint256"
        },
        {
          "indexed": false,
          "internalType": "uint256",
          "name": "collectionId",
          "type": "uint256"
        },
        {
          "indexed": false,
          "internalType": "enum I8BallCommon.Rarity",
          "name": "rarity",
          "type": "uint8"
        },
        {
          "indexed": false,
          "internalType": "uint256",
          "name": "price",
          "type": "uint256"
        }
      ],
      "name": "CuePurchased",
      "type": "event"
    },
    {
      "anonymous": false,
      "inputs": [
        {
          "indexed": true,
          "internalType": "address",
          "name": "from",
          "type": "address"
        },
        {
          "indexed": false,
          "internalType": "uint256",
          "name": "tokenId",
          "type": "uint256"
        },
        {
          "indexed": false,
          "internalType": "uint256",
          "name": "collectionId",
          "type": "uint256"
        },
        {
          "indexed": false,
          "internalType": "enum I8BallCommon.Rarity",
          "name": "rarity",
          "type": "uint8"
        },
        {
          "indexed": false,
          "internalType": "uint256",
          "name": "price",
          "type": "uint256"
        }
      ],
      "name": "CueUpgraded",
      "type": "event"
    },
    {
      "anonymous": false,
      "inputs": [
        {
          "indexed": false,
          "internalType": "uint8",
          "name": "version",
          "type": "uint8"
        }
      ],
      "name": "Initialized",
      "type": "event"
    },
    {
      "anonymous": false,
      "inputs": [
        {
          "indexed": false,
          "internalType": "address",
          "name": "account",
          "type": "address"
        }
      ],
      "name": "Paused",
      "type": "event"
    },
    {
      "anonymous": false,
      "inputs": [
        {
          "indexed": true,
          "internalType": "bytes32",
          "name": "role",
          "type": "bytes32"
        },
        {
          "indexed": true,
          "internalType": "bytes32",
          "name": "previousAdminRole",
          "type": "bytes32"
        },
        {
          "indexed": true,
          "internalType": "bytes32",
          "name": "newAdminRole",
          "type": "bytes32"
        }
      ],
      "name": "RoleAdminChanged",
      "type": "event"
    },
    {
      "anonymous": false,
      "inputs": [
        {
          "indexed": true,
          "internalType": "bytes32",
          "name": "role",
          "type": "bytes32"
        },
        {
          "indexed": true,
          "internalType": "address",
          "name": "account",
          "type": "address"
        },
        {
          "indexed": true,
          "internalType": "address",
          "name": "sender",
          "type": "address"
        }
      ],
      "name": "RoleGranted",
      "type": "event"
    },
    {
      "anonymous": false,
      "inputs": [
        {
          "indexed": true,
          "internalType": "bytes32",
          "name": "role",
          "type": "bytes32"
        },
        {
          "indexed": true,
          "internalType": "address",
          "name": "account",
          "type": "address"
        },
        {
          "indexed": true,
          "internalType": "address",
          "name": "sender",
          "type": "address"
        }
      ],
      "name": "RoleRevoked",
      "type": "event"
    },
    {
      "anonymous": false,
      "inputs": [
        {
          "indexed": true,
          "internalType": "address",
          "name": "from",
          "type": "address"
        },
        {
          "indexed": true,
          "internalType": "address",
          "name": "to",
          "type": "address"
        },
        {
          "indexed": false,
          "internalType": "uint256",
          "name": "collectionId",
          "type": "uint256"
        },
        {
          "indexed": false,
          "internalType": "uint256",
          "name": "amount",
          "type": "uint256"
        }
      ],
      "name": "RoyaltyPaid",
      "type": "event"
    },
    {
      "anonymous": false,
      "inputs": [
        {
          "indexed": true,
          "internalType": "address",
          "name": "from",
          "type": "address"
        },
        {
          "indexed": true,
          "internalType": "address",
          "name": "to",
          "type": "address"
        },
        {
          "indexed": false,
          "internalType": "uint256",
          "name": "collectionId",
          "type": "uint256"
        },
        {
          "indexed": false,
          "internalType": "uint256",
          "name": "amount",
          "type": "uint256"
        }
      ],
      "name": "RoyaltyShareFailed",
      "type": "event"
    },
    {
      "anonymous": false,
      "inputs": [
        {
          "indexed": false,
          "internalType": "address",
          "name": "account",
          "type": "address"
        }
      ],
      "name": "Unpaused",
      "type": "event"
    },
    {
      "anonymous": false,
      "inputs": [
        {
          "indexed": true,
          "internalType": "address",
          "name": "implementation",
          "type": "address"
        }
      ],
      "name": "Upgraded",
      "type": "event"
    },
    {
      "inputs": [],
      "name": "DEFAULT_ADMIN_ROLE",
      "outputs": [
        {
          "internalType": "bytes32",
          "name": "",
          "type": "bytes32"
        }
      ],
      "stateMutability": "view",
      "type": "function"
    },
    {
      "inputs": [
        {
          "internalType": "uint256",
          "name": "collectionId",
          "type": "uint256"
        },
        {
          "internalType": "string",
          "name": "name",
          "type": "string"
        },
        {
          "components": [
            {
              "internalType": "uint256",
              "name": "startTime",
              "type": "uint256"
            },
            {
              "internalType": "uint256",
              "name": "price",
              "type": "uint256"
            }
          ],
          "internalType": "struct I8BallCueMinter.MintConfig",
          "name": "mintConfig",
          "type": "tuple"
        },
        {
          "components": [
            {
              "internalType": "uint256",
              "name": "duration",
              "type": "uint256"
            },
            {
              "internalType": "uint256",
              "name": "discount",
              "type": "uint256"
            }
          ],
          "internalType": "struct I8BallCueMinter.AllowlistConfig",
          "name": "allowlistConfig",
          "type": "tuple"
        },
        {
          "internalType": "bool",
          "name": "random",
          "type": "bool"
        }
      ],
      "name": "addCollection",
      "outputs": [],
      "stateMutability": "nonpayable",
      "type": "function"
    },
    {
      "inputs": [
        {
          "internalType": "uint256",
          "name": "collectionId",
          "type": "uint256"
        },
        {
          "components": [
            {
              "internalType": "enum I8BallCommon.Rarity",
              "name": "rarity",
              "type": "uint8"
            },
            {
              "internalType": "uint256",
              "name": "id",
              "type": "uint256"
            },
            {
              "internalType": "uint256",
              "name": "remaining",
              "type": "uint256"
            },
            {
              "internalType": "string",
              "name": "name",
              "type": "string"
            }
          ],
          "internalType": "struct I8BallCommon.Design[]",
          "name": "designs",
          "type": "tuple[]"
        }
      ],
      "name": "addCollectionDesigns",
      "outputs": [],
      "stateMutability": "nonpayable",
      "type": "function"
    },
    {
      "inputs": [
        {
          "internalType": "address",
          "name": "wallet",
          "type": "address"
        },
        {
          "internalType": "uint256",
          "name": "_credits",
          "type": "uint256"
        }
      ],
      "name": "addCredits",
      "outputs": [],
      "stateMutability": "nonpayable",
      "type": "function"
    },
    {
      "inputs": [
        {
          "internalType": "uint256",
          "name": "collectionId",
          "type": "uint256"
        },
        {
          "internalType": "address[]",
          "name": "wallets",
          "type": "address[]"
        }
      ],
      "name": "addToCollectionAllowlist",
      "outputs": [],
      "stateMutability": "nonpayable",
      "type": "function"
    },
    {
      "inputs": [
        {
          "internalType": "address",
          "name": "",
          "type": "address"
        }
      ],
      "name": "credits",
      "outputs": [
        {
          "internalType": "uint256",
          "name": "",
          "type": "uint256"
        }
      ],
      "stateMutability": "view",
      "type": "function"
    },
    {
      "inputs": [],
      "name": "cue",
      "outputs": [
        {
          "internalType": "address",
          "name": "",
          "type": "address"
        }
      ],
      "stateMutability": "view",
      "type": "function"
    },
    {
      "inputs": [
        {
          "internalType": "uint256",
          "name": "collectionId",
          "type": "uint256"
        }
      ],
      "name": "getCollectionAllowlist",
      "outputs": [
        {
          "internalType": "address[]",
          "name": "",
          "type": "address[]"
        }
      ],
      "stateMutability": "view",
      "type": "function"
    },
    {
      "inputs": [
        {
          "internalType": "uint256",
          "name": "collectionId",
          "type": "uint256"
        }
      ],
      "name": "getCollectionAllowlistConfig",
      "outputs": [
        {
          "components": [
            {
              "internalType": "uint256",
              "name": "duration",
              "type": "uint256"
            },
            {
              "internalType": "uint256",
              "name": "discount",
              "type": "uint256"
            }
          ],
          "internalType": "struct I8BallCueMinter.AllowlistConfig",
          "name": "",
          "type": "tuple"
        }
      ],
      "stateMutability": "view",
      "type": "function"
    },
    {
      "inputs": [
        {
          "internalType": "uint256",
          "name": "collectionId",
          "type": "uint256"
        },
        {
          "internalType": "uint256",
          "name": "designId",
          "type": "uint256"
        }
      ],
      "name": "getCollectionDesign",
      "outputs": [
        {
          "components": [
            {
              "internalType": "enum I8BallCommon.Rarity",
              "name": "rarity",
              "type": "uint8"
            },
            {
              "internalType": "uint256",
              "name": "remaining",
              "type": "uint256"
            }
          ],
          "internalType": "struct I8BallCueMinter.DesignBase",
          "name": "",
          "type": "tuple"
        }
      ],
      "stateMutability": "view",
      "type": "function"
    },
    {
      "inputs": [
        {
          "internalType": "uint256",
          "name": "collectionId",
          "type": "uint256"
        }
      ],
      "name": "getCollectionDesignIds",
      "outputs": [
        {
          "internalType": "uint256[]",
          "name": "",
          "type": "uint256[]"
        }
      ],
      "stateMutability": "view",
      "type": "function"
    },
    {
      "inputs": [],
      "name": "getCollectionIds",
      "outputs": [
        {
          "internalType": "uint256[]",
          "name": "",
          "type": "uint256[]"
        }
      ],
      "stateMutability": "view",
      "type": "function"
    },
    {
      "inputs": [
        {
          "internalType": "uint256",
          "name": "collectionId",
          "type": "uint256"
        }
      ],
      "name": "getCollectionMintConfig",
      "outputs": [
        {
          "components": [
            {
              "internalType": "uint256",
              "name": "startTime",
              "type": "uint256"
            },
            {
              "internalType": "uint256",
              "name": "price",
              "type": "uint256"
            }
          ],
          "internalType": "struct I8BallCueMinter.MintConfig",
          "name": "",
          "type": "tuple"
        }
      ],
      "stateMutability": "view",
      "type": "function"
    },
    {
      "inputs": [
        {
          "internalType": "uint256",
          "name": "collectionId",
          "type": "uint256"
        }
      ],
      "name": "getCollectionRandom",
      "outputs": [
        {
          "internalType": "bool",
          "name": "",
          "type": "bool"
        }
      ],
      "stateMutability": "view",
      "type": "function"
    },
    {
      "inputs": [
        {
          "internalType": "uint256",
          "name": "collectionId",
          "type": "uint256"
        }
      ],
      "name": "getCollectionRoyaltyConfig",
      "outputs": [
        {
          "components": [
            {
              "internalType": "address",
              "name": "treasury",
              "type": "address"
            },
            {
              "internalType": "uint256",
              "name": "basisPoints",
              "type": "uint256"
            }
          ],
          "internalType": "struct I8BallCueMinter.RoyaltyConfig",
          "name": "",
          "type": "tuple"
        }
      ],
      "stateMutability": "view",
      "type": "function"
    },
    {
      "inputs": [
        {
          "internalType": "uint256",
          "name": "collectionId",
          "type": "uint256"
        }
      ],
      "name": "getMintPrice",
      "outputs": [
        {
          "internalType": "uint256",
          "name": "",
          "type": "uint256"
        }
      ],
      "stateMutability": "view",
      "type": "function"
    },
    {
      "inputs": [
        {
          "internalType": "bytes32",
          "name": "role",
          "type": "bytes32"
        }
      ],
      "name": "getRoleAdmin",
      "outputs": [
        {
          "internalType": "bytes32",
          "name": "",
          "type": "bytes32"
        }
      ],
      "stateMutability": "view",
      "type": "function"
    },
    {
      "inputs": [
        {
          "internalType": "bytes32",
          "name": "role",
          "type": "bytes32"
        },
        {
          "internalType": "uint256",
          "name": "index",
          "type": "uint256"
        }
      ],
      "name": "getRoleMember",
      "outputs": [
        {
          "internalType": "address",
          "name": "",
          "type": "address"
        }
      ],
      "stateMutability": "view",
      "type": "function"
    },
    {
      "inputs": [
        {
          "internalType": "bytes32",
          "name": "role",
          "type": "bytes32"
        }
      ],
      "name": "getRoleMemberCount",
      "outputs": [
        {
          "internalType": "uint256",
          "name": "",
          "type": "uint256"
        }
      ],
      "stateMutability": "view",
      "type": "function"
    },
    {
      "inputs": [
        {
          "internalType": "bytes32",
          "name": "role",
          "type": "bytes32"
        },
        {
          "internalType": "address",
          "name": "account",
          "type": "address"
        }
      ],
      "name": "grantRole",
      "outputs": [],
      "stateMutability": "nonpayable",
      "type": "function"
    },
    {
      "inputs": [
        {
          "internalType": "bytes32",
          "name": "role",
          "type": "bytes32"
        },
        {
          "internalType": "address",
          "name": "account",
          "type": "address"
        }
      ],
      "name": "hasRole",
      "outputs": [
        {
          "internalType": "bool",
          "name": "",
          "type": "bool"
        }
      ],
      "stateMutability": "view",
      "type": "function"
    },
    {
      "inputs": [],
      "name": "initialize",
      "outputs": [],
      "stateMutability": "nonpayable",
      "type": "function"
    },
    {
      "inputs": [
        {
          "internalType": "uint256",
          "name": "collectionId",
          "type": "uint256"
        },
        {
          "internalType": "address",
          "name": "wallet",
          "type": "address"
        }
      ],
      "name": "isAllowlisted",
      "outputs": [
        {
          "internalType": "bool",
          "name": "",
          "type": "bool"
        }
      ],
      "stateMutability": "view",
      "type": "function"
    },
    {
      "inputs": [
        {
          "internalType": "uint256",
          "name": "collectionId",
          "type": "uint256"
        }
      ],
      "name": "mintRandomCue",
      "outputs": [],
      "stateMutability": "payable",
      "type": "function"
    },
    {
      "inputs": [
        {
          "internalType": "uint256",
          "name": "collectionId",
          "type": "uint256"
        },
        {
          "internalType": "uint256",
          "name": "designId",
          "type": "uint256"
        }
      ],
      "name": "mintSpecificCue",
      "outputs": [],
      "stateMutability": "payable",
      "type": "function"
    },
    {
      "inputs": [],
      "name": "pause",
      "outputs": [],
      "stateMutability": "nonpayable",
      "type": "function"
    },
    {
      "inputs": [],
      "name": "paused",
      "outputs": [
        {
          "internalType": "bool",
          "name": "",
          "type": "bool"
        }
      ],
      "stateMutability": "view",
      "type": "function"
    },
    {
      "inputs": [],
      "name": "proxiableUUID",
      "outputs": [
        {
          "internalType": "bytes32",
          "name": "",
          "type": "bytes32"
        }
      ],
      "stateMutability": "view",
      "type": "function"
    },
    {
      "inputs": [
        {
          "internalType": "address",
          "name": "wallet",
          "type": "address"
        },
        {
          "internalType": "uint256",
          "name": "_credits",
          "type": "uint256"
        }
      ],
      "name": "removeCredits",
      "outputs": [],
      "stateMutability": "nonpayable",
      "type": "function"
    },
    {
      "inputs": [
        {
          "internalType": "uint256",
          "name": "collectionId",
          "type": "uint256"
        },
        {
          "internalType": "address[]",
          "name": "wallets",
          "type": "address[]"
        }
      ],
      "name": "removeFromCollectionAllowlist",
      "outputs": [],
      "stateMutability": "nonpayable",
      "type": "function"
    },
    {
      "inputs": [
        {
          "internalType": "bytes32",
          "name": "role",
          "type": "bytes32"
        },
        {
          "internalType": "address",
          "name": "account",
          "type": "address"
        }
      ],
      "name": "renounceRole",
      "outputs": [],
      "stateMutability": "nonpayable",
      "type": "function"
    },
    {
      "inputs": [
        {
          "internalType": "bytes32",
          "name": "role",
          "type": "bytes32"
        },
        {
          "internalType": "address",
          "name": "account",
          "type": "address"
        }
      ],
      "name": "revokeRole",
      "outputs": [],
      "stateMutability": "nonpayable",
      "type": "function"
    },
    {
      "inputs": [
        {
          "internalType": "uint256",
          "name": "collectionId",
          "type": "uint256"
        },
        {
          "components": [
            {
              "internalType": "uint256",
              "name": "duration",
              "type": "uint256"
            },
            {
              "internalType": "uint256",
              "name": "discount",
              "type": "uint256"
            }
          ],
          "internalType": "struct I8BallCueMinter.AllowlistConfig",
          "name": "config",
          "type": "tuple"
        }
      ],
      "name": "setCollectionAllowlistConfig",
      "outputs": [],
      "stateMutability": "nonpayable",
      "type": "function"
    },
    {
      "inputs": [
        {
          "internalType": "uint256",
          "name": "collectionId",
          "type": "uint256"
        },
        {
          "components": [
            {
              "internalType": "uint256",
              "name": "startTime",
              "type": "uint256"
            },
            {
              "internalType": "uint256",
              "name": "price",
              "type": "uint256"
            }
          ],
          "internalType": "struct I8BallCueMinter.MintConfig",
          "name": "config",
          "type": "tuple"
        }
      ],
      "name": "setCollectionMintConfig",
      "outputs": [],
      "stateMutability": "nonpayable",
      "type": "function"
    },
    {
      "inputs": [
        {
          "internalType": "uint256",
          "name": "collectionId",
          "type": "uint256"
        },
        {
          "internalType": "bool",
          "name": "random",
          "type": "bool"
        }
      ],
      "name": "setCollectionRandom",
      "outputs": [],
      "stateMutability": "nonpayable",
      "type": "function"
    },
    {
      "inputs": [
        {
          "internalType": "uint256",
          "name": "collectionId",
          "type": "uint256"
        },
        {
          "components": [
            {
              "internalType": "address",
              "name": "treasury",
              "type": "address"
            },
            {
              "internalType": "uint256",
              "name": "basisPoints",
              "type": "uint256"
            }
          ],
          "internalType": "struct I8BallCueMinter.RoyaltyConfig",
          "name": "config",
          "type": "tuple"
        }
      ],
      "name": "setCollectionRoyaltyConfig",
      "outputs": [],
      "stateMutability": "nonpayable",
      "type": "function"
    },
    {
      "inputs": [
        {
          "internalType": "address",
          "name": "_treasury",
          "type": "address"
        }
      ],
      "name": "setTreasury",
      "outputs": [],
      "stateMutability": "nonpayable",
      "type": "function"
    },
    {
      "inputs": [
        {
          "internalType": "bytes4",
          "name": "interfaceId",
          "type": "bytes4"
        }
      ],
      "name": "supportsInterface",
      "outputs": [
        {
          "internalType": "bool",
          "name": "",
          "type": "bool"
        }
      ],
      "stateMutability": "view",
      "type": "function"
    },
    {
      "inputs": [],
      "name": "treasury",
      "outputs": [
        {
          "internalType": "address",
          "name": "",
          "type": "address"
        }
      ],
      "stateMutability": "view",
      "type": "function"
    },
    {
      "inputs": [],
      "name": "unpause",
      "outputs": [],
      "stateMutability": "nonpayable",
      "type": "function"
    },
    {
      "inputs": [
        {
          "internalType": "uint256",
          "name": "tokenId",
          "type": "uint256"
        },
        {
          "internalType": "uint256",
          "name": "power",
          "type": "uint256"
        },
        {
          "internalType": "uint256",
          "name": "accuracy",
          "type": "uint256"
        },
        {
          "internalType": "uint256",
          "name": "spin",
          "type": "uint256"
        },
        {
          "internalType": "uint256",
          "name": "time",
          "type": "uint256"
        }
      ],
      "name": "upgradeCue",
      "outputs": [],
      "stateMutability": "payable",
      "type": "function"
    },
    {
      "inputs": [],
      "name": "upgradePrice",
      "outputs": [
        {
          "internalType": "uint256",
          "name": "",
          "type": "uint256"
        }
      ],
      "stateMutability": "view",
      "type": "function"
    },
    {
      "inputs": [
        {
          "internalType": "address",
          "name": "newImplementation",
          "type": "address"
        }
      ],
      "name": "upgradeTo",
      "outputs": [],
      "stateMutability": "nonpayable",
      "type": "function"
    },
    {
      "inputs": [
        {
          "internalType": "address",
          "name": "newImplementation",
          "type": "address"
        },
        {
          "internalType": "bytes",
          "name": "data",
          "type": "bytes"
        }
      ],
      "name": "upgradeToAndCall",
      "outputs": [],
      "stateMutability": "payable",
      "type": "function"
    }
  ],
  "bytecode": "0x60a0604052306080523480156200001557600080fd5b506200002062000026565b620000e8565b600054610100900460ff1615620000935760405162461bcd60e51b815260206004820152602760248201527f496e697469616c697a61626c653a20636f6e747261637420697320696e697469604482015266616c697a696e6760c81b606482015260840160405180910390fd5b60005460ff9081161015620000e6576000805460ff191660ff9081179091556040519081527f7f26b83ff96e1f2b6a682f133852f6798a09c465da95921460cefb38474024989060200160405180910390a15b565b60805161407c6200012060003960008181610ae001528181610b2001528181610ec101528181610f010152610f90015261407c6000f3fe6080604052600436106102675760003560e01c8063670216dd11610144578063bec780e0116100b6578063e0072ada1161007a578063e0072ada14610767578063f0f442601461077a578063fa0523ce1461079a578063fa490592146107ba578063fd2de539146107cd578063fe5ff468146107ed57600080fd5b8063bec780e0146106ba578063ca15c873146106da578063cba9e373146106fa578063cfc3b6e61461071a578063d547741f1461074757600080fd5b8063871ff40511610108578063871ff405146106035780639010d07c1461062357806391d148541461064357806395947c9d14610663578063a217fddf14610690578063aff3a785146106a557600080fd5b8063670216dd146105795780636f4cf76e1461059957806377c9e8d0146105b95780638129fc1c146105d95780638456cb59146105ee57600080fd5b80633f13c5e1116101dd57806352d1902d116101a157806352d1902d146104be578063559e775b146104d35780635679a559146104f35780635c975abb1461051357806361d027b31461052b57806364bf53441461054c57600080fd5b80633f13c5e1146104435780633f4ba83a1461046357806341540b2c14610478578063418051f5146104985780634f1ef286146104ab57600080fd5b8063287ad39f1161022f578063287ad39f14610373578063298dd1bb1461038a5780632f2ff15d146103c357806336568abe146103e35780633659cfe614610403578063368da1681461042357600080fd5b806301ffc9a71461026c5780630bca773c146102a157806312615d26146102c35780631430bc51146102f0578063248a9ca314610334575b600080fd5b34801561027857600080fd5b5061028c61028736600461344a565b61081b565b60405190151581526020015b60405180910390f35b3480156102ad57600080fd5b506102c16102bc36600461348c565b610846565b005b3480156102cf57600080fd5b506102e36102de3660046134b9565b610975565b60405161029891906134d2565b3480156102fc57600080fd5b5061031061030b3660046134b9565b6109ba565b6040805182516001600160a01b031681526020928301519281019290925201610298565b34801561034057600080fd5b5061036561034f3660046134b9565b600090815261012d602052604090206001015490565b604051908152602001610298565b34801561037f57600080fd5b506103656101c15481565b34801561039657600080fd5b506101c0546103ab906001600160a01b031681565b6040516001600160a01b039091168152602001610298565b3480156103cf57600080fd5b506102c16103de36600461352b565b610a2d565b3480156103ef57600080fd5b506102c16103fe36600461352b565b610a58565b34801561040f57600080fd5b506102c161041e36600461355b565b610ad6565b34801561042f57600080fd5b506102c161043e366004613578565b610bb5565b34801561044f57600080fd5b506102c161045e3660046135b9565b610c3b565b34801561046f57600080fd5b506102c1610d67565b34801561048457600080fd5b5061028c61049336600461352b565b610d88565b6102c16104a63660046134b9565b610dd5565b6102c16104b93660046136af565b610eb7565b3480156104ca57600080fd5b50610365610f83565b3480156104df57600080fd5b506103656104ee3660046134b9565b611036565b3480156104ff57600080fd5b506102c161050e3660046137a3565b6110af565b34801561051f57600080fd5b5060335460ff1661028c565b34801561053757600080fd5b506101bf546103ab906001600160a01b031681565b34801561055857600080fd5b5061056c6105673660046137ef565b61116b565b6040516102989190613849565b34801561058557600080fd5b506102c16105943660046137a3565b611283565b3480156105a557600080fd5b5061028c6105b43660046134b9565b61133f565b3480156105c557600080fd5b506102c16105d436600461348c565b611383565b3480156105e557600080fd5b506102c161149b565b3480156105fa57600080fd5b506102c161160e565b34801561060f57600080fd5b506102c161061e366004613578565b61162d565b34801561062f57600080fd5b506103ab61063e3660046137ef565b6116ba565b34801561064f57600080fd5b5061028c61065e36600461352b565b6116d3565b34801561066f57600080fd5b5061068361067e3660046134b9565b6116ff565b604051610298919061386a565b34801561069c57600080fd5b50610365600081565b3480156106b157600080fd5b506102e3611769565b3480156106c657600080fd5b506102c16106d536600461348c565b61177b565b3480156106e657600080fd5b506103656106f53660046134b9565b61184a565b34801561070657600080fd5b506102c1610715366004613881565b611862565b34801561072657600080fd5b5061073a6107353660046134b9565b6118c5565b60405161029891906138a4565b34801561075357600080fd5b506102c161076236600461352b565b61190a565b6102c16107753660046138e5565b611930565b34801561078657600080fd5b506102c161079536600461355b565b611c29565b3480156107a657600080fd5b506106836107b53660046134b9565b611ce7565b6102c16107c83660046137ef565b611d4e565b3480156107d957600080fd5b506102c16107e83660046137a3565b611e6e565b3480156107f957600080fd5b5061036561080836600461355b565b6101c66020526000908152604090205481565b60006335354db360e11b6001600160e01b031983161480610840575061084082612067565b92915050565b61085d60008051602061402783398151915261208c565b6108696101c283612096565b61088e5760405162461bcd60e51b815260040161088590613920565b60405180910390fd5b428135116108ed5760405162461bcd60e51b815260206004820152602660248201527f3842616c6c4375654d696e7465723a3a496e76616c6964206d696e7420737461604482015265727454696d6560d01b6064820152608401610885565b600081602001351161094c5760405162461bcd60e51b815260206004820152602260248201527f3842616c6c4375654d696e7465723a3a496e76616c6964206d696e7420707269604482015261636560f01b6064820152608401610885565b60008281526101c4602090815260409091208235815590820135600182015581815b5050505050565b60606109836101c283612096565b61099f5760405162461bcd60e51b815260040161088590613920565b60008281526101c460205260409020610840906008016120ae565b60408051808201909152600080825260208201526109da6101c283612096565b6109f65760405162461bcd60e51b815260040161088590613920565b5060009081526101c46020908152604091829020825180840190935260068101546001600160a01b03168352600701549082015290565b600082815261012d6020526040902060010154610a498161208c565b610a5383836120bb565b505050565b6001600160a01b0381163314610ac85760405162461bcd60e51b815260206004820152602f60248201527f416363657373436f6e74726f6c3a2063616e206f6e6c792072656e6f756e636560448201526e103937b632b9903337b91039b2b63360891b6064820152608401610885565b610ad282826120de565b5050565b6001600160a01b037f0000000000000000000000000000000000000000000000000000000000000000163003610b1e5760405162461bcd60e51b815260040161088590613969565b7f00000000000000000000000000000000000000000000000000000000000000006001600160a01b0316610b67600080516020613fe0833981519152546001600160a01b031690565b6001600160a01b031614610b8d5760405162461bcd60e51b8152600401610885906139b5565b610b9681612101565b60408051600080825260208201909252610bb291839190612118565b50565b610bcc60008051602061402783398151915261208c565b6001600160a01b03821660009081526101c66020526040902054811115610c0957506001600160a01b031660009081526101c66020526040812055565b6001600160a01b03821660009081526101c6602052604081208054839290610c32908490613a17565b90915550505050565b610c5260008051602061402783398151915261208c565b610c5e6101c287612283565b610cb95760405162461bcd60e51b815260206004820152602660248201527f3842616c6c4375654d696e7465723a3a4578697374696e6720636f6c6c6563746044820152651a5bdb88125160d21b6064820152608401610885565b60008681526101c460209081526040918290208535815585820135600182015584356002820155908401356003820155600b8101805460ff19168415151790556101c054915162a4bcfb60e11b815290916001600160a01b03169063014979f690610d2c908a908a908a90600401613a53565b600060405180830381600087803b158015610d4657600080fd5b505af1158015610d5a573d6000803e3d6000fd5b5050505050505050505050565b610d7e60008051602061402783398151915261208c565b610d8661228f565b565b6000610d966101c284612096565b610db25760405162461bcd60e51b815260040161088590613920565b60008381526101c460205260409020610dce90600401836122e1565b9392505050565b610ddd612303565b610de5612349565b610dee816123a2565b60008181526101c460205260409020600b015460ff16610e675760405162461bcd60e51b815260206004820152602e60248201527f3842616c6c4375654d696e7465723a3a496e76616c69642072616e646f6d206d60448201526d34b73a1031b7b63632b1ba34b7b760911b6064820152608401610885565b6000610e72826124ac565b90506000610e9e83610e996101c460008781526020019081526020016000206008016120ae565b6126a8565b9050610eab8382846128e2565b5050610bb2600160c955565b6001600160a01b037f0000000000000000000000000000000000000000000000000000000000000000163003610eff5760405162461bcd60e51b815260040161088590613969565b7f00000000000000000000000000000000000000000000000000000000000000006001600160a01b0316610f48600080516020613fe0833981519152546001600160a01b031690565b6001600160a01b031614610f6e5760405162461bcd60e51b8152600401610885906139b5565b610f7782612101565b610ad282826001612118565b6000306001600160a01b037f000000000000000000000000000000000000000000000000000000000000000016146110235760405162461bcd60e51b815260206004820152603860248201527f555550535570677261646561626c653a206d757374206e6f742062652063616c60448201527f6c6564207468726f7567682064656c656761746563616c6c00000000000000006064820152608401610885565b50600080516020613fe083398151915290565b60008181526101c46020526040812060028101548154839291429161105b9190613a6d565b11156110975761106e60048201336122e1565b1561109757600381015460018201546127109161108a91613a80565b6110949190613ab5565b91505b60018101546110a7908390613a17565b949350505050565b6110c660008051602061402783398151915261208c565b6110d26101c284612096565b6110ee5760405162461bcd60e51b815260040161088590613920565b8061110b5760405162461bcd60e51b815260040161088590613ac9565b60008381526101c460205260408120905b8281101561096e5761115884848381811061113957611139613b0a565b905060200201602081019061114e919061355b565b6004840190612a5d565b508061116381613b20565b91505061111c565b604080518082019091526000808252602082015261118b6101c284612096565b6111a75760405162461bcd60e51b815260040161088590613920565b60008381526101c4602052604090206111c36008820184612096565b6112295760405162461bcd60e51b815260206004820152603160248201527f3842616c6c4375654d696e7465723a3a4e6f6e2d6578697374656e74206f72206044820152701cdbdb190b5bdd5d0819195cda59db9259607a1b6064820152608401610885565b6000838152600a820160205260409081902081518083019092528054829060ff16600481111561125b5761125b613811565b600481111561126c5761126c613811565b815260200160018201548152505091505092915050565b61129a60008051602061402783398151915261208c565b6112a66101c284612096565b6112c25760405162461bcd60e51b815260040161088590613920565b806112df5760405162461bcd60e51b815260040161088590613ac9565b60008381526101c460205260408120905b8281101561096e5761132c84848381811061130d5761130d613b0a565b9050602002016020810190611322919061355b565b6004840190612a72565b508061133781613b20565b9150506112f0565b600061134d6101c283612096565b6113695760405162461bcd60e51b815260040161088590613920565b5060009081526101c460205260409020600b015460ff1690565b61139a60008051602061402783398151915261208c565b6113a66101c283612096565b6113c25760405162461bcd60e51b815260040161088590613920565b60208101351580156113d357508035155b806113ec57506020810135158015906113ec5750803515155b6114085760405162461bcd60e51b815260040161088590613b39565b6127108160200135106114705760405162461bcd60e51b815260206004820152602a60248201527f3842616c6c4375654d696e7465723a3a496e76616c696420616c6c6f776c69736044820152691d08191a5cd8dbdd5b9d60b21b6064820152608401610885565b60008281526101c460205260409020816002820161096e828281358155602082013560018201555050565b600054610100900460ff16158080156114bb5750600054600160ff909116105b806114d55750303b1580156114d5575060005460ff166001145b6115385760405162461bcd60e51b815260206004820152602e60248201527f496e697469616c697a61626c653a20636f6e747261637420697320616c72656160448201526d191e481a5b9a5d1a585b1a5e995960921b6064820152608401610885565b6000805460ff19166001179055801561155b576000805461ff0019166101001790555b611563612a87565b61156b612ab6565b611573612bb0565b61157b612bd7565b611583612bb0565b6706f05b59d3b200006101c1556101c080546001600160a01b03191673ecc82f602a7982a9464844dee6dbc751e3615bb41790556115c66101c580546001019055565b8015610bb2576000805461ff0019169055604051600181527f7f26b83ff96e1f2b6a682f133852f6798a09c465da95921460cefb38474024989060200160405180910390a150565b61162560008051602061402783398151915261208c565b610d86612c06565b61164460008051602061402783398151915261208c565b6001600160a01b03821660009081526101c6602052604090205460649061166c908390613a6d565b111561169157506001600160a01b031660009081526101c66020526040902060649055565b6001600160a01b03821660009081526101c6602052604081208054839290610c32908490613a6d565b600082815261015f60205260408120610dce9083612c43565b600091825261012d602090815260408084206001600160a01b0393909316845291905290205460ff1690565b604080518082019091526000808252602082015261171f6101c283612096565b61173b5760405162461bcd60e51b815260040161088590613920565b5060009081526101c46020908152604091829020825180840190935260028101548352600301549082015290565b60606117766101c26120ae565b905090565b61179260008051602061402783398151915261208c565b61179e6101c283612096565b6117ba5760405162461bcd60e51b815260040161088590613920565b60208101351580156117e1575060006117d6602083018361355b565b6001600160a01b0316145b80611810575060208101351580159061181057506000611804602083018361355b565b6001600160a01b031614155b61182c5760405162461bcd60e51b815260040161088590613b39565b60008281526101c460205260409020816006820161096e8282613b7f565b600081815261015f6020526040812061084090612c4f565b61187960008051602061402783398151915261208c565b6118856101c283612096565b6118a15760405162461bcd60e51b815260040161088590613920565b60009182526101c46020526040909120600b01805460ff1916911515919091179055565b60606118d36101c283612096565b6118ef5760405162461bcd60e51b815260040161088590613920565b60008281526101c460205260409020610840906004016120ae565b600082815261012d60205260409020600101546119268161208c565b610a5383836120de565b611938612303565b611940612349565b6101c0546040516334985b9960e01b8152600481018790526001600160a01b039091169060009082906334985b999060240160e060405180830381865afa15801561198f573d6000803e3d6000fd5b505050506040513d601f19601f820116820180604052508101906119b39190613bc2565b9050600080825160048111156119cb576119cb613811565b146119f357815160048111156119e3576119e3613811565b6119ee906006613a6d565b6119f6565b60055b905060006101c1548587898b611a0c9190613a6d565b611a169190613a6d565b611a209190613a6d565b611a2a9190613a80565b905080341015611a4c5760405162461bcd60e51b815260040161088590613c4f565b6101bf546040516001600160a01b039091169082156108fc029083906000818181858888f19350505050158015611a87573d6000803e3d6000fd5b508783606001818151611a9a9190613a6d565b905250608083018051889190611ab1908390613a6d565b90525060a083018051879190611ac8908390613a6d565b90525060c083018051869190611adf908390613a6d565b90525060608301518210801590611afa575081836080015111155b8015611b0a5750818360a0015111155b8015611b1a5750818360c0015111155b611b765760405162461bcd60e51b815260206004820152602760248201527f3842616c6c4375654d696e7465723a3a496e76616c6964207570677261646520604482015266616d6f756e747360c81b6064820152608401610885565b604051637ec0722d60e11b81526001600160a01b0385169063fd80e45a90611ba69033908d908890600401613c93565b600060405180830381600087803b158015611bc057600080fd5b505af1158015611bd4573d6000803e3d6000fd5b505050602084015184516040513393507f5cfa1078ee34a46e31f28532801a74fda1a0cd45b83f4c78c7fbb24abec85e4192611c13928e928790613d01565b60405180910390a25050505061096e600160c955565b611c4060008051602061402783398151915261208c565b6001600160a01b03811615801590611c6757506101bf546001600160a01b03828116911614155b611cc45760405162461bcd60e51b815260206004820152602860248201527f3842616c6c4375654d696e7465723a3a496e76616c6964207472656173757279604482015267206164647265737360c01b6064820152608401610885565b6101bf80546001600160a01b0319166001600160a01b0392909216919091179055565b6040805180820190915260008082526020820152611d076101c283612096565b611d235760405162461bcd60e51b815260040161088590613920565b5060009081526101c46020908152604091829020825180840190935280548352600101549082015290565b611d56612303565b611d5e612349565b611d67826123a2565b60008281526101c460205260409020600b015460ff1615611de35760405162461bcd60e51b815260206004820152603060248201527f3842616c6c4375654d696e7465723a3a496e76616c696420737065636966696360448201526f1036b4b73a1031b7b63632b1ba34b7b760811b6064820152608401610885565b60008281526101c460205260409020611dff9060080182612096565b611e4b5760405162461bcd60e51b815260206004820181905260248201527f3842616c6c4375654d696e7465723a3a496e76616c69642064657369676e49646044820152606401610885565b6000611e56836124ac565b9050611e638383836128e2565b50610ad2600160c955565b611e8560008051602061402783398151915261208c565b611e916101c284612096565b611ead5760405162461bcd60e51b815260040161088590613920565b60008381526101c460205260408120905b82811015611ff957611efb848483818110611edb57611edb613b0a565b9050602002810190611eed9190613d2b565b600884019060200135612283565b506040518060400160405280858584818110611f1957611f19613b0a565b9050602002810190611f2b9190613d2b565b611f39906020810190613d4b565b6004811115611f4a57611f4a613811565b8152602001858584818110611f6157611f61613b0a565b9050602002810190611f739190613d2b565b604001359052600a83016000868685818110611f9157611f91613b0a565b9050602002810190611fa39190613d2b565b602090810135825281019190915260400160002081518154829060ff19166001836004811115611fd557611fd5613811565b02179055506020919091015160019091015580611ff181613b20565b915050611ebe565b506101c05460405163fd2de53960e01b81526001600160a01b039091169063fd2de5399061202f90879087908790600401613d68565b600060405180830381600087803b15801561204957600080fd5b505af115801561205d573d6000803e3d6000fd5b5050505050505050565b60006001600160e01b03198216635a05180f60e01b1480610840575061084082612c59565b610bb28133612c8e565b60008181526001830160205260408120541515610dce565b60606000610dce83612ce7565b6120c58282612d43565b600082815261015f60205260409020610a539082612a72565b6120e88282612dca565b600082815261015f60205260409020610a539082612a5d565b610bb260008051602061402783398151915261208c565b7f4910fdfa16fed3260ed0e7147f7cc6da11a60208b5b9406d12a635614ffd91435460ff161561214b57610a5383612e32565b826001600160a01b03166352d1902d6040518163ffffffff1660e01b8152600401602060405180830381865afa9250505080156121a5575060408051601f3d908101601f191682019092526121a291810190613e5c565b60015b6122085760405162461bcd60e51b815260206004820152602e60248201527f45524331393637557067726164653a206e657720696d706c656d656e7461746960448201526d6f6e206973206e6f74205555505360901b6064820152608401610885565b600080516020613fe083398151915281146122775760405162461bcd60e51b815260206004820152602960248201527f45524331393637557067726164653a20756e737570706f727465642070726f786044820152681a58589b195555525160ba1b6064820152608401610885565b50610a53838383612ece565b6000610dce8383612ef9565b612297612f48565b6033805460ff191690557f5db9ee0a495bf2e6ff9c91a7834c1ba4fdd244a5e8aa4e537bd38aeae4b073aa335b6040516001600160a01b03909116815260200160405180910390a1565b6001600160a01b03811660009081526001830160205260408120541515610dce565b60335460ff1615610d865760405162461bcd60e51b815260206004820152601060248201526f14185d5cd8589b194e881c185d5cd95960821b6044820152606401610885565b600260c9540361239b5760405162461bcd60e51b815260206004820152601f60248201527f5265656e7472616e637947756172643a207265656e7472616e742063616c6c006044820152606401610885565b600260c955565b6123ae6101c282612096565b6123ca5760405162461bcd60e51b815260040161088590613920565b60008181526101c46020526040902054421015806123ec57506123ec33612f91565b6124445760405162461bcd60e51b8152602060048201526024808201527f3842616c6c4375654d696e7465723a3a4d696e7420686173206e6f74207374616044820152631c9d195960e21b6064820152608401610885565b60008181526101c46020526040812061245f90600801612c4f565b11610bb25760405162461bcd60e51b815260206004820152601860248201527f3842616c6c4375654d696e7465723a3a536f6c64206f757400000000000000006044820152606401610885565b3360009081526101c66020526040812054156124eb573360009081526101c6602052604081208054916124de83613e75565b9091555060009392505050565b60006124f683611036565b905080348111156125195760405162461bcd60e51b815260040161088590613c4f565b60008481526101c46020526040902060060180546001600160a01b0316156126635760006127108260010154856125509190613a80565b61255a9190613ab5565b90506125668184613a17565b6101bf546040519194506000916001600160a01b039091169083908381818185875af1925050503d80600081146125b9576040519150601f19603f3d011682016040523d82523d6000602084013e6125be565b606091505b50509050801561261657825460408051898152602081018590526001600160a01b039092169133917f98ffdf4f5be5af8de356ea9db372549d2182650280d5234acb94a9955e788c56910160405180910390a3612660565b825460408051898152602081018590526001600160a01b039092169133917f820d26b4d2455e90e3d3f84dc019d6873705f91d9ec310888cc6357f0914988d910160405180910390a35b50505b6101bf546040516001600160a01b039091169083156108fc029084906000818181858888f1935050505015801561269e573d6000803e3d6000fd5b5091949350505050565b604080514260208201526bffffffffffffffffffffffff193360601b16918101919091524360548201526000908190610100906074016040516020818303038152906040528051906020012060001c6127019190613e8c565b9050600061270f8243613a17565b6040805191406020830152016040516020818303038152906040528051906020012060001c90506000805b85518110156127a7576101c46000888152602001908152602001600020600a01600087838151811061276e5761276e613b0a565b6020026020010151815260200190815260200160002060010154826127939190613a6d565b91508061279f81613b20565b91505061273a565b5060006127b48284613e8c565b90506000915060005b865181101561287f5760006101c460008a8152602001908152602001600020600a0160008984815181106127f3576127f3613b0a565b6020026020010151815260200190815260200160002060010154846128189190613a6d565b9050612825600182613a17565b831161286b578788838151811061283e5761283e613b0a565b60200260200101518151811061285657612856613b0a565b60200260200101519650505050505050610840565b92508061287781613b20565b9150506127bd565b5060405162461bcd60e51b815260206004820152603160248201527f3842616c6c4375654d696e7465723a3a4572726f722063616c63756c6174696e60448201527019c81c985b991bdb4819195cda59db9259607a1b6064820152608401610885565b60008381526101c460209081526040808320858452600a81019092528220600181018054929391929161291483613e75565b91905055508060010154600003612934576129326008830185612fab565b505b60006129406101c55490565b90506129516101c580546001019055565b6101c0546040805160e0810190915283546001600160a01b03909216916301e65df1913391859190819060ff16600481111561298f5761298f613811565b81526020018b81526020018a815260200160018152602001600181526020016001815260200160018152506040518463ffffffff1660e01b81526004016129d893929190613c93565b600060405180830381600087803b1580156129f257600080fd5b505af1158015612a06573d6000803e3d6000fd5b505083546040513393507f20a1a53afff5899d6a197cadef7db93281256627d98124e9756d69cef4c83f059250612a469185918b9160ff16908a90613d01565b60405180910390a2505050505050565b600160c955565b6000610dce836001600160a01b038416612fb3565b6000610dce836001600160a01b038416612ef9565b600054610100900460ff16612aae5760405162461bcd60e51b815260040161088590613ea0565b610d866130a6565b600054610100900460ff16612add5760405162461bcd60e51b815260040161088590613ea0565b612ae5612bb0565b612af06000336120bb565b612b08600080516020614027833981519152336120bb565b612b327f364d3d7565c7a8300c96fd53e065d19b65848d7b23b3191adcd55621c744223c336120bb565b612b5c7f9f2df0fed2c77648de5860a4cc508cd0818c85b8b8a1ab4ceeef8d981c8956a6336120bb565b612b867ff18b77e1ef402111bacb54bd5e03494cbdba92fbd1bd3bbcc1ce77e69b42ea6c336120bb565b610d867f52ba824bfabc2bcfcdf7f0edbb486ebb05e1836c90e78047efeb949990f72e5f336120bb565b600054610100900460ff16610d865760405162461bcd60e51b815260040161088590613ea0565b600054610100900460ff16612bfe5760405162461bcd60e51b815260040161088590613ea0565b610d866130d9565b612c0e612303565b6033805460ff191660011790557f62e78cea01bee320cd4e420270b5ea74000d11b0c9f74754ebdbfc544b05a2586122c43390565b6000610dce8383613100565b6000610840825490565b60006001600160e01b03198216637965db0b60e01b148061084057506301ffc9a760e01b6001600160e01b0319831614610840565b612c9882826116d3565b610ad257612ca58161312a565b612cb083602061313c565b604051602001612cc1929190613f0f565b60408051601f198184030181529082905262461bcd60e51b825261088591600401613f84565b606081600001805480602002602001604051908101604052809291908181526020018280548015612d3757602002820191906000526020600020905b815481526020019060010190808311612d23575b50505050509050919050565b612d4d82826116d3565b610ad257600082815261012d602090815260408083206001600160a01b03851684529091529020805460ff19166001179055612d863390565b6001600160a01b0316816001600160a01b0316837f2f8788117e7eff1d82e926ec794901d17c78024a50270940304540a733656f0d60405160405180910390a45050565b612dd482826116d3565b15610ad257600082815261012d602090815260408083206001600160a01b0385168085529252808320805460ff1916905551339285917ff6391f5c32d9c69d2a47ea670b442974b53935d1edc7fd64eb21e047a839171b9190a45050565b6001600160a01b0381163b612e9f5760405162461bcd60e51b815260206004820152602d60248201527f455243313936373a206e657720696d706c656d656e746174696f6e206973206e60448201526c1bdd08184818dbdb9d1c9858dd609a1b6064820152608401610885565b600080516020613fe083398151915280546001600160a01b0319166001600160a01b0392909216919091179055565b612ed7836132d8565b600082511180612ee45750805b15610a5357612ef38383613318565b50505050565b6000818152600183016020526040812054612f4057508154600181810184556000848152602080822090930184905584548482528286019093526040902091909155610840565b506000610840565b60335460ff16610d865760405162461bcd60e51b815260206004820152601460248201527314185d5cd8589b194e881b9bdd081c185d5cd95960621b6044820152606401610885565b6000610840600080516020614027833981519152836116d3565b6000610dce83835b6000818152600183016020526040812054801561309c576000612fd7600183613a17565b8554909150600090612feb90600190613a17565b905081811461305057600086600001828154811061300b5761300b613b0a565b906000526020600020015490508087600001848154811061302e5761302e613b0a565b6000918252602080832090910192909255918252600188019052604090208390555b855486908061306157613061613fb7565b600190038181906000526020600020016000905590558560010160008681526020019081526020016000206000905560019350505050610840565b6000915050610840565b600054610100900460ff166130cd5760405162461bcd60e51b815260040161088590613ea0565b6033805460ff19169055565b600054610100900460ff16612a565760405162461bcd60e51b815260040161088590613ea0565b600082600001828154811061311757613117613b0a565b9060005260206000200154905092915050565b60606108406001600160a01b03831660145b6060600061314b836002613a80565b613156906002613a6d565b67ffffffffffffffff81111561316e5761316e613668565b6040519080825280601f01601f191660200182016040528015613198576020820181803683370190505b509050600360fc1b816000815181106131b3576131b3613b0a565b60200101906001600160f81b031916908160001a905350600f60fb1b816001815181106131e2576131e2613b0a565b60200101906001600160f81b031916908160001a9053506000613206846002613a80565b613211906001613a6d565b90505b6001811115613289576f181899199a1a9b1b9c1cb0b131b232b360811b85600f166010811061324557613245613b0a565b1a60f81b82828151811061325b5761325b613b0a565b60200101906001600160f81b031916908160001a90535060049490941c9361328281613e75565b9050613214565b508315610dce5760405162461bcd60e51b815260206004820181905260248201527f537472696e67733a20686578206c656e67746820696e73756666696369656e746044820152606401610885565b6132e181612e32565b6040516001600160a01b038216907fbc7cd75a20ee27fd9adebab32041f755214dbc6bffa90cc0225b39da2e5c2d3b90600090a250565b60606001600160a01b0383163b6133805760405162461bcd60e51b815260206004820152602660248201527f416464726573733a2064656c65676174652063616c6c20746f206e6f6e2d636f6044820152651b9d1c9858dd60d21b6064820152608401610885565b600080846001600160a01b03168460405161339b9190613fcd565b600060405180830381855af49150503d80600081146133d6576040519150601f19603f3d011682016040523d82523d6000602084013e6133db565b606091505b509150915061340382826040518060600160405280602781526020016140006027913961340c565b95945050505050565b6060831561341b575081610dce565b610dce83838151156134305781518083602001fd5b8060405162461bcd60e51b81526004016108859190613f84565b60006020828403121561345c57600080fd5b81356001600160e01b031981168114610dce57600080fd5b60006040828403121561348657600080fd5b50919050565b6000806060838503121561349f57600080fd5b823591506134b08460208501613474565b90509250929050565b6000602082840312156134cb57600080fd5b5035919050565b6020808252825182820181905260009190848201906040850190845b8181101561350a578351835292840192918401916001016134ee565b50909695505050505050565b6001600160a01b0381168114610bb257600080fd5b6000806040838503121561353e57600080fd5b82359150602083013561355081613516565b809150509250929050565b60006020828403121561356d57600080fd5b8135610dce81613516565b6000806040838503121561358b57600080fd5b823561359681613516565b946020939093013593505050565b803580151581146135b457600080fd5b919050565b60008060008060008060e087890312156135d257600080fd5b86359550602087013567ffffffffffffffff808211156135f157600080fd5b818901915089601f83011261360557600080fd5b81358181111561361457600080fd5b8a602082850101111561362657600080fd5b60208301975080965050505061363f8860408901613474565b925061364e8860808901613474565b915061365c60c088016135a4565b90509295509295509295565b634e487b7160e01b600052604160045260246000fd5b604051601f8201601f1916810167ffffffffffffffff811182821017156136a7576136a7613668565b604052919050565b600080604083850312156136c257600080fd5b82356136cd81613516565b915060208381013567ffffffffffffffff808211156136eb57600080fd5b818601915086601f8301126136ff57600080fd5b81358181111561371157613711613668565b613723601f8201601f1916850161367e565b9150808252878482850101111561373957600080fd5b80848401858401376000848284010152508093505050509250929050565b60008083601f84011261376957600080fd5b50813567ffffffffffffffff81111561378157600080fd5b6020830191508360208260051b850101111561379c57600080fd5b9250929050565b6000806000604084860312156137b857600080fd5b83359250602084013567ffffffffffffffff8111156137d657600080fd5b6137e286828701613757565b9497909650939450505050565b6000806040838503121561380257600080fd5b50508035926020909101359150565b634e487b7160e01b600052602160045260246000fd5b6005811061384557634e487b7160e01b600052602160045260246000fd5b9052565b600060408201905061385c828451613827565b602092830151919092015290565b815181526020808301519082015260408101610840565b6000806040838503121561389457600080fd5b823591506134b0602084016135a4565b6020808252825182820181905260009190848201906040850190845b8181101561350a5783516001600160a01b0316835292840192918401916001016138c0565b600080600080600060a086880312156138fd57600080fd5b505083359560208501359550604085013594606081013594506080013592509050565b60208082526029908201527f3842616c6c4375654d696e7465723a3a4e6f6e2d6578697374656e7420636f6c6040820152681b1958dd1a5bdb925960ba1b606082015260800190565b6020808252602c908201527f46756e6374696f6e206d7573742062652063616c6c6564207468726f7567682060408201526b19195b1959d85d1958d85b1b60a21b606082015260800190565b6020808252602c908201527f46756e6374696f6e206d7573742062652063616c6c6564207468726f7567682060408201526b6163746976652070726f787960a01b606082015260800190565b634e487b7160e01b600052601160045260246000fd5b8181038181111561084057610840613a01565b81835281816020850137506000828201602090810191909152601f909101601f19169091010190565b838152604060208201526000613403604083018486613a2a565b8082018082111561084057610840613a01565b6000816000190483118215151615613a9a57613a9a613a01565b500290565b634e487b7160e01b600052601260045260246000fd5b600082613ac457613ac4613a9f565b500490565b60208082526021908201527f3842616c6c4375654d696e7465723a3a456d7074792077616c6c6574206c69736040820152601d60fa1b606082015260800190565b634e487b7160e01b600052603260045260246000fd5b600060018201613b3257613b32613a01565b5060010190565b60208082526026908201527f3842616c6c4375654d696e7465723a3a496e76616c696420726f79616c747920604082015265636f6e66696760d01b606082015260800190565b8135613b8a81613516565b81546001600160a01b0319166001600160a01b03919091161781556020919091013560019190910155565b60058110610bb257600080fd5b600060e08284031215613bd457600080fd5b60405160e0810181811067ffffffffffffffff82111715613bf757613bf7613668565b6040528251613c0581613bb5565b808252506020830151602082015260408301516040820152606083015160608201526080830151608082015260a083015160a082015260c083015160c08201528091505092915050565b60208082526024908201527f3842616c6c4375654d696e7465723a3a496e73756666696369656e74207061796040820152631b595b9d60e21b606082015260800190565b6001600160a01b0384168152602081018390528151610120820190613cbc906040840190613827565b6020830151606083015260408301516080830152606083015160a0830152608083015160c083015260a083015160e083015260c0830151610100830152949350505050565b8481526020810184905260808101613d1c6040830185613827565b82606083015295945050505050565b60008235607e19833603018112613d4157600080fd5b9190910192915050565b600060208284031215613d5d57600080fd5b8135610dce81613bb5565b600060408083018684526020828186015281868352606092508286019050828760051b8701018860005b89811015613e4c57888303605f190184528135368c9003607e19018112613db857600080fd5b8b0160808135613dc781613bb5565b613dd18682613827565b508682013587860152888201358986015287820135601e19833603018112613df857600080fd5b90910186810191903567ffffffffffffffff811115613e1657600080fd5b803603831315613e2557600080fd5b8189870152613e378287018285613a2a565b96880196955050509185019150600101613d92565b50909a9950505050505050505050565b600060208284031215613e6e57600080fd5b5051919050565b600081613e8457613e84613a01565b506000190190565b600082613e9b57613e9b613a9f565b500690565b6020808252602b908201527f496e697469616c697a61626c653a20636f6e7472616374206973206e6f74206960408201526a6e697469616c697a696e6760a81b606082015260800190565b60005b83811015613f06578181015183820152602001613eee565b50506000910152565b7f416363657373436f6e74726f6c3a206163636f756e7420000000000000000000815260008351613f47816017850160208801613eeb565b7001034b99036b4b9b9b4b733903937b6329607d1b6017918401918201528351613f78816028840160208801613eeb565b01602801949350505050565b6020815260008251806020840152613fa3816040850160208701613eeb565b601f01601f19169190910160400192915050565b634e487b7160e01b600052603160045260246000fd5b60008251613d41818460208701613eeb56fe360894a13ba1a3210667c828492db98dca3e2076cc3735a920a3ca505d382bbc416464726573733a206c6f772d6c6576656c2064656c65676174652063616c6c206661696c6564a49807205ce4d355092ef5a8a18f56e8913cf4a201fbe287825b095693c21775a2646970667358221220ad7baecd96046c3dfba3325d2bf15fd503863a21e6a8faaf696a13739fcf305e64736f6c63430008100033",
  "linkReferences": {},
  "deployedLinkReferences": {}
}