{
  "_format": "hh-sol-artifact-1",
  "contractName": "A8BallCueMinter",
  "sourceName": "contracts/A8Ball/Minter/A8BallCueMinter.sol",
  "abi": [
    {
      "inputs": [],
      "stateMutability": "nonpayable",
      "type": "constructor"
    },
    {
      "anonymous": false,
      "inputs": [
        {
          "indexed": false,
          "internalType": "address",
          "name": "previousAdmin",
          "type": "address"
        },
        {
          "indexed": false,
          "internalType": "address",
          "name": "newAdmin",
          "type": "address"
        }
      ],
      "name": "AdminChanged",
      "type": "event"
    },
    {
      "anonymous": false,
      "inputs": [
        {
          "indexed": true,
          "internalType": "address",
          "name": "beacon",
          "type": "address"
        }
      ],
      "name": "BeaconUpgraded",
      "type": "event"
    },
    {
      "anonymous": false,
      "inputs": [
        {
          "indexed": true,
          "internalType": "address",
          "name": "from",
          "type": "address"
        },
        {
          "indexed": false,
          "internalType": "uint256",
          "name": "tokenId",
          "type": "uint256"
        },
        {
          "indexed": false,
          "internalType": "uint256",
          "name": "collectionId",
          "type": "uint256"
        },
        {
          "indexed": false,
          "internalType": "enum I8BallCommon.Rarity",
          "name": "rarity",
          "type": "uint8"
        },
        {
          "indexed": false,
          "internalType": "uint256",
          "name": "price",
          "type": "uint256"
        }
      ],
      "name": "CuePurchased",
      "type": "event"
    },
    {
      "anonymous": false,
      "inputs": [
        {
          "indexed": true,
          "internalType": "address",
          "name": "from",
          "type": "address"
        },
        {
          "indexed": false,
          "internalType": "uint256",
          "name": "tokenId",
          "type": "uint256"
        },
        {
          "indexed": false,
          "internalType": "uint256",
          "name": "collectionId",
          "type": "uint256"
        },
        {
          "indexed": false,
          "internalType": "enum I8BallCommon.Rarity",
          "name": "rarity",
          "type": "uint8"
        },
        {
          "indexed": false,
          "internalType": "uint256",
          "name": "price",
          "type": "uint256"
        }
      ],
      "name": "CueUpgraded",
      "type": "event"
    },
    {
      "anonymous": false,
      "inputs": [
        {
          "indexed": false,
          "internalType": "uint8",
          "name": "version",
          "type": "uint8"
        }
      ],
      "name": "Initialized",
      "type": "event"
    },
    {
      "anonymous": false,
      "inputs": [
        {
          "indexed": false,
          "internalType": "address",
          "name": "account",
          "type": "address"
        }
      ],
      "name": "Paused",
      "type": "event"
    },
    {
      "anonymous": false,
      "inputs": [
        {
          "indexed": true,
          "internalType": "bytes32",
          "name": "role",
          "type": "bytes32"
        },
        {
          "indexed": true,
          "internalType": "bytes32",
          "name": "previousAdminRole",
          "type": "bytes32"
        },
        {
          "indexed": true,
          "internalType": "bytes32",
          "name": "newAdminRole",
          "type": "bytes32"
        }
      ],
      "name": "RoleAdminChanged",
      "type": "event"
    },
    {
      "anonymous": false,
      "inputs": [
        {
          "indexed": true,
          "internalType": "bytes32",
          "name": "role",
          "type": "bytes32"
        },
        {
          "indexed": true,
          "internalType": "address",
          "name": "account",
          "type": "address"
        },
        {
          "indexed": true,
          "internalType": "address",
          "name": "sender",
          "type": "address"
        }
      ],
      "name": "RoleGranted",
      "type": "event"
    },
    {
      "anonymous": false,
      "inputs": [
        {
          "indexed": true,
          "internalType": "bytes32",
          "name": "role",
          "type": "bytes32"
        },
        {
          "indexed": true,
          "internalType": "address",
          "name": "account",
          "type": "address"
        },
        {
          "indexed": true,
          "internalType": "address",
          "name": "sender",
          "type": "address"
        }
      ],
      "name": "RoleRevoked",
      "type": "event"
    },
    {
      "anonymous": false,
      "inputs": [
        {
          "indexed": true,
          "internalType": "address",
          "name": "from",
          "type": "address"
        },
        {
          "indexed": true,
          "internalType": "address",
          "name": "to",
          "type": "address"
        },
        {
          "indexed": false,
          "internalType": "uint256",
          "name": "collectionId",
          "type": "uint256"
        },
        {
          "indexed": false,
          "internalType": "uint256",
          "name": "amount",
          "type": "uint256"
        }
      ],
      "name": "RoyaltyPaid",
      "type": "event"
    },
    {
      "anonymous": false,
      "inputs": [
        {
          "indexed": true,
          "internalType": "address",
          "name": "from",
          "type": "address"
        },
        {
          "indexed": true,
          "internalType": "address",
          "name": "to",
          "type": "address"
        },
        {
          "indexed": false,
          "internalType": "uint256",
          "name": "collectionId",
          "type": "uint256"
        },
        {
          "indexed": false,
          "internalType": "uint256",
          "name": "amount",
          "type": "uint256"
        }
      ],
      "name": "RoyaltyShareFailed",
      "type": "event"
    },
    {
      "anonymous": false,
      "inputs": [
        {
          "indexed": false,
          "internalType": "address",
          "name": "account",
          "type": "address"
        }
      ],
      "name": "Unpaused",
      "type": "event"
    },
    {
      "anonymous": false,
      "inputs": [
        {
          "indexed": true,
          "internalType": "address",
          "name": "implementation",
          "type": "address"
        }
      ],
      "name": "Upgraded",
      "type": "event"
    },
    {
      "inputs": [],
      "name": "DEFAULT_ADMIN_ROLE",
      "outputs": [
        {
          "internalType": "bytes32",
          "name": "",
          "type": "bytes32"
        }
      ],
      "stateMutability": "view",
      "type": "function"
    },
    {
      "inputs": [
        {
          "internalType": "uint256",
          "name": "collectionId",
          "type": "uint256"
        },
        {
          "internalType": "string",
          "name": "name",
          "type": "string"
        },
        {
          "components": [
            {
              "internalType": "uint256",
              "name": "startTime",
              "type": "uint256"
            },
            {
              "internalType": "uint256",
              "name": "price",
              "type": "uint256"
            }
          ],
          "internalType": "struct I8BallCueMinter.MintConfig",
          "name": "mintConfig",
          "type": "tuple"
        },
        {
          "components": [
            {
              "internalType": "uint256",
              "name": "duration",
              "type": "uint256"
            },
            {
              "internalType": "uint256",
              "name": "discount",
              "type": "uint256"
            }
          ],
          "internalType": "struct I8BallCueMinter.AllowlistConfig",
          "name": "allowlistConfig",
          "type": "tuple"
        },
        {
          "internalType": "bool",
          "name": "random",
          "type": "bool"
        }
      ],
      "name": "addCollection",
      "outputs": [],
      "stateMutability": "nonpayable",
      "type": "function"
    },
    {
      "inputs": [
        {
          "internalType": "uint256",
          "name": "collectionId",
          "type": "uint256"
        },
        {
          "components": [
            {
              "internalType": "enum I8BallCommon.Rarity",
              "name": "rarity",
              "type": "uint8"
            },
            {
              "internalType": "uint256",
              "name": "id",
              "type": "uint256"
            },
            {
              "internalType": "uint256",
              "name": "remaining",
              "type": "uint256"
            },
            {
              "internalType": "string",
              "name": "name",
              "type": "string"
            }
          ],
          "internalType": "struct I8BallCommon.Design[]",
          "name": "designs",
          "type": "tuple[]"
        }
      ],
      "name": "addCollectionDesigns",
      "outputs": [],
      "stateMutability": "nonpayable",
      "type": "function"
    },
    {
      "inputs": [
        {
          "internalType": "address",
          "name": "wallet",
          "type": "address"
        },
        {
          "internalType": "uint256",
          "name": "_credits",
          "type": "uint256"
        }
      ],
      "name": "addCredits",
      "outputs": [],
      "stateMutability": "nonpayable",
      "type": "function"
    },
    {
      "inputs": [
        {
          "internalType": "uint256",
          "name": "collectionId",
          "type": "uint256"
        },
        {
          "internalType": "address[]",
          "name": "wallets",
          "type": "address[]"
        }
      ],
      "name": "addToCollectionAllowlist",
      "outputs": [],
      "stateMutability": "nonpayable",
      "type": "function"
    },
    {
      "inputs": [
        {
          "internalType": "address",
          "name": "",
          "type": "address"
        }
      ],
      "name": "credits",
      "outputs": [
        {
          "internalType": "uint256",
          "name": "",
          "type": "uint256"
        }
      ],
      "stateMutability": "view",
      "type": "function"
    },
    {
      "inputs": [],
      "name": "cue",
      "outputs": [
        {
          "internalType": "address",
          "name": "",
          "type": "address"
        }
      ],
      "stateMutability": "view",
      "type": "function"
    },
    {
      "inputs": [
        {
          "internalType": "uint256",
          "name": "collectionId",
          "type": "uint256"
        }
      ],
      "name": "getCollectionAllowlist",
      "outputs": [
        {
          "internalType": "address[]",
          "name": "",
          "type": "address[]"
        }
      ],
      "stateMutability": "view",
      "type": "function"
    },
    {
      "inputs": [
        {
          "internalType": "uint256",
          "name": "collectionId",
          "type": "uint256"
        }
      ],
      "name": "getCollectionAllowlistConfig",
      "outputs": [
        {
          "components": [
            {
              "internalType": "uint256",
              "name": "duration",
              "type": "uint256"
            },
            {
              "internalType": "uint256",
              "name": "discount",
              "type": "uint256"
            }
          ],
          "internalType": "struct I8BallCueMinter.AllowlistConfig",
          "name": "",
          "type": "tuple"
        }
      ],
      "stateMutability": "view",
      "type": "function"
    },
    {
      "inputs": [
        {
          "internalType": "uint256",
          "name": "collectionId",
          "type": "uint256"
        },
        {
          "internalType": "uint256",
          "name": "designId",
          "type": "uint256"
        }
      ],
      "name": "getCollectionDesign",
      "outputs": [
        {
          "components": [
            {
              "internalType": "enum I8BallCommon.Rarity",
              "name": "rarity",
              "type": "uint8"
            },
            {
              "internalType": "uint256",
              "name": "remaining",
              "type": "uint256"
            }
          ],
          "internalType": "struct I8BallCueMinter.DesignBase",
          "name": "",
          "type": "tuple"
        }
      ],
      "stateMutability": "view",
      "type": "function"
    },
    {
      "inputs": [
        {
          "internalType": "uint256",
          "name": "collectionId",
          "type": "uint256"
        }
      ],
      "name": "getCollectionDesignIds",
      "outputs": [
        {
          "internalType": "uint256[]",
          "name": "",
          "type": "uint256[]"
        }
      ],
      "stateMutability": "view",
      "type": "function"
    },
    {
      "inputs": [],
      "name": "getCollectionIds",
      "outputs": [
        {
          "internalType": "uint256[]",
          "name": "",
          "type": "uint256[]"
        }
      ],
      "stateMutability": "view",
      "type": "function"
    },
    {
      "inputs": [
        {
          "internalType": "uint256",
          "name": "collectionId",
          "type": "uint256"
        }
      ],
      "name": "getCollectionMintConfig",
      "outputs": [
        {
          "components": [
            {
              "internalType": "uint256",
              "name": "startTime",
              "type": "uint256"
            },
            {
              "internalType": "uint256",
              "name": "price",
              "type": "uint256"
            }
          ],
          "internalType": "struct I8BallCueMinter.MintConfig",
          "name": "",
          "type": "tuple"
        }
      ],
      "stateMutability": "view",
      "type": "function"
    },
    {
      "inputs": [
        {
          "internalType": "uint256",
          "name": "collectionId",
          "type": "uint256"
        }
      ],
      "name": "getCollectionRandom",
      "outputs": [
        {
          "internalType": "bool",
          "name": "",
          "type": "bool"
        }
      ],
      "stateMutability": "view",
      "type": "function"
    },
    {
      "inputs": [
        {
          "internalType": "uint256",
          "name": "collectionId",
          "type": "uint256"
        }
      ],
      "name": "getCollectionRoyaltyConfig",
      "outputs": [
        {
          "components": [
            {
              "internalType": "address",
              "name": "treasury",
              "type": "address"
            },
            {
              "internalType": "uint256",
              "name": "basisPoints",
              "type": "uint256"
            }
          ],
          "internalType": "struct I8BallCueMinter.RoyaltyConfig",
          "name": "",
          "type": "tuple"
        }
      ],
      "stateMutability": "view",
      "type": "function"
    },
    {
      "inputs": [
        {
          "internalType": "uint256",
          "name": "collectionId",
          "type": "uint256"
        }
      ],
      "name": "getMintPrice",
      "outputs": [
        {
          "internalType": "uint256",
          "name": "",
          "type": "uint256"
        }
      ],
      "stateMutability": "view",
      "type": "function"
    },
    {
      "inputs": [
        {
          "internalType": "bytes32",
          "name": "role",
          "type": "bytes32"
        }
      ],
      "name": "getRoleAdmin",
      "outputs": [
        {
          "internalType": "bytes32",
          "name": "",
          "type": "bytes32"
        }
      ],
      "stateMutability": "view",
      "type": "function"
    },
    {
      "inputs": [
        {
          "internalType": "bytes32",
          "name": "role",
          "type": "bytes32"
        },
        {
          "internalType": "uint256",
          "name": "index",
          "type": "uint256"
        }
      ],
      "name": "getRoleMember",
      "outputs": [
        {
          "internalType": "address",
          "name": "",
          "type": "address"
        }
      ],
      "stateMutability": "view",
      "type": "function"
    },
    {
      "inputs": [
        {
          "internalType": "bytes32",
          "name": "role",
          "type": "bytes32"
        }
      ],
      "name": "getRoleMemberCount",
      "outputs": [
        {
          "internalType": "uint256",
          "name": "",
          "type": "uint256"
        }
      ],
      "stateMutability": "view",
      "type": "function"
    },
    {
      "inputs": [
        {
          "internalType": "bytes32",
          "name": "role",
          "type": "bytes32"
        },
        {
          "internalType": "address",
          "name": "account",
          "type": "address"
        }
      ],
      "name": "grantRole",
      "outputs": [],
      "stateMutability": "nonpayable",
      "type": "function"
    },
    {
      "inputs": [
        {
          "internalType": "bytes32",
          "name": "role",
          "type": "bytes32"
        },
        {
          "internalType": "address",
          "name": "account",
          "type": "address"
        }
      ],
      "name": "hasRole",
      "outputs": [
        {
          "internalType": "bool",
          "name": "",
          "type": "bool"
        }
      ],
      "stateMutability": "view",
      "type": "function"
    },
    {
      "inputs": [],
      "name": "initialize",
      "outputs": [],
      "stateMutability": "nonpayable",
      "type": "function"
    },
    {
      "inputs": [
        {
          "internalType": "uint256",
          "name": "collectionId",
          "type": "uint256"
        },
        {
          "internalType": "address",
          "name": "wallet",
          "type": "address"
        }
      ],
      "name": "isAllowlisted",
      "outputs": [
        {
          "internalType": "bool",
          "name": "",
          "type": "bool"
        }
      ],
      "stateMutability": "view",
      "type": "function"
    },
    {
      "inputs": [
        {
          "internalType": "uint256",
          "name": "collectionId",
          "type": "uint256"
        }
      ],
      "name": "mintRandomCue",
      "outputs": [],
      "stateMutability": "payable",
      "type": "function"
    },
    {
      "inputs": [
        {
          "internalType": "uint256",
          "name": "collectionId",
          "type": "uint256"
        },
        {
          "internalType": "uint256",
          "name": "designId",
          "type": "uint256"
        }
      ],
      "name": "mintSpecificCue",
      "outputs": [],
      "stateMutability": "payable",
      "type": "function"
    },
    {
      "inputs": [],
      "name": "pause",
      "outputs": [],
      "stateMutability": "nonpayable",
      "type": "function"
    },
    {
      "inputs": [],
      "name": "paused",
      "outputs": [
        {
          "internalType": "bool",
          "name": "",
          "type": "bool"
        }
      ],
      "stateMutability": "view",
      "type": "function"
    },
    {
      "inputs": [],
      "name": "proxiableUUID",
      "outputs": [
        {
          "internalType": "bytes32",
          "name": "",
          "type": "bytes32"
        }
      ],
      "stateMutability": "view",
      "type": "function"
    },
    {
      "inputs": [
        {
          "internalType": "address",
          "name": "wallet",
          "type": "address"
        },
        {
          "internalType": "uint256",
          "name": "_credits",
          "type": "uint256"
        }
      ],
      "name": "removeCredits",
      "outputs": [],
      "stateMutability": "nonpayable",
      "type": "function"
    },
    {
      "inputs": [
        {
          "internalType": "uint256",
          "name": "collectionId",
          "type": "uint256"
        },
        {
          "internalType": "address[]",
          "name": "wallets",
          "type": "address[]"
        }
      ],
      "name": "removeFromCollectionAllowlist",
      "outputs": [],
      "stateMutability": "nonpayable",
      "type": "function"
    },
    {
      "inputs": [
        {
          "internalType": "bytes32",
          "name": "role",
          "type": "bytes32"
        },
        {
          "internalType": "address",
          "name": "account",
          "type": "address"
        }
      ],
      "name": "renounceRole",
      "outputs": [],
      "stateMutability": "nonpayable",
      "type": "function"
    },
    {
      "inputs": [
        {
          "internalType": "bytes32",
          "name": "role",
          "type": "bytes32"
        },
        {
          "internalType": "address",
          "name": "account",
          "type": "address"
        }
      ],
      "name": "revokeRole",
      "outputs": [],
      "stateMutability": "nonpayable",
      "type": "function"
    },
    {
      "inputs": [
        {
          "internalType": "uint256",
          "name": "collectionId",
          "type": "uint256"
        },
        {
          "components": [
            {
              "internalType": "uint256",
              "name": "duration",
              "type": "uint256"
            },
            {
              "internalType": "uint256",
              "name": "discount",
              "type": "uint256"
            }
          ],
          "internalType": "struct I8BallCueMinter.AllowlistConfig",
          "name": "config",
          "type": "tuple"
        }
      ],
      "name": "setCollectionAllowlistConfig",
      "outputs": [],
      "stateMutability": "nonpayable",
      "type": "function"
    },
    {
      "inputs": [
        {
          "internalType": "uint256",
          "name": "collectionId",
          "type": "uint256"
        },
        {
          "components": [
            {
              "internalType": "uint256",
              "name": "startTime",
              "type": "uint256"
            },
            {
              "internalType": "uint256",
              "name": "price",
              "type": "uint256"
            }
          ],
          "internalType": "struct I8BallCueMinter.MintConfig",
          "name": "config",
          "type": "tuple"
        }
      ],
      "name": "setCollectionMintConfig",
      "outputs": [],
      "stateMutability": "nonpayable",
      "type": "function"
    },
    {
      "inputs": [
        {
          "internalType": "uint256",
          "name": "collectionId",
          "type": "uint256"
        },
        {
          "internalType": "bool",
          "name": "random",
          "type": "bool"
        }
      ],
      "name": "setCollectionRandom",
      "outputs": [],
      "stateMutability": "nonpayable",
      "type": "function"
    },
    {
      "inputs": [
        {
          "internalType": "uint256",
          "name": "collectionId",
          "type": "uint256"
        },
        {
          "components": [
            {
              "internalType": "address",
              "name": "treasury",
              "type": "address"
            },
            {
              "internalType": "uint256",
              "name": "basisPoints",
              "type": "uint256"
            }
          ],
          "internalType": "struct I8BallCueMinter.RoyaltyConfig",
          "name": "config",
          "type": "tuple"
        }
      ],
      "name": "setCollectionRoyaltyConfig",
      "outputs": [],
      "stateMutability": "nonpayable",
      "type": "function"
    },
    {
      "inputs": [
        {
          "internalType": "address",
          "name": "_treasury",
          "type": "address"
        }
      ],
      "name": "setTreasury",
      "outputs": [],
      "stateMutability": "nonpayable",
      "type": "function"
    },
    {
      "inputs": [
        {
          "internalType": "bytes4",
          "name": "interfaceId",
          "type": "bytes4"
        }
      ],
      "name": "supportsInterface",
      "outputs": [
        {
          "internalType": "bool",
          "name": "",
          "type": "bool"
        }
      ],
      "stateMutability": "view",
      "type": "function"
    },
    {
      "inputs": [],
      "name": "treasury",
      "outputs": [
        {
          "internalType": "address",
          "name": "",
          "type": "address"
        }
      ],
      "stateMutability": "view",
      "type": "function"
    },
    {
      "inputs": [],
      "name": "unpause",
      "outputs": [],
      "stateMutability": "nonpayable",
      "type": "function"
    },
    {
      "inputs": [
        {
          "internalType": "uint256",
          "name": "tokenId",
          "type": "uint256"
        },
        {
          "internalType": "uint256",
          "name": "power",
          "type": "uint256"
        },
        {
          "internalType": "uint256",
          "name": "accuracy",
          "type": "uint256"
        },
        {
          "internalType": "uint256",
          "name": "spin",
          "type": "uint256"
        },
        {
          "internalType": "uint256",
          "name": "time",
          "type": "uint256"
        }
      ],
      "name": "upgradeCue",
      "outputs": [],
      "stateMutability": "payable",
      "type": "function"
    },
    {
      "inputs": [],
      "name": "upgradePrice",
      "outputs": [
        {
          "internalType": "uint256",
          "name": "",
          "type": "uint256"
        }
      ],
      "stateMutability": "view",
      "type": "function"
    },
    {
      "inputs": [
        {
          "internalType": "address",
          "name": "newImplementation",
          "type": "address"
        }
      ],
      "name": "upgradeTo",
      "outputs": [],
      "stateMutability": "nonpayable",
      "type": "function"
    },
    {
      "inputs": [
        {
          "internalType": "address",
          "name": "newImplementation",
          "type": "address"
        },
        {
          "internalType": "bytes",
          "name": "data",
          "type": "bytes"
        }
      ],
      "name": "upgradeToAndCall",
      "outputs": [],
      "stateMutability": "payable",
      "type": "function"
    }
  ],
  "bytecode": "0x60a0604052306080523480156200001557600080fd5b506200002062000026565b620000e8565b600054610100900460ff1615620000935760405162461bcd60e51b815260206004820152602760248201527f496e697469616c697a61626c653a20636f6e747261637420697320696e697469604482015266616c697a696e6760c81b606482015260840160405180910390fd5b60005460ff9081161015620000e6576000805460ff191660ff9081179091556040519081527f7f26b83ff96e1f2b6a682f133852f6798a09c465da95921460cefb38474024989060200160405180910390a15b565b608051613efb6200012060003960008181610ae001528181610b2001528181610ebd01528181610efd0152610f8c0152613efb6000f3fe6080604052600436106102675760003560e01c8063670216dd11610144578063bec780e0116100b6578063e0072ada1161007a578063e0072ada14610767578063f0f442601461077a578063fa0523ce1461079a578063fa490592146107ba578063fd2de539146107cd578063fe5ff468146107ed57600080fd5b8063bec780e0146106ba578063ca15c873146106da578063cba9e373146106fa578063cfc3b6e61461071a578063d547741f1461074757600080fd5b8063871ff40511610108578063871ff405146106035780639010d07c1461062357806391d148541461064357806395947c9d14610663578063a217fddf14610690578063aff3a785146106a557600080fd5b8063670216dd146105795780636f4cf76e1461059957806377c9e8d0146105b95780638129fc1c146105d95780638456cb59146105ee57600080fd5b80633f13c5e1116101dd57806352d1902d116101a157806352d1902d146104be578063559e775b146104d35780635679a559146104f35780635c975abb1461051357806361d027b31461052b57806364bf53441461054c57600080fd5b80633f13c5e1146104435780633f4ba83a1461046357806341540b2c14610478578063418051f5146104985780634f1ef286146104ab57600080fd5b8063287ad39f1161022f578063287ad39f14610373578063298dd1bb1461038a5780632f2ff15d146103c357806336568abe146103e35780633659cfe614610403578063368da1681461042357600080fd5b806301ffc9a71461026c5780630bca773c146102a157806312615d26146102c35780631430bc51146102f0578063248a9ca314610334575b600080fd5b34801561027857600080fd5b5061028c6102873660046132c9565b61081b565b60405190151581526020015b60405180910390f35b3480156102ad57600080fd5b506102c16102bc36600461330b565b610846565b005b3480156102cf57600080fd5b506102e36102de366004613338565b610975565b6040516102989190613351565b3480156102fc57600080fd5b5061031061030b366004613338565b6109ba565b6040805182516001600160a01b031681526020928301519281019290925201610298565b34801561034057600080fd5b5061036561034f366004613338565b600090815261012d602052604090206001015490565b604051908152602001610298565b34801561037f57600080fd5b506103656101c15481565b34801561039657600080fd5b506101c0546103ab906001600160a01b031681565b6040516001600160a01b039091168152602001610298565b3480156103cf57600080fd5b506102c16103de3660046133aa565b610a2d565b3480156103ef57600080fd5b506102c16103fe3660046133aa565b610a58565b34801561040f57600080fd5b506102c161041e3660046133da565b610ad6565b34801561042f57600080fd5b506102c161043e3660046133f7565b610bb5565b34801561044f57600080fd5b506102c161045e366004613438565b610c3b565b34801561046f57600080fd5b506102c1610d67565b34801561048457600080fd5b5061028c6104933660046133aa565b610d88565b6102c16104a6366004613338565b610dd5565b6102c16104b936600461352e565b610eb3565b3480156104ca57600080fd5b50610365610f7f565b3480156104df57600080fd5b506103656104ee366004613338565b611032565b3480156104ff57600080fd5b506102c161050e366004613622565b6110ab565b34801561051f57600080fd5b5060335460ff1661028c565b34801561053757600080fd5b506101bf546103ab906001600160a01b031681565b34801561055857600080fd5b5061056c61056736600461366e565b611167565b60405161029891906136c8565b34801561058557600080fd5b506102c1610594366004613622565b61127f565b3480156105a557600080fd5b5061028c6105b4366004613338565b61133b565b3480156105c557600080fd5b506102c16105d436600461330b565b61137f565b3480156105e557600080fd5b506102c1611497565b3480156105fa57600080fd5b506102c161160a565b34801561060f57600080fd5b506102c161061e3660046133f7565b611629565b34801561062f57600080fd5b506103ab61063e36600461366e565b6116b6565b34801561064f57600080fd5b5061028c61065e3660046133aa565b6116cf565b34801561066f57600080fd5b5061068361067e366004613338565b6116fb565b60405161029891906136e9565b34801561069c57600080fd5b50610365600081565b3480156106b157600080fd5b506102e3611765565b3480156106c657600080fd5b506102c16106d536600461330b565b611777565b3480156106e657600080fd5b506103656106f5366004613338565b611846565b34801561070657600080fd5b506102c1610715366004613700565b61185e565b34801561072657600080fd5b5061073a610735366004613338565b6118c1565b6040516102989190613723565b34801561075357600080fd5b506102c16107623660046133aa565b611906565b6102c1610775366004613764565b61192c565b34801561078657600080fd5b506102c16107953660046133da565b611c25565b3480156107a657600080fd5b506106836107b5366004613338565b611ce3565b6102c16107c836600461366e565b611d4a565b3480156107d957600080fd5b506102c16107e8366004613622565b611e6a565b3480156107f957600080fd5b506103656108083660046133da565b6101c66020526000908152604090205481565b60006335354db360e11b6001600160e01b031983161480610840575061084082612063565b92915050565b61085d600080516020613ea6833981519152612088565b6108696101c283612092565b61088e5760405162461bcd60e51b81526004016108859061379f565b60405180910390fd5b428135116108ed5760405162461bcd60e51b815260206004820152602660248201527f3842616c6c4375654d696e7465723a3a496e76616c6964206d696e7420737461604482015265727454696d6560d01b6064820152608401610885565b600081602001351161094c5760405162461bcd60e51b815260206004820152602260248201527f3842616c6c4375654d696e7465723a3a496e76616c6964206d696e7420707269604482015261636560f01b6064820152608401610885565b60008281526101c4602090815260409091208235815590820135600182015581815b5050505050565b60606109836101c283612092565b61099f5760405162461bcd60e51b81526004016108859061379f565b60008281526101c460205260409020610840906008016120aa565b60408051808201909152600080825260208201526109da6101c283612092565b6109f65760405162461bcd60e51b81526004016108859061379f565b5060009081526101c46020908152604091829020825180840190935260068101546001600160a01b03168352600701549082015290565b600082815261012d6020526040902060010154610a4981612088565b610a5383836120b7565b505050565b6001600160a01b0381163314610ac85760405162461bcd60e51b815260206004820152602f60248201527f416363657373436f6e74726f6c3a2063616e206f6e6c792072656e6f756e636560448201526e103937b632b9903337b91039b2b63360891b6064820152608401610885565b610ad282826120da565b5050565b6001600160a01b037f0000000000000000000000000000000000000000000000000000000000000000163003610b1e5760405162461bcd60e51b8152600401610885906137e8565b7f00000000000000000000000000000000000000000000000000000000000000006001600160a01b0316610b67600080516020613e5f833981519152546001600160a01b031690565b6001600160a01b031614610b8d5760405162461bcd60e51b815260040161088590613834565b610b96816120fd565b60408051600080825260208201909252610bb291839190612114565b50565b610bcc600080516020613ea6833981519152612088565b6001600160a01b03821660009081526101c66020526040902054811115610c0957506001600160a01b031660009081526101c66020526040812055565b6001600160a01b03821660009081526101c6602052604081208054839290610c32908490613896565b90915550505050565b610c52600080516020613ea6833981519152612088565b610c5e6101c28761227f565b610cb95760405162461bcd60e51b815260206004820152602660248201527f3842616c6c4375654d696e7465723a3a4578697374696e6720636f6c6c6563746044820152651a5bdb88125160d21b6064820152608401610885565b60008681526101c460209081526040918290208535815585820135600182015584356002820155908401356003820155600b8101805460ff19168415151790556101c054915162a4bcfb60e11b815290916001600160a01b03169063014979f690610d2c908a908a908a906004016138d2565b600060405180830381600087803b158015610d4657600080fd5b505af1158015610d5a573d6000803e3d6000fd5b5050505050505050505050565b610d7e600080516020613ea6833981519152612088565b610d8661228b565b565b6000610d966101c284612092565b610db25760405162461bcd60e51b81526004016108859061379f565b60008381526101c460205260409020610dce90600401836122dd565b9392505050565b610ddd6122ff565b610de5612345565b610dee8161239e565b60008181526101c460205260409020600b015460ff16610e675760405162461bcd60e51b815260206004820152602e60248201527f3842616c6c4375654d696e7465723a3a496e76616c69642072616e646f6d206d60448201526d34b73a1031b7b63632b1ba34b7b760911b6064820152608401610885565b6000610e72826124a8565b60008381526101c46020526040812091925090610e9a90610e95906008016120aa565b6126a4565b9050610ea7838284612761565b5050610bb2600160c955565b6001600160a01b037f0000000000000000000000000000000000000000000000000000000000000000163003610efb5760405162461bcd60e51b8152600401610885906137e8565b7f00000000000000000000000000000000000000000000000000000000000000006001600160a01b0316610f44600080516020613e5f833981519152546001600160a01b031690565b6001600160a01b031614610f6a5760405162461bcd60e51b815260040161088590613834565b610f73826120fd565b610ad282826001612114565b6000306001600160a01b037f0000000000000000000000000000000000000000000000000000000000000000161461101f5760405162461bcd60e51b815260206004820152603860248201527f555550535570677261646561626c653a206d757374206e6f742062652063616c60448201527f6c6564207468726f7567682064656c656761746563616c6c00000000000000006064820152608401610885565b50600080516020613e5f83398151915290565b60008181526101c46020526040812060028101548154839291429161105791906138ec565b11156110935761106a60048201336122dd565b15611093576003810154600182015461271091611086916138ff565b6110909190613934565b91505b60018101546110a3908390613896565b949350505050565b6110c2600080516020613ea6833981519152612088565b6110ce6101c284612092565b6110ea5760405162461bcd60e51b81526004016108859061379f565b806111075760405162461bcd60e51b815260040161088590613948565b60008381526101c460205260408120905b8281101561096e5761115484848381811061113557611135613989565b905060200201602081019061114a91906133da565b60048401906128dc565b508061115f8161399f565b915050611118565b60408051808201909152600080825260208201526111876101c284612092565b6111a35760405162461bcd60e51b81526004016108859061379f565b60008381526101c4602052604090206111bf6008820184612092565b6112255760405162461bcd60e51b815260206004820152603160248201527f3842616c6c4375654d696e7465723a3a4e6f6e2d6578697374656e74206f72206044820152701cdbdb190b5bdd5d0819195cda59db9259607a1b6064820152608401610885565b6000838152600a820160205260409081902081518083019092528054829060ff16600481111561125757611257613690565b600481111561126857611268613690565b815260200160018201548152505091505092915050565b611296600080516020613ea6833981519152612088565b6112a26101c284612092565b6112be5760405162461bcd60e51b81526004016108859061379f565b806112db5760405162461bcd60e51b815260040161088590613948565b60008381526101c460205260408120905b8281101561096e5761132884848381811061130957611309613989565b905060200201602081019061131e91906133da565b60048401906128f1565b50806113338161399f565b9150506112ec565b60006113496101c283612092565b6113655760405162461bcd60e51b81526004016108859061379f565b5060009081526101c460205260409020600b015460ff1690565b611396600080516020613ea6833981519152612088565b6113a26101c283612092565b6113be5760405162461bcd60e51b81526004016108859061379f565b60208101351580156113cf57508035155b806113e857506020810135158015906113e85750803515155b6114045760405162461bcd60e51b8152600401610885906139b8565b61271081602001351061146c5760405162461bcd60e51b815260206004820152602a60248201527f3842616c6c4375654d696e7465723a3a496e76616c696420616c6c6f776c69736044820152691d08191a5cd8dbdd5b9d60b21b6064820152608401610885565b60008281526101c460205260409020816002820161096e828281358155602082013560018201555050565b600054610100900460ff16158080156114b75750600054600160ff909116105b806114d15750303b1580156114d1575060005460ff166001145b6115345760405162461bcd60e51b815260206004820152602e60248201527f496e697469616c697a61626c653a20636f6e747261637420697320616c72656160448201526d191e481a5b9a5d1a585b1a5e995960921b6064820152608401610885565b6000805460ff191660011790558015611557576000805461ff0019166101001790555b61155f612906565b611567612935565b61156f612a2f565b611577612a56565b61157f612a2f565b6706f05b59d3b200006101c1556101c080546001600160a01b03191673ecc82f602a7982a9464844dee6dbc751e3615bb41790556115c26101c580546001019055565b8015610bb2576000805461ff0019169055604051600181527f7f26b83ff96e1f2b6a682f133852f6798a09c465da95921460cefb38474024989060200160405180910390a150565b611621600080516020613ea6833981519152612088565b610d86612a85565b611640600080516020613ea6833981519152612088565b6001600160a01b03821660009081526101c660205260409020546064906116689083906138ec565b111561168d57506001600160a01b031660009081526101c66020526040902060649055565b6001600160a01b03821660009081526101c6602052604081208054839290610c329084906138ec565b600082815261015f60205260408120610dce9083612ac2565b600091825261012d602090815260408084206001600160a01b0393909316845291905290205460ff1690565b604080518082019091526000808252602082015261171b6101c283612092565b6117375760405162461bcd60e51b81526004016108859061379f565b5060009081526101c46020908152604091829020825180840190935260028101548352600301549082015290565b60606117726101c26120aa565b905090565b61178e600080516020613ea6833981519152612088565b61179a6101c283612092565b6117b65760405162461bcd60e51b81526004016108859061379f565b60208101351580156117dd575060006117d260208301836133da565b6001600160a01b0316145b8061180c575060208101351580159061180c5750600061180060208301836133da565b6001600160a01b031614155b6118285760405162461bcd60e51b8152600401610885906139b8565b60008281526101c460205260409020816006820161096e82826139fe565b600081815261015f6020526040812061084090612ace565b611875600080516020613ea6833981519152612088565b6118816101c283612092565b61189d5760405162461bcd60e51b81526004016108859061379f565b60009182526101c46020526040909120600b01805460ff1916911515919091179055565b60606118cf6101c283612092565b6118eb5760405162461bcd60e51b81526004016108859061379f565b60008281526101c460205260409020610840906004016120aa565b600082815261012d602052604090206001015461192281612088565b610a5383836120da565b6119346122ff565b61193c612345565b6101c0546040516334985b9960e01b8152600481018790526001600160a01b039091169060009082906334985b999060240160e060405180830381865afa15801561198b573d6000803e3d6000fd5b505050506040513d601f19601f820116820180604052508101906119af9190613a41565b9050600080825160048111156119c7576119c7613690565b146119ef57815160048111156119df576119df613690565b6119ea9060066138ec565b6119f2565b60055b905060006101c1548587898b611a0891906138ec565b611a1291906138ec565b611a1c91906138ec565b611a2691906138ff565b905080341015611a485760405162461bcd60e51b815260040161088590613ace565b6101bf546040516001600160a01b039091169082156108fc029083906000818181858888f19350505050158015611a83573d6000803e3d6000fd5b508783606001818151611a9691906138ec565b905250608083018051889190611aad9083906138ec565b90525060a083018051879190611ac49083906138ec565b90525060c083018051869190611adb9083906138ec565b90525060608301518210801590611af6575081836080015111155b8015611b065750818360a0015111155b8015611b165750818360c0015111155b611b725760405162461bcd60e51b815260206004820152602760248201527f3842616c6c4375654d696e7465723a3a496e76616c6964207570677261646520604482015266616d6f756e747360c81b6064820152608401610885565b604051637ec0722d60e11b81526001600160a01b0385169063fd80e45a90611ba29033908d908890600401613b12565b600060405180830381600087803b158015611bbc57600080fd5b505af1158015611bd0573d6000803e3d6000fd5b505050602084015184516040513393507f5cfa1078ee34a46e31f28532801a74fda1a0cd45b83f4c78c7fbb24abec85e4192611c0f928e928790613b80565b60405180910390a25050505061096e600160c955565b611c3c600080516020613ea6833981519152612088565b6001600160a01b03811615801590611c6357506101bf546001600160a01b03828116911614155b611cc05760405162461bcd60e51b815260206004820152602860248201527f3842616c6c4375654d696e7465723a3a496e76616c6964207472656173757279604482015267206164647265737360c01b6064820152608401610885565b6101bf80546001600160a01b0319166001600160a01b0392909216919091179055565b6040805180820190915260008082526020820152611d036101c283612092565b611d1f5760405162461bcd60e51b81526004016108859061379f565b5060009081526101c46020908152604091829020825180840190935280548352600101549082015290565b611d526122ff565b611d5a612345565b611d638261239e565b60008281526101c460205260409020600b015460ff1615611ddf5760405162461bcd60e51b815260206004820152603060248201527f3842616c6c4375654d696e7465723a3a496e76616c696420737065636966696360448201526f1036b4b73a1031b7b63632b1ba34b7b760811b6064820152608401610885565b60008281526101c460205260409020611dfb9060080182612092565b611e475760405162461bcd60e51b815260206004820181905260248201527f3842616c6c4375654d696e7465723a3a496e76616c69642064657369676e49646044820152606401610885565b6000611e52836124a8565b9050611e5f838383612761565b50610ad2600160c955565b611e81600080516020613ea6833981519152612088565b611e8d6101c284612092565b611ea95760405162461bcd60e51b81526004016108859061379f565b60008381526101c460205260408120905b82811015611ff557611ef7848483818110611ed757611ed7613989565b9050602002810190611ee99190613baa565b60088401906020013561227f565b506040518060400160405280858584818110611f1557611f15613989565b9050602002810190611f279190613baa565b611f35906020810190613bca565b6004811115611f4657611f46613690565b8152602001858584818110611f5d57611f5d613989565b9050602002810190611f6f9190613baa565b604001359052600a83016000868685818110611f8d57611f8d613989565b9050602002810190611f9f9190613baa565b602090810135825281019190915260400160002081518154829060ff19166001836004811115611fd157611fd1613690565b02179055506020919091015160019091015580611fed8161399f565b915050611eba565b506101c05460405163fd2de53960e01b81526001600160a01b039091169063fd2de5399061202b90879087908790600401613be7565b600060405180830381600087803b15801561204557600080fd5b505af1158015612059573d6000803e3d6000fd5b5050505050505050565b60006001600160e01b03198216635a05180f60e01b1480610840575061084082612ad8565b610bb28133612b0d565b60008181526001830160205260408120541515610dce565b60606000610dce83612b66565b6120c18282612bc2565b600082815261015f60205260409020610a5390826128f1565b6120e48282612c49565b600082815261015f60205260409020610a5390826128dc565b610bb2600080516020613ea6833981519152612088565b7f4910fdfa16fed3260ed0e7147f7cc6da11a60208b5b9406d12a635614ffd91435460ff161561214757610a5383612cb1565b826001600160a01b03166352d1902d6040518163ffffffff1660e01b8152600401602060405180830381865afa9250505080156121a1575060408051601f3d908101601f1916820190925261219e91810190613cdb565b60015b6122045760405162461bcd60e51b815260206004820152602e60248201527f45524331393637557067726164653a206e657720696d706c656d656e7461746960448201526d6f6e206973206e6f74205555505360901b6064820152608401610885565b600080516020613e5f83398151915281146122735760405162461bcd60e51b815260206004820152602960248201527f45524331393637557067726164653a20756e737570706f727465642070726f786044820152681a58589b195555525160ba1b6064820152608401610885565b50610a53838383612d4d565b6000610dce8383612d78565b612293612dc7565b6033805460ff191690557f5db9ee0a495bf2e6ff9c91a7834c1ba4fdd244a5e8aa4e537bd38aeae4b073aa335b6040516001600160a01b03909116815260200160405180910390a1565b6001600160a01b03811660009081526001830160205260408120541515610dce565b60335460ff1615610d865760405162461bcd60e51b815260206004820152601060248201526f14185d5cd8589b194e881c185d5cd95960821b6044820152606401610885565b600260c954036123975760405162461bcd60e51b815260206004820152601f60248201527f5265656e7472616e637947756172643a207265656e7472616e742063616c6c006044820152606401610885565b600260c955565b6123aa6101c282612092565b6123c65760405162461bcd60e51b81526004016108859061379f565b60008181526101c46020526040902054421015806123e857506123e833612e10565b6124405760405162461bcd60e51b8152602060048201526024808201527f3842616c6c4375654d696e7465723a3a4d696e7420686173206e6f74207374616044820152631c9d195960e21b6064820152608401610885565b60008181526101c46020526040812061245b90600801612ace565b11610bb25760405162461bcd60e51b815260206004820152601860248201527f3842616c6c4375654d696e7465723a3a536f6c64206f757400000000000000006044820152606401610885565b3360009081526101c66020526040812054156124e7573360009081526101c6602052604081208054916124da83613cf4565b9091555060009392505050565b60006124f283611032565b905080348111156125155760405162461bcd60e51b815260040161088590613ace565b60008481526101c46020526040902060060180546001600160a01b03161561265f57600061271082600101548561254c91906138ff565b6125569190613934565b90506125628184613896565b6101bf546040519194506000916001600160a01b039091169083908381818185875af1925050503d80600081146125b5576040519150601f19603f3d011682016040523d82523d6000602084013e6125ba565b606091505b50509050801561261257825460408051898152602081018590526001600160a01b039092169133917f98ffdf4f5be5af8de356ea9db372549d2182650280d5234acb94a9955e788c56910160405180910390a361265c565b825460408051898152602081018590526001600160a01b039092169133917f820d26b4d2455e90e3d3f84dc019d6873705f91d9ec310888cc6357f0914988d910160405180910390a35b50505b6101bf546040516001600160a01b039091169083156108fc029084906000818181858888f1935050505015801561269a573d6000803e3d6000fd5b5091949350505050565b604080514260208201526bffffffffffffffffffffffff193360601b16918101919091524360548201526000908190610100906074016040516020818303038152906040528051906020012060001c6126fd9190613d0b565b9050600061270b8243613896565b6040805191406020830152016040516020818303038152906040528051906020012060001c9050838451826127409190613d0b565b8151811061275057612750613989565b602002602001015192505050919050565b60008381526101c460209081526040808320858452600a81019092528220600181018054929391929161279383613cf4565b919050555080600101546000036127b3576127b16008830185612e2a565b505b60006127bf6101c55490565b90506127d06101c580546001019055565b6101c0546040805160e0810190915283546001600160a01b03909216916301e65df1913391859190819060ff16600481111561280e5761280e613690565b81526020018b81526020018a815260200160018152602001600181526020016001815260200160018152506040518463ffffffff1660e01b815260040161285793929190613b12565b600060405180830381600087803b15801561287157600080fd5b505af1158015612885573d6000803e3d6000fd5b505083546040513393507f20a1a53afff5899d6a197cadef7db93281256627d98124e9756d69cef4c83f0592506128c59185918b9160ff16908a90613b80565b60405180910390a2505050505050565b600160c955565b6000610dce836001600160a01b038416612e32565b6000610dce836001600160a01b038416612d78565b600054610100900460ff1661292d5760405162461bcd60e51b815260040161088590613d1f565b610d86612f25565b600054610100900460ff1661295c5760405162461bcd60e51b815260040161088590613d1f565b612964612a2f565b61296f6000336120b7565b612987600080516020613ea6833981519152336120b7565b6129b17f364d3d7565c7a8300c96fd53e065d19b65848d7b23b3191adcd55621c744223c336120b7565b6129db7f9f2df0fed2c77648de5860a4cc508cd0818c85b8b8a1ab4ceeef8d981c8956a6336120b7565b612a057ff18b77e1ef402111bacb54bd5e03494cbdba92fbd1bd3bbcc1ce77e69b42ea6c336120b7565b610d867f52ba824bfabc2bcfcdf7f0edbb486ebb05e1836c90e78047efeb949990f72e5f336120b7565b600054610100900460ff16610d865760405162461bcd60e51b815260040161088590613d1f565b600054610100900460ff16612a7d5760405162461bcd60e51b815260040161088590613d1f565b610d86612f58565b612a8d6122ff565b6033805460ff191660011790557f62e78cea01bee320cd4e420270b5ea74000d11b0c9f74754ebdbfc544b05a2586122c03390565b6000610dce8383612f7f565b6000610840825490565b60006001600160e01b03198216637965db0b60e01b148061084057506301ffc9a760e01b6001600160e01b0319831614610840565b612b1782826116cf565b610ad257612b2481612fa9565b612b2f836020612fbb565b604051602001612b40929190613d8e565b60408051601f198184030181529082905262461bcd60e51b825261088591600401613e03565b606081600001805480602002602001604051908101604052809291908181526020018280548015612bb657602002820191906000526020600020905b815481526020019060010190808311612ba2575b50505050509050919050565b612bcc82826116cf565b610ad257600082815261012d602090815260408083206001600160a01b03851684529091529020805460ff19166001179055612c053390565b6001600160a01b0316816001600160a01b0316837f2f8788117e7eff1d82e926ec794901d17c78024a50270940304540a733656f0d60405160405180910390a45050565b612c5382826116cf565b15610ad257600082815261012d602090815260408083206001600160a01b0385168085529252808320805460ff1916905551339285917ff6391f5c32d9c69d2a47ea670b442974b53935d1edc7fd64eb21e047a839171b9190a45050565b6001600160a01b0381163b612d1e5760405162461bcd60e51b815260206004820152602d60248201527f455243313936373a206e657720696d706c656d656e746174696f6e206973206e60448201526c1bdd08184818dbdb9d1c9858dd609a1b6064820152608401610885565b600080516020613e5f83398151915280546001600160a01b0319166001600160a01b0392909216919091179055565b612d5683613157565b600082511180612d635750805b15610a5357612d728383613197565b50505050565b6000818152600183016020526040812054612dbf57508154600181810184556000848152602080822090930184905584548482528286019093526040902091909155610840565b506000610840565b60335460ff16610d865760405162461bcd60e51b815260206004820152601460248201527314185d5cd8589b194e881b9bdd081c185d5cd95960621b6044820152606401610885565b6000610840600080516020613ea6833981519152836116cf565b6000610dce83835b60008181526001830160205260408120548015612f1b576000612e56600183613896565b8554909150600090612e6a90600190613896565b9050818114612ecf576000866000018281548110612e8a57612e8a613989565b9060005260206000200154905080876000018481548110612ead57612ead613989565b6000918252602080832090910192909255918252600188019052604090208390555b8554869080612ee057612ee0613e36565b600190038181906000526020600020016000905590558560010160008681526020019081526020016000206000905560019350505050610840565b6000915050610840565b600054610100900460ff16612f4c5760405162461bcd60e51b815260040161088590613d1f565b6033805460ff19169055565b600054610100900460ff166128d55760405162461bcd60e51b815260040161088590613d1f565b6000826000018281548110612f9657612f96613989565b9060005260206000200154905092915050565b60606108406001600160a01b03831660145b60606000612fca8360026138ff565b612fd59060026138ec565b67ffffffffffffffff811115612fed57612fed6134e7565b6040519080825280601f01601f191660200182016040528015613017576020820181803683370190505b509050600360fc1b8160008151811061303257613032613989565b60200101906001600160f81b031916908160001a905350600f60fb1b8160018151811061306157613061613989565b60200101906001600160f81b031916908160001a90535060006130858460026138ff565b6130909060016138ec565b90505b6001811115613108576f181899199a1a9b1b9c1cb0b131b232b360811b85600f16601081106130c4576130c4613989565b1a60f81b8282815181106130da576130da613989565b60200101906001600160f81b031916908160001a90535060049490941c9361310181613cf4565b9050613093565b508315610dce5760405162461bcd60e51b815260206004820181905260248201527f537472696e67733a20686578206c656e67746820696e73756666696369656e746044820152606401610885565b61316081612cb1565b6040516001600160a01b038216907fbc7cd75a20ee27fd9adebab32041f755214dbc6bffa90cc0225b39da2e5c2d3b90600090a250565b60606001600160a01b0383163b6131ff5760405162461bcd60e51b815260206004820152602660248201527f416464726573733a2064656c65676174652063616c6c20746f206e6f6e2d636f6044820152651b9d1c9858dd60d21b6064820152608401610885565b600080846001600160a01b03168460405161321a9190613e4c565b600060405180830381855af49150503d8060008114613255576040519150601f19603f3d011682016040523d82523d6000602084013e61325a565b606091505b50915091506132828282604051806060016040528060278152602001613e7f6027913961328b565b95945050505050565b6060831561329a575081610dce565b610dce83838151156132af5781518083602001fd5b8060405162461bcd60e51b81526004016108859190613e03565b6000602082840312156132db57600080fd5b81356001600160e01b031981168114610dce57600080fd5b60006040828403121561330557600080fd5b50919050565b6000806060838503121561331e57600080fd5b8235915061332f84602085016132f3565b90509250929050565b60006020828403121561334a57600080fd5b5035919050565b6020808252825182820181905260009190848201906040850190845b818110156133895783518352928401929184019160010161336d565b50909695505050505050565b6001600160a01b0381168114610bb257600080fd5b600080604083850312156133bd57600080fd5b8235915060208301356133cf81613395565b809150509250929050565b6000602082840312156133ec57600080fd5b8135610dce81613395565b6000806040838503121561340a57600080fd5b823561341581613395565b946020939093013593505050565b8035801515811461343357600080fd5b919050565b60008060008060008060e0878903121561345157600080fd5b86359550602087013567ffffffffffffffff8082111561347057600080fd5b818901915089601f83011261348457600080fd5b81358181111561349357600080fd5b8a60208285010111156134a557600080fd5b6020830197508096505050506134be88604089016132f3565b92506134cd88608089016132f3565b91506134db60c08801613423565b90509295509295509295565b634e487b7160e01b600052604160045260246000fd5b604051601f8201601f1916810167ffffffffffffffff81118282101715613526576135266134e7565b604052919050565b6000806040838503121561354157600080fd5b823561354c81613395565b915060208381013567ffffffffffffffff8082111561356a57600080fd5b818601915086601f83011261357e57600080fd5b813581811115613590576135906134e7565b6135a2601f8201601f191685016134fd565b915080825287848285010111156135b857600080fd5b80848401858401376000848284010152508093505050509250929050565b60008083601f8401126135e857600080fd5b50813567ffffffffffffffff81111561360057600080fd5b6020830191508360208260051b850101111561361b57600080fd5b9250929050565b60008060006040848603121561363757600080fd5b83359250602084013567ffffffffffffffff81111561365557600080fd5b613661868287016135d6565b9497909650939450505050565b6000806040838503121561368157600080fd5b50508035926020909101359150565b634e487b7160e01b600052602160045260246000fd5b600581106136c457634e487b7160e01b600052602160045260246000fd5b9052565b60006040820190506136db8284516136a6565b602092830151919092015290565b815181526020808301519082015260408101610840565b6000806040838503121561371357600080fd5b8235915061332f60208401613423565b6020808252825182820181905260009190848201906040850190845b818110156133895783516001600160a01b03168352928401929184019160010161373f565b600080600080600060a0868803121561377c57600080fd5b505083359560208501359550604085013594606081013594506080013592509050565b60208082526029908201527f3842616c6c4375654d696e7465723a3a4e6f6e2d6578697374656e7420636f6c6040820152681b1958dd1a5bdb925960ba1b606082015260800190565b6020808252602c908201527f46756e6374696f6e206d7573742062652063616c6c6564207468726f7567682060408201526b19195b1959d85d1958d85b1b60a21b606082015260800190565b6020808252602c908201527f46756e6374696f6e206d7573742062652063616c6c6564207468726f7567682060408201526b6163746976652070726f787960a01b606082015260800190565b634e487b7160e01b600052601160045260246000fd5b8181038181111561084057610840613880565b81835281816020850137506000828201602090810191909152601f909101601f19169091010190565b8381526040602082015260006132826040830184866138a9565b8082018082111561084057610840613880565b600081600019048311821515161561391957613919613880565b500290565b634e487b7160e01b600052601260045260246000fd5b6000826139435761394361391e565b500490565b60208082526021908201527f3842616c6c4375654d696e7465723a3a456d7074792077616c6c6574206c69736040820152601d60fa1b606082015260800190565b634e487b7160e01b600052603260045260246000fd5b6000600182016139b1576139b1613880565b5060010190565b60208082526026908201527f3842616c6c4375654d696e7465723a3a496e76616c696420726f79616c747920604082015265636f6e66696760d01b606082015260800190565b8135613a0981613395565b81546001600160a01b0319166001600160a01b03919091161781556020919091013560019190910155565b60058110610bb257600080fd5b600060e08284031215613a5357600080fd5b60405160e0810181811067ffffffffffffffff82111715613a7657613a766134e7565b6040528251613a8481613a34565b808252506020830151602082015260408301516040820152606083015160608201526080830151608082015260a083015160a082015260c083015160c08201528091505092915050565b60208082526024908201527f3842616c6c4375654d696e7465723a3a496e73756666696369656e74207061796040820152631b595b9d60e21b606082015260800190565b6001600160a01b0384168152602081018390528151610120820190613b3b9060408401906136a6565b6020830151606083015260408301516080830152606083015160a0830152608083015160c083015260a083015160e083015260c0830151610100830152949350505050565b8481526020810184905260808101613b9b60408301856136a6565b82606083015295945050505050565b60008235607e19833603018112613bc057600080fd5b9190910192915050565b600060208284031215613bdc57600080fd5b8135610dce81613a34565b600060408083018684526020828186015281868352606092508286019050828760051b8701018860005b89811015613ccb57888303605f190184528135368c9003607e19018112613c3757600080fd5b8b0160808135613c4681613a34565b613c5086826136a6565b508682013587860152888201358986015287820135601e19833603018112613c7757600080fd5b90910186810191903567ffffffffffffffff811115613c9557600080fd5b803603831315613ca457600080fd5b8189870152613cb682870182856138a9565b96880196955050509185019150600101613c11565b50909a9950505050505050505050565b600060208284031215613ced57600080fd5b5051919050565b600081613d0357613d03613880565b506000190190565b600082613d1a57613d1a61391e565b500690565b6020808252602b908201527f496e697469616c697a61626c653a20636f6e7472616374206973206e6f74206960408201526a6e697469616c697a696e6760a81b606082015260800190565b60005b83811015613d85578181015183820152602001613d6d565b50506000910152565b7f416363657373436f6e74726f6c3a206163636f756e7420000000000000000000815260008351613dc6816017850160208801613d6a565b7001034b99036b4b9b9b4b733903937b6329607d1b6017918401918201528351613df7816028840160208801613d6a565b01602801949350505050565b6020815260008251806020840152613e22816040850160208701613d6a565b601f01601f19169190910160400192915050565b634e487b7160e01b600052603160045260246000fd5b60008251613bc0818460208701613d6a56fe360894a13ba1a3210667c828492db98dca3e2076cc3735a920a3ca505d382bbc416464726573733a206c6f772d6c6576656c2064656c65676174652063616c6c206661696c6564a49807205ce4d355092ef5a8a18f56e8913cf4a201fbe287825b095693c21775a2646970667358221220b82b51c1fb748bb12b061bb07e80aeb7f62a7fe1a03a3cff3dd4c176347d3e3e64736f6c63430008100033",
  "linkReferences": {},
  "deployedLinkReferences": {}
}