{
  "_format": "hh-sol-artifact-1",
  "contractName": "A8BallCueMinter",
  "sourceName": "contracts/A8Ball/Minter/A8BallCueMinter.sol",
  "abi": [
    {
      "inputs": [],
      "stateMutability": "nonpayable",
      "type": "constructor"
    },
    {
      "anonymous": false,
      "inputs": [
        {
          "indexed": false,
          "internalType": "address",
          "name": "previousAdmin",
          "type": "address"
        },
        {
          "indexed": false,
          "internalType": "address",
          "name": "newAdmin",
          "type": "address"
        }
      ],
      "name": "AdminChanged",
      "type": "event"
    },
    {
      "anonymous": false,
      "inputs": [
        {
          "indexed": true,
          "internalType": "address",
          "name": "beacon",
          "type": "address"
        }
      ],
      "name": "BeaconUpgraded",
      "type": "event"
    },
    {
      "anonymous": false,
      "inputs": [
        {
          "indexed": true,
          "internalType": "address",
          "name": "from",
          "type": "address"
        },
        {
          "indexed": false,
          "internalType": "uint256",
          "name": "tokenId",
          "type": "uint256"
        },
        {
          "indexed": false,
          "internalType": "uint256",
          "name": "collectionId",
          "type": "uint256"
        },
        {
          "indexed": false,
          "internalType": "enum I8BallCommon.Rarity",
          "name": "rarity",
          "type": "uint8"
        },
        {
          "indexed": false,
          "internalType": "uint256",
          "name": "price",
          "type": "uint256"
        }
      ],
      "name": "CuePurchased",
      "type": "event"
    },
    {
      "anonymous": false,
      "inputs": [
        {
          "indexed": true,
          "internalType": "address",
          "name": "from",
          "type": "address"
        },
        {
          "indexed": false,
          "internalType": "uint256",
          "name": "tokenId",
          "type": "uint256"
        },
        {
          "indexed": false,
          "internalType": "uint256",
          "name": "collectionId",
          "type": "uint256"
        },
        {
          "indexed": false,
          "internalType": "enum I8BallCommon.Rarity",
          "name": "rarity",
          "type": "uint8"
        },
        {
          "indexed": false,
          "internalType": "uint256",
          "name": "price",
          "type": "uint256"
        }
      ],
      "name": "CueUpgraded",
      "type": "event"
    },
    {
      "anonymous": false,
      "inputs": [
        {
          "indexed": false,
          "internalType": "uint8",
          "name": "version",
          "type": "uint8"
        }
      ],
      "name": "Initialized",
      "type": "event"
    },
    {
      "anonymous": false,
      "inputs": [
        {
          "indexed": false,
          "internalType": "address",
          "name": "account",
          "type": "address"
        }
      ],
      "name": "Paused",
      "type": "event"
    },
    {
      "anonymous": false,
      "inputs": [
        {
          "indexed": true,
          "internalType": "bytes32",
          "name": "role",
          "type": "bytes32"
        },
        {
          "indexed": true,
          "internalType": "bytes32",
          "name": "previousAdminRole",
          "type": "bytes32"
        },
        {
          "indexed": true,
          "internalType": "bytes32",
          "name": "newAdminRole",
          "type": "bytes32"
        }
      ],
      "name": "RoleAdminChanged",
      "type": "event"
    },
    {
      "anonymous": false,
      "inputs": [
        {
          "indexed": true,
          "internalType": "bytes32",
          "name": "role",
          "type": "bytes32"
        },
        {
          "indexed": true,
          "internalType": "address",
          "name": "account",
          "type": "address"
        },
        {
          "indexed": true,
          "internalType": "address",
          "name": "sender",
          "type": "address"
        }
      ],
      "name": "RoleGranted",
      "type": "event"
    },
    {
      "anonymous": false,
      "inputs": [
        {
          "indexed": true,
          "internalType": "bytes32",
          "name": "role",
          "type": "bytes32"
        },
        {
          "indexed": true,
          "internalType": "address",
          "name": "account",
          "type": "address"
        },
        {
          "indexed": true,
          "internalType": "address",
          "name": "sender",
          "type": "address"
        }
      ],
      "name": "RoleRevoked",
      "type": "event"
    },
    {
      "anonymous": false,
      "inputs": [
        {
          "indexed": true,
          "internalType": "address",
          "name": "from",
          "type": "address"
        },
        {
          "indexed": true,
          "internalType": "address",
          "name": "to",
          "type": "address"
        },
        {
          "indexed": false,
          "internalType": "uint256",
          "name": "collectionId",
          "type": "uint256"
        },
        {
          "indexed": false,
          "internalType": "uint256",
          "name": "amount",
          "type": "uint256"
        }
      ],
      "name": "RoyaltyPaid",
      "type": "event"
    },
    {
      "anonymous": false,
      "inputs": [
        {
          "indexed": true,
          "internalType": "address",
          "name": "from",
          "type": "address"
        },
        {
          "indexed": true,
          "internalType": "address",
          "name": "to",
          "type": "address"
        },
        {
          "indexed": false,
          "internalType": "uint256",
          "name": "collectionId",
          "type": "uint256"
        },
        {
          "indexed": false,
          "internalType": "uint256",
          "name": "amount",
          "type": "uint256"
        }
      ],
      "name": "RoyaltyShareFailed",
      "type": "event"
    },
    {
      "anonymous": false,
      "inputs": [
        {
          "indexed": false,
          "internalType": "address",
          "name": "account",
          "type": "address"
        }
      ],
      "name": "Unpaused",
      "type": "event"
    },
    {
      "anonymous": false,
      "inputs": [
        {
          "indexed": true,
          "internalType": "address",
          "name": "implementation",
          "type": "address"
        }
      ],
      "name": "Upgraded",
      "type": "event"
    },
    {
      "inputs": [],
      "name": "DEFAULT_ADMIN_ROLE",
      "outputs": [
        {
          "internalType": "bytes32",
          "name": "",
          "type": "bytes32"
        }
      ],
      "stateMutability": "view",
      "type": "function"
    },
    {
      "inputs": [
        {
          "internalType": "uint256",
          "name": "collectionId",
          "type": "uint256"
        },
        {
          "internalType": "string",
          "name": "name",
          "type": "string"
        },
        {
          "components": [
            {
              "internalType": "uint256",
              "name": "startTime",
              "type": "uint256"
            },
            {
              "internalType": "uint256",
              "name": "price",
              "type": "uint256"
            }
          ],
          "internalType": "struct I8BallCueMinter.MintConfig",
          "name": "mintConfig",
          "type": "tuple"
        },
        {
          "components": [
            {
              "internalType": "uint256",
              "name": "duration",
              "type": "uint256"
            },
            {
              "internalType": "uint256",
              "name": "discount",
              "type": "uint256"
            }
          ],
          "internalType": "struct I8BallCueMinter.AllowlistConfig",
          "name": "allowlistConfig",
          "type": "tuple"
        },
        {
          "internalType": "bool",
          "name": "random",
          "type": "bool"
        },
        {
          "internalType": "bool",
          "name": "exists",
          "type": "bool"
        }
      ],
      "name": "addCollection",
      "outputs": [],
      "stateMutability": "nonpayable",
      "type": "function"
    },
    {
      "inputs": [
        {
          "internalType": "uint256",
          "name": "collectionId",
          "type": "uint256"
        },
        {
          "components": [
            {
              "internalType": "enum I8BallCommon.Rarity",
              "name": "rarity",
              "type": "uint8"
            },
            {
              "internalType": "uint256",
              "name": "id",
              "type": "uint256"
            },
            {
              "internalType": "uint256",
              "name": "remaining",
              "type": "uint256"
            },
            {
              "internalType": "string",
              "name": "name",
              "type": "string"
            }
          ],
          "internalType": "struct I8BallCommon.Design[]",
          "name": "designs",
          "type": "tuple[]"
        }
      ],
      "name": "addCollectionDesigns",
      "outputs": [],
      "stateMutability": "nonpayable",
      "type": "function"
    },
    {
      "inputs": [
        {
          "internalType": "address",
          "name": "wallet",
          "type": "address"
        },
        {
          "internalType": "uint256",
          "name": "_credits",
          "type": "uint256"
        }
      ],
      "name": "addCredits",
      "outputs": [],
      "stateMutability": "nonpayable",
      "type": "function"
    },
    {
      "inputs": [
        {
          "internalType": "uint256",
          "name": "collectionId",
          "type": "uint256"
        },
        {
          "internalType": "address[]",
          "name": "wallets",
          "type": "address[]"
        }
      ],
      "name": "addToCollectionAllowlist",
      "outputs": [],
      "stateMutability": "nonpayable",
      "type": "function"
    },
    {
      "inputs": [
        {
          "internalType": "uint256",
          "name": "collectionId",
          "type": "uint256"
        }
      ],
      "name": "buyRandomCue",
      "outputs": [],
      "stateMutability": "payable",
      "type": "function"
    },
    {
      "inputs": [
        {
          "internalType": "address",
          "name": "",
          "type": "address"
        }
      ],
      "name": "credits",
      "outputs": [
        {
          "internalType": "uint256",
          "name": "",
          "type": "uint256"
        }
      ],
      "stateMutability": "view",
      "type": "function"
    },
    {
      "inputs": [],
      "name": "cue",
      "outputs": [
        {
          "internalType": "address",
          "name": "",
          "type": "address"
        }
      ],
      "stateMutability": "view",
      "type": "function"
    },
    {
      "inputs": [
        {
          "internalType": "uint256",
          "name": "collectionId",
          "type": "uint256"
        }
      ],
      "name": "getCollectionAllowlist",
      "outputs": [
        {
          "internalType": "address[]",
          "name": "",
          "type": "address[]"
        }
      ],
      "stateMutability": "view",
      "type": "function"
    },
    {
      "inputs": [
        {
          "internalType": "uint256",
          "name": "collectionId",
          "type": "uint256"
        }
      ],
      "name": "getCollectionAllowlistConfig",
      "outputs": [
        {
          "components": [
            {
              "internalType": "uint256",
              "name": "duration",
              "type": "uint256"
            },
            {
              "internalType": "uint256",
              "name": "discount",
              "type": "uint256"
            }
          ],
          "internalType": "struct I8BallCueMinter.AllowlistConfig",
          "name": "",
          "type": "tuple"
        }
      ],
      "stateMutability": "view",
      "type": "function"
    },
    {
      "inputs": [
        {
          "internalType": "uint256",
          "name": "collectionId",
          "type": "uint256"
        },
        {
          "internalType": "uint256",
          "name": "designId",
          "type": "uint256"
        }
      ],
      "name": "getCollectionDesign",
      "outputs": [
        {
          "components": [
            {
              "internalType": "enum I8BallCommon.Rarity",
              "name": "rarity",
              "type": "uint8"
            },
            {
              "internalType": "uint256",
              "name": "remaining",
              "type": "uint256"
            }
          ],
          "internalType": "struct I8BallCueMinter.DesignBase",
          "name": "",
          "type": "tuple"
        }
      ],
      "stateMutability": "view",
      "type": "function"
    },
    {
      "inputs": [
        {
          "internalType": "uint256",
          "name": "collectionId",
          "type": "uint256"
        }
      ],
      "name": "getCollectionDesignIds",
      "outputs": [
        {
          "internalType": "uint256[]",
          "name": "",
          "type": "uint256[]"
        }
      ],
      "stateMutability": "view",
      "type": "function"
    },
    {
      "inputs": [],
      "name": "getCollectionIds",
      "outputs": [
        {
          "internalType": "uint256[]",
          "name": "",
          "type": "uint256[]"
        }
      ],
      "stateMutability": "view",
      "type": "function"
    },
    {
      "inputs": [
        {
          "internalType": "uint256",
          "name": "collectionId",
          "type": "uint256"
        }
      ],
      "name": "getCollectionMintConfig",
      "outputs": [
        {
          "components": [
            {
              "internalType": "uint256",
              "name": "startTime",
              "type": "uint256"
            },
            {
              "internalType": "uint256",
              "name": "price",
              "type": "uint256"
            }
          ],
          "internalType": "struct I8BallCueMinter.MintConfig",
          "name": "",
          "type": "tuple"
        }
      ],
      "stateMutability": "view",
      "type": "function"
    },
    {
      "inputs": [
        {
          "internalType": "uint256",
          "name": "collectionId",
          "type": "uint256"
        }
      ],
      "name": "getCollectionRandom",
      "outputs": [
        {
          "internalType": "bool",
          "name": "",
          "type": "bool"
        }
      ],
      "stateMutability": "view",
      "type": "function"
    },
    {
      "inputs": [
        {
          "internalType": "uint256",
          "name": "collectionId",
          "type": "uint256"
        }
      ],
      "name": "getCollectionRoyaltyConfig",
      "outputs": [
        {
          "components": [
            {
              "internalType": "address",
              "name": "treasury",
              "type": "address"
            },
            {
              "internalType": "uint256",
              "name": "basisPoints",
              "type": "uint256"
            }
          ],
          "internalType": "struct I8BallCueMinter.RoyaltyConfig",
          "name": "",
          "type": "tuple"
        }
      ],
      "stateMutability": "view",
      "type": "function"
    },
    {
      "inputs": [
        {
          "internalType": "uint256",
          "name": "collectionId",
          "type": "uint256"
        }
      ],
      "name": "getMintPrice",
      "outputs": [
        {
          "internalType": "uint256",
          "name": "",
          "type": "uint256"
        }
      ],
      "stateMutability": "view",
      "type": "function"
    },
    {
      "inputs": [
        {
          "internalType": "bytes32",
          "name": "role",
          "type": "bytes32"
        }
      ],
      "name": "getRoleAdmin",
      "outputs": [
        {
          "internalType": "bytes32",
          "name": "",
          "type": "bytes32"
        }
      ],
      "stateMutability": "view",
      "type": "function"
    },
    {
      "inputs": [
        {
          "internalType": "bytes32",
          "name": "role",
          "type": "bytes32"
        },
        {
          "internalType": "uint256",
          "name": "index",
          "type": "uint256"
        }
      ],
      "name": "getRoleMember",
      "outputs": [
        {
          "internalType": "address",
          "name": "",
          "type": "address"
        }
      ],
      "stateMutability": "view",
      "type": "function"
    },
    {
      "inputs": [
        {
          "internalType": "bytes32",
          "name": "role",
          "type": "bytes32"
        }
      ],
      "name": "getRoleMemberCount",
      "outputs": [
        {
          "internalType": "uint256",
          "name": "",
          "type": "uint256"
        }
      ],
      "stateMutability": "view",
      "type": "function"
    },
    {
      "inputs": [
        {
          "internalType": "bytes32",
          "name": "role",
          "type": "bytes32"
        },
        {
          "internalType": "address",
          "name": "account",
          "type": "address"
        }
      ],
      "name": "grantRole",
      "outputs": [],
      "stateMutability": "nonpayable",
      "type": "function"
    },
    {
      "inputs": [
        {
          "internalType": "bytes32",
          "name": "role",
          "type": "bytes32"
        },
        {
          "internalType": "address",
          "name": "account",
          "type": "address"
        }
      ],
      "name": "hasRole",
      "outputs": [
        {
          "internalType": "bool",
          "name": "",
          "type": "bool"
        }
      ],
      "stateMutability": "view",
      "type": "function"
    },
    {
      "inputs": [],
      "name": "initialize",
      "outputs": [],
      "stateMutability": "nonpayable",
      "type": "function"
    },
    {
      "inputs": [
        {
          "internalType": "uint256",
          "name": "collectionId",
          "type": "uint256"
        },
        {
          "internalType": "address",
          "name": "wallet",
          "type": "address"
        }
      ],
      "name": "isAllowlisted",
      "outputs": [
        {
          "internalType": "bool",
          "name": "",
          "type": "bool"
        }
      ],
      "stateMutability": "view",
      "type": "function"
    },
    {
      "inputs": [],
      "name": "mintRandomCue",
      "outputs": [],
      "stateMutability": "nonpayable",
      "type": "function"
    },
    {
      "inputs": [
        {
          "internalType": "uint256",
          "name": "collectionId",
          "type": "uint256"
        },
        {
          "internalType": "uint256",
          "name": "designId",
          "type": "uint256"
        }
      ],
      "name": "mintSpecificCue",
      "outputs": [],
      "stateMutability": "payable",
      "type": "function"
    },
    {
      "inputs": [],
      "name": "pause",
      "outputs": [],
      "stateMutability": "nonpayable",
      "type": "function"
    },
    {
      "inputs": [],
      "name": "paused",
      "outputs": [
        {
          "internalType": "bool",
          "name": "",
          "type": "bool"
        }
      ],
      "stateMutability": "view",
      "type": "function"
    },
    {
      "inputs": [],
      "name": "proxiableUUID",
      "outputs": [
        {
          "internalType": "bytes32",
          "name": "",
          "type": "bytes32"
        }
      ],
      "stateMutability": "view",
      "type": "function"
    },
    {
      "inputs": [
        {
          "internalType": "uint256",
          "name": "requestId",
          "type": "uint256"
        },
        {
          "internalType": "uint256[]",
          "name": "randomWords",
          "type": "uint256[]"
        }
      ],
      "name": "rawFulfillRandomWords",
      "outputs": [],
      "stateMutability": "nonpayable",
      "type": "function"
    },
    {
      "inputs": [
        {
          "internalType": "address",
          "name": "wallet",
          "type": "address"
        },
        {
          "internalType": "uint256",
          "name": "_credits",
          "type": "uint256"
        }
      ],
      "name": "removeCredits",
      "outputs": [],
      "stateMutability": "nonpayable",
      "type": "function"
    },
    {
      "inputs": [
        {
          "internalType": "uint256",
          "name": "collectionId",
          "type": "uint256"
        },
        {
          "internalType": "address[]",
          "name": "wallets",
          "type": "address[]"
        }
      ],
      "name": "removeFromCollectionAllowlist",
      "outputs": [],
      "stateMutability": "nonpayable",
      "type": "function"
    },
    {
      "inputs": [
        {
          "internalType": "bytes32",
          "name": "role",
          "type": "bytes32"
        },
        {
          "internalType": "address",
          "name": "account",
          "type": "address"
        }
      ],
      "name": "renounceRole",
      "outputs": [],
      "stateMutability": "nonpayable",
      "type": "function"
    },
    {
      "inputs": [
        {
          "internalType": "address",
          "name": "requester",
          "type": "address"
        }
      ],
      "name": "requestOf",
      "outputs": [
        {
          "components": [
            {
              "internalType": "uint256",
              "name": "id",
              "type": "uint256"
            },
            {
              "internalType": "uint256[]",
              "name": "links",
              "type": "uint256[]"
            },
            {
              "internalType": "uint256[]",
              "name": "words",
              "type": "uint256[]"
            }
          ],
          "internalType": "struct IChainlinkVRFConsumer.Request",
          "name": "",
          "type": "tuple"
        }
      ],
      "stateMutability": "view",
      "type": "function"
    },
    {
      "inputs": [
        {
          "internalType": "bytes32",
          "name": "role",
          "type": "bytes32"
        },
        {
          "internalType": "address",
          "name": "account",
          "type": "address"
        }
      ],
      "name": "revokeRole",
      "outputs": [],
      "stateMutability": "nonpayable",
      "type": "function"
    },
    {
      "inputs": [
        {
          "internalType": "uint256",
          "name": "collectionId",
          "type": "uint256"
        },
        {
          "components": [
            {
              "internalType": "uint256",
              "name": "duration",
              "type": "uint256"
            },
            {
              "internalType": "uint256",
              "name": "discount",
              "type": "uint256"
            }
          ],
          "internalType": "struct I8BallCueMinter.AllowlistConfig",
          "name": "config",
          "type": "tuple"
        }
      ],
      "name": "setCollectionAllowlistConfig",
      "outputs": [],
      "stateMutability": "nonpayable",
      "type": "function"
    },
    {
      "inputs": [
        {
          "internalType": "uint256",
          "name": "collectionId",
          "type": "uint256"
        },
        {
          "components": [
            {
              "internalType": "uint256",
              "name": "startTime",
              "type": "uint256"
            },
            {
              "internalType": "uint256",
              "name": "price",
              "type": "uint256"
            }
          ],
          "internalType": "struct I8BallCueMinter.MintConfig",
          "name": "config",
          "type": "tuple"
        }
      ],
      "name": "setCollectionMintConfig",
      "outputs": [],
      "stateMutability": "nonpayable",
      "type": "function"
    },
    {
      "inputs": [
        {
          "internalType": "uint256",
          "name": "collectionId",
          "type": "uint256"
        },
        {
          "internalType": "bool",
          "name": "random",
          "type": "bool"
        }
      ],
      "name": "setCollectionRandom",
      "outputs": [],
      "stateMutability": "nonpayable",
      "type": "function"
    },
    {
      "inputs": [
        {
          "internalType": "uint256",
          "name": "collectionId",
          "type": "uint256"
        },
        {
          "components": [
            {
              "internalType": "address",
              "name": "treasury",
              "type": "address"
            },
            {
              "internalType": "uint256",
              "name": "basisPoints",
              "type": "uint256"
            }
          ],
          "internalType": "struct I8BallCueMinter.RoyaltyConfig",
          "name": "config",
          "type": "tuple"
        }
      ],
      "name": "setCollectionRoyaltyConfig",
      "outputs": [],
      "stateMutability": "nonpayable",
      "type": "function"
    },
    {
      "inputs": [
        {
          "internalType": "uint256",
          "name": "value",
          "type": "uint256"
        }
      ],
      "name": "setCounter",
      "outputs": [],
      "stateMutability": "nonpayable",
      "type": "function"
    },
    {
      "inputs": [
        {
          "internalType": "address",
          "name": "_cue",
          "type": "address"
        }
      ],
      "name": "setCue",
      "outputs": [],
      "stateMutability": "nonpayable",
      "type": "function"
    },
    {
      "inputs": [
        {
          "internalType": "address",
          "name": "_treasury",
          "type": "address"
        }
      ],
      "name": "setTreasury",
      "outputs": [],
      "stateMutability": "nonpayable",
      "type": "function"
    },
    {
      "inputs": [
        {
          "internalType": "bytes4",
          "name": "interfaceId",
          "type": "bytes4"
        }
      ],
      "name": "supportsInterface",
      "outputs": [
        {
          "internalType": "bool",
          "name": "",
          "type": "bool"
        }
      ],
      "stateMutability": "view",
      "type": "function"
    },
    {
      "inputs": [],
      "name": "treasury",
      "outputs": [
        {
          "internalType": "address",
          "name": "",
          "type": "address"
        }
      ],
      "stateMutability": "view",
      "type": "function"
    },
    {
      "inputs": [],
      "name": "unpause",
      "outputs": [],
      "stateMutability": "nonpayable",
      "type": "function"
    },
    {
      "inputs": [
        {
          "internalType": "uint256",
          "name": "tokenId",
          "type": "uint256"
        },
        {
          "internalType": "uint256",
          "name": "power",
          "type": "uint256"
        },
        {
          "internalType": "uint256",
          "name": "accuracy",
          "type": "uint256"
        },
        {
          "internalType": "uint256",
          "name": "spin",
          "type": "uint256"
        },
        {
          "internalType": "uint256",
          "name": "time",
          "type": "uint256"
        }
      ],
      "name": "upgradeCue",
      "outputs": [],
      "stateMutability": "payable",
      "type": "function"
    },
    {
      "inputs": [],
      "name": "upgradePrice",
      "outputs": [
        {
          "internalType": "uint256",
          "name": "",
          "type": "uint256"
        }
      ],
      "stateMutability": "view",
      "type": "function"
    },
    {
      "inputs": [
        {
          "internalType": "address",
          "name": "newImplementation",
          "type": "address"
        }
      ],
      "name": "upgradeTo",
      "outputs": [],
      "stateMutability": "nonpayable",
      "type": "function"
    },
    {
      "inputs": [
        {
          "internalType": "address",
          "name": "newImplementation",
          "type": "address"
        },
        {
          "internalType": "bytes",
          "name": "data",
          "type": "bytes"
        }
      ],
      "name": "upgradeToAndCall",
      "outputs": [],
      "stateMutability": "payable",
      "type": "function"
    }
  ],
  "bytecode": "0x60a0604052306080523480156200001557600080fd5b506200002062000026565b620000e8565b600054610100900460ff1615620000935760405162461bcd60e51b815260206004820152602760248201527f496e697469616c697a61626c653a20636f6e747261637420697320696e697469604482015266616c697a696e6760c81b606482015260840160405180910390fd5b60005460ff9081161015620000e6576000805460ff191660ff9081179091556040519081527f7f26b83ff96e1f2b6a682f133852f6798a09c465da95921460cefb38474024989060200160405180910390a15b565b608051614c726200012060003960008181610c4d01528181610c8d01528181610eeb01528181610f2b0152610fba0152614c726000f3fe6080604052600436106102ae5760003560e01c80636f4cf76e11610175578063be541213116100dc578063e0072ada11610095578063fa0523ce1161006f578063fa0523ce14610883578063fa490592146108a3578063fd2de539146108b6578063fe5ff468146108d657600080fd5b8063e0072ada1461083b578063f031bc111461084e578063f0f442601461086357600080fd5b8063be5412131461076e578063bec780e01461078e578063ca15c873146107ae578063cba9e373146107ce578063cfc3b6e6146107ee578063d547741f1461081b57600080fd5b80638bb5d9c31161012e5780638bb5d9c3146106b75780639010d07c146106d757806391d14854146106f757806395947c9d14610717578063a217fddf14610744578063aff3a7851461075957600080fd5b80636f4cf76e1461060057806377c9e8d01461062057806379e2e31c146106405780638129fc1c1461066d5780638456cb5914610682578063871ff4051461069757600080fd5b806337f83afd116102195780635679a559116101d25780635679a5591461053a57806356a73ab21461055a5780635c975abb1461057a57806361d027b31461059257806364bf5344146105b3578063670216dd146105e057600080fd5b806337f83afd146104aa5780633f4ba83a146104bd57806341540b2c146104d25780634f1ef286146104f257806352d1902d14610505578063559e775b1461051a57600080fd5b8063287ad39f1161026b578063287ad39f146103da578063298dd1bb146103f15780632f2ff15d1461042a57806336568abe1461044a5780633659cfe61461046a578063368da1681461048a57600080fd5b806301ffc9a7146102b35780630bca773c146102e857806312615d261461030a5780631430bc51146103375780631fe543e31461037b578063248a9ca31461039b575b600080fd5b3480156102bf57600080fd5b506102d36102ce366004613eb9565b610904565b60405190151581526020015b60405180910390f35b3480156102f457600080fd5b50610308610303366004613efb565b61092f565b005b34801561031657600080fd5b5061032a610325366004613f28565b610a5e565b6040516102df9190613f41565b34801561034357600080fd5b50610357610352366004613f28565b610aa3565b6040805182516001600160a01b0316815260209283015192810192909252016102df565b34801561038757600080fd5b50610308610396366004613fcc565b610b16565b3480156103a757600080fd5b506103cc6103b6366004613f28565b600090815261012d602052604090206001015490565b6040519081526020016102df565b3480156103e657600080fd5b506103cc6102275481565b3480156103fd57600080fd5b5061022654610412906001600160a01b031681565b6040516001600160a01b0390911681526020016102df565b34801561043657600080fd5b50610308610445366004614093565b610b9e565b34801561045657600080fd5b50610308610465366004614093565b610bc9565b34801561047657600080fd5b506103086104853660046140c3565b610c43565b34801561049657600080fd5b506103086104a53660046140e0565b610d22565b6103086104b8366004613f28565b610da8565b3480156104c957600080fd5b50610308610e73565b3480156104de57600080fd5b506102d36104ed366004614093565b610e94565b61030861050036600461410c565b610ee1565b34801561051157600080fd5b506103cc610fad565b34801561052657600080fd5b506103cc610535366004613f28565b611060565b34801561054657600080fd5b50610308610555366004614200565b6110d9565b34801561056657600080fd5b5061030861057536600461425c565b611195565b34801561058657600080fd5b5060335460ff166102d3565b34801561059e57600080fd5b5061022554610412906001600160a01b031681565b3480156105bf57600080fd5b506105d36105ce36600461431e565b6112c8565b6040516102df9190614378565b3480156105ec57600080fd5b506103086105fb366004614200565b6113e0565b34801561060c57600080fd5b506102d361061b366004613f28565b61149c565b34801561062c57600080fd5b5061030861063b366004613efb565b6114e0565b34801561064c57600080fd5b5061066061065b3660046140c3565b6115f8565b6040516102df91906143d4565b34801561067957600080fd5b50610308611753565b34801561068e57600080fd5b50610308611909565b3480156106a357600080fd5b506103086106b23660046140e0565b611928565b3480156106c357600080fd5b506103086106d2366004613f28565b6119b5565b3480156106e357600080fd5b506104126106f236600461431e565b6119d2565b34801561070357600080fd5b506102d3610712366004614093565b6119eb565b34801561072357600080fd5b50610737610732366004613f28565b611a17565b6040516102df9190614417565b34801561075057600080fd5b506103cc600081565b34801561076557600080fd5b5061032a611a81565b34801561077a57600080fd5b506103086107893660046140c3565b611a93565b34801561079a57600080fd5b506103086107a9366004613efb565b611acd565b3480156107ba57600080fd5b506103cc6107c9366004613f28565b611b9c565b3480156107da57600080fd5b506103086107e936600461442e565b611bb4565b3480156107fa57600080fd5b5061080e610809366004613f28565b611c17565b6040516102df9190614451565b34801561082757600080fd5b50610308610836366004614093565b611c5c565b610308610849366004614492565b611c82565b34801561085a57600080fd5b50610308611f7b565b34801561086f57600080fd5b5061030861087e3660046140c3565b6120df565b34801561088f57600080fd5b5061073761089e366004613f28565b61219d565b6103086108b136600461431e565b612204565b3480156108c257600080fd5b506103086108d1366004614200565b612326565b3480156108e257600080fd5b506103cc6108f13660046140c3565b61022c6020526000908152604090205481565b6000632165eccb60e21b6001600160e01b031983161480610929575061092982612515565b92915050565b610946600080516020614c1d83398151915261253a565b61095261022883612544565b6109775760405162461bcd60e51b815260040161096e906144cd565b60405180910390fd5b428135116109d65760405162461bcd60e51b815260206004820152602660248201527f3842616c6c4375654d696e7465723a3a496e76616c6964206d696e7420737461604482015265727454696d6560d01b606482015260840161096e565b6000816020013511610a355760405162461bcd60e51b815260206004820152602260248201527f3842616c6c4375654d696e7465723a3a496e76616c6964206d696e7420707269604482015261636560f01b606482015260840161096e565b600082815261022a602090815260409091208235815590820135600182015581815b5050505050565b6060610a6c61022883612544565b610a885760405162461bcd60e51b815260040161096e906144cd565b600082815261022a602052604090206109299060080161255c565b6040805180820190915260008082526020820152610ac361022883612544565b610adf5760405162461bcd60e51b815260040161096e906144cd565b50600090815261022a6020908152604091829020825180840190935260068101546001600160a01b03168352600701549082015290565b6101bf546001600160a01b03163314610b905760405162461bcd60e51b815260206004820152603660248201527f436861696e6c696e6b565246436f6e73756d6572426173653a3a4f6e6c7920636044820152751bdbdc991a5b985d1bdc8818d85b88199d5b199a5b1b60521b606482015260840161096e565b610b9a8282612569565b5050565b600082815261012d6020526040902060010154610bba8161253a565b610bc483836125b8565b505050565b6001600160a01b0381163314610c395760405162461bcd60e51b815260206004820152602f60248201527f416363657373436f6e74726f6c3a2063616e206f6e6c792072656e6f756e636560448201526e103937b632b9903337b91039b2b63360891b606482015260840161096e565b610b9a82826125db565b6001600160a01b037f0000000000000000000000000000000000000000000000000000000000000000163003610c8b5760405162461bcd60e51b815260040161096e90614516565b7f00000000000000000000000000000000000000000000000000000000000000006001600160a01b0316610cd4600080516020614bd6833981519152546001600160a01b031690565b6001600160a01b031614610cfa5760405162461bcd60e51b815260040161096e90614562565b610d03816125fe565b60408051600080825260208201909252610d1f91839190612615565b50565b610d39600080516020614c1d83398151915261253a565b6001600160a01b038216600090815261022c6020526040902054811115610d7657506001600160a01b0316600090815261022c6020526040812055565b6001600160a01b038216600090815261022c602052604081208054839290610d9f9084906145c4565b90915550505050565b610db0612780565b610db86127c6565b610dc18161281f565b60408051600380825260808201909252600091602082016060803683370190505090508181600081518110610df857610df86145d7565b602002602001018181525050610e0c612929565b81600181518110610e1f57610e1f6145d7565b602002602001018181525050610e348261294c565b81600281518110610e4757610e476145d7565b602002602001018181525050610e5f33600183612b48565b610e688261281f565b50610d1f600160c955565b610e8a600080516020614c1d83398151915261253a565b610e92612cd4565b565b6000610ea261022884612544565b610ebe5760405162461bcd60e51b815260040161096e906144cd565b600083815261022a60205260409020610eda9060040183612d26565b9392505050565b6001600160a01b037f0000000000000000000000000000000000000000000000000000000000000000163003610f295760405162461bcd60e51b815260040161096e90614516565b7f00000000000000000000000000000000000000000000000000000000000000006001600160a01b0316610f72600080516020614bd6833981519152546001600160a01b031690565b6001600160a01b031614610f985760405162461bcd60e51b815260040161096e90614562565b610fa1826125fe565b610b9a82826001612615565b6000306001600160a01b037f0000000000000000000000000000000000000000000000000000000000000000161461104d5760405162461bcd60e51b815260206004820152603860248201527f555550535570677261646561626c653a206d757374206e6f742062652063616c60448201527f6c6564207468726f7567682064656c656761746563616c6c0000000000000000606482015260840161096e565b50600080516020614bd683398151915290565b600081815261022a6020526040812060028101548154839291429161108591906145ed565b11156110c1576110986004820133612d26565b156110c15760038101546001820154612710916110b491614600565b6110be9190614635565b91505b60018101546110d19083906145c4565b949350505050565b6110f0600080516020614c1d83398151915261253a565b6110fc61022884612544565b6111185760405162461bcd60e51b815260040161096e906144cd565b806111355760405162461bcd60e51b815260040161096e90614649565b600083815261022a60205260408120905b82811015610a5757611182848483818110611163576111636145d7565b905060200201602081019061117891906140c3565b6004840190612d48565b508061118d8161468a565b915050611146565b6111ac600080516020614c1d83398151915261253a565b6111b861022888612d5d565b6112135760405162461bcd60e51b815260206004820152602660248201527f3842616c6c4375654d696e7465723a3a4578697374696e6720636f6c6c6563746044820152651a5bdb88125160d21b606482015260840161096e565b600087815261022a602090815260409091208535815585820135600182015584356002820155908401356003820155600b8101805460ff1916841515179055816112be576102265460405162a4bcfb60e11b81526001600160a01b039091169063014979f69061128b908b908b908b906004016146cc565b600060405180830381600087803b1580156112a557600080fd5b505af11580156112b9573d6000803e3d6000fd5b505050505b5050505050505050565b60408051808201909152600080825260208201526112e861022884612544565b6113045760405162461bcd60e51b815260040161096e906144cd565b600083815261022a602052604090206113206008820184612544565b6113865760405162461bcd60e51b815260206004820152603160248201527f3842616c6c4375654d696e7465723a3a4e6f6e2d6578697374656e74206f72206044820152701cdbdb190b5bdd5d0819195cda59db9259607a1b606482015260840161096e565b6000838152600a820160205260409081902081518083019092528054829060ff1660048111156113b8576113b8614340565b60048111156113c9576113c9614340565b815260200160018201548152505091505092915050565b6113f7600080516020614c1d83398151915261253a565b61140361022884612544565b61141f5760405162461bcd60e51b815260040161096e906144cd565b8061143c5760405162461bcd60e51b815260040161096e90614649565b600083815261022a60205260408120905b82811015610a575761148984848381811061146a5761146a6145d7565b905060200201602081019061147f91906140c3565b6004840190612d69565b50806114948161468a565b91505061144d565b60006114aa61022883612544565b6114c65760405162461bcd60e51b815260040161096e906144cd565b50600090815261022a60205260409020600b015460ff1690565b6114f7600080516020614c1d83398151915261253a565b61150361022883612544565b61151f5760405162461bcd60e51b815260040161096e906144cd565b602081013515801561153057508035155b8061154957506020810135158015906115495750803515155b6115655760405162461bcd60e51b815260040161096e906146e6565b6127108160200135106115cd5760405162461bcd60e51b815260206004820152602a60248201527f3842616c6c4375654d696e7465723a3a496e76616c696420616c6c6f776c69736044820152691d08191a5cd8dbdd5b9d60b21b606482015260840161096e565b600082815261022a602052604090208160028201610a57828281358155602082013560018201555050565b61161c60405180606001604052806000815260200160608152602001606081525090565b6116286101f583612d26565b6116745760405162461bcd60e51b815260206004820181905260248201527f436861696e6c696e6b565246436f6e73756d65723a3a4e6f2072657175657374604482015260640161096e565b6001600160a01b03821660009081526101f46020908152604091829020825160608101845281548152600182018054855181860281018601909652808652919492938581019392908301828280156116eb57602002820191906000526020600020905b8154815260200190600101908083116116d7575b505050505081526020016002820180548060200260200160405190810160405280929190818152602001828054801561174357602002820191906000526020600020905b81548152602001906001019080831161172f575b5050505050815250509050919050565b600054610100900460ff16158080156117735750600054600160ff909116105b8061178d5750303b15801561178d575060005460ff166001145b6117f05760405162461bcd60e51b815260206004820152602e60248201527f496e697469616c697a61626c653a20636f6e747261637420697320616c72656160448201526d191e481a5b9a5d1a585b1a5e995960921b606482015260840161096e565b6000805460ff191660011790558015611813576000805461ff0019166101001790555b61181b612d7e565b611823612dad565b61182b612ea7565b611833612ece565b61183b612ea7565b61187e732ed832ba664535e5886b75d64c46eb9a228c26107f354d2f95da55398f44b7cff77da56283d9c6c829a4bdf1bbcaf2ad6a4d081f6161020e6001612efd565b6706f05b59d3b200006102275561022680546001600160a01b03191673cd9df581f855d07144f150b0c6818245480086441790556118c161022b80546001019055565b8015610d1f576000805461ff0019169055604051600181527f7f26b83ff96e1f2b6a682f133852f6798a09c465da95921460cefb38474024989060200160405180910390a150565b611920600080516020614c1d83398151915261253a565b610e92612f89565b61193f600080516020614c1d83398151915261253a565b6001600160a01b038216600090815261022c60205260409020546064906119679083906145ed565b111561198c57506001600160a01b0316600090815261022c6020526040902060649055565b6001600160a01b038216600090815261022c602052604081208054839290610d9f9084906145ed565b6119cc600080516020614c1d83398151915261253a565b61022b55565b600082815261015f60205260408120610eda9083612fc6565b600091825261012d602090815260408084206001600160a01b0393909316845291905290205460ff1690565b6040805180820190915260008082526020820152611a3761022883612544565b611a535760405162461bcd60e51b815260040161096e906144cd565b50600090815261022a6020908152604091829020825180840190935260028101548352600301549082015290565b6060611a8e61022861255c565b905090565b611aaa600080516020614c1d83398151915261253a565b61022680546001600160a01b0319166001600160a01b0392909216919091179055565b611ae4600080516020614c1d83398151915261253a565b611af061022883612544565b611b0c5760405162461bcd60e51b815260040161096e906144cd565b6020810135158015611b3357506000611b2860208301836140c3565b6001600160a01b0316145b80611b625750602081013515801590611b6257506000611b5660208301836140c3565b6001600160a01b031614155b611b7e5760405162461bcd60e51b815260040161096e906146e6565b600082815261022a602052604090208160068201610a57828261472c565b600081815261015f6020526040812061092990612fd2565b611bcb600080516020614c1d83398151915261253a565b611bd761022883612544565b611bf35760405162461bcd60e51b815260040161096e906144cd565b600091825261022a6020526040909120600b01805460ff1916911515919091179055565b6060611c2561022883612544565b611c415760405162461bcd60e51b815260040161096e906144cd565b600082815261022a602052604090206109299060040161255c565b600082815261012d6020526040902060010154611c788161253a565b610bc483836125db565b611c8a612780565b611c926127c6565b610226546040516334985b9960e01b8152600481018790526001600160a01b039091169060009082906334985b999060240160e060405180830381865afa158015611ce1573d6000803e3d6000fd5b505050506040513d601f19601f82011682018060405250810190611d05919061476f565b905060008082516004811115611d1d57611d1d614340565b14611d455781516004811115611d3557611d35614340565b611d409060066145ed565b611d48565b60055b90506000610227548587898b611d5e91906145ed565b611d6891906145ed565b611d7291906145ed565b611d7c9190614600565b905080341015611d9e5760405162461bcd60e51b815260040161096e906147fc565b610225546040516001600160a01b039091169082156108fc029083906000818181858888f19350505050158015611dd9573d6000803e3d6000fd5b508783606001818151611dec91906145ed565b905250608083018051889190611e039083906145ed565b90525060a083018051879190611e1a9083906145ed565b90525060c083018051869190611e319083906145ed565b90525060608301518210801590611e4c575081836080015111155b8015611e5c5750818360a0015111155b8015611e6c5750818360c0015111155b611ec85760405162461bcd60e51b815260206004820152602760248201527f3842616c6c4375654d696e7465723a3a496e76616c6964207570677261646520604482015266616d6f756e747360c81b606482015260840161096e565b604051637ec0722d60e11b81526001600160a01b0385169063fd80e45a90611ef89033908d908890600401614840565b600060405180830381600087803b158015611f1257600080fd5b505af1158015611f26573d6000803e3d6000fd5b505050602084015184516040513393507f5cfa1078ee34a46e31f28532801a74fda1a0cd45b83f4c78c7fbb24abec85e4192611f65928e9287906148ae565b60405180910390a250505050610a57600160c955565b611f83612780565b611f8b6127c6565b600080611f9733612fdc565b915091506000825111611ffd5760405162461bcd60e51b815260206004820152602860248201527f3842616c6c4375654d696e7465723a3a52657175657374206973207374696c6c6044820152672070656e64696e6760c01b606482015260840161096e565b600061207682600081518110612015576120156145d7565b602002602001015161205661022a600086600081518110612038576120386145d7565b6020026020010151815260200190815260200160002060080161255c565b85600081518110612069576120696145d7565b6020026020010151613150565b90506120d28260008151811061208e5761208e6145d7565b602002602001015182846002815181106120aa576120aa6145d7565b6020026020010151856001815181106120c5576120c56145d7565b60200260200101516132fb565b505050610e92600160c955565b6120f6600080516020614c1d83398151915261253a565b6001600160a01b0381161580159061211d5750610225546001600160a01b03828116911614155b61217a5760405162461bcd60e51b815260206004820152602860248201527f3842616c6c4375654d696e7465723a3a496e76616c6964207472656173757279604482015267206164647265737360c01b606482015260840161096e565b61022580546001600160a01b0319166001600160a01b0392909216919091179055565b60408051808201909152600080825260208201526121bd61022883612544565b6121d95760405162461bcd60e51b815260040161096e906144cd565b50600090815261022a6020908152604091829020825180840190935280548352600101549082015290565b61220c612780565b6122146127c6565b61221d8261281f565b600082815261022a60205260409020600b015460ff16156122995760405162461bcd60e51b815260206004820152603060248201527f3842616c6c4375654d696e7465723a3a496e76616c696420737065636966696360448201526f1036b4b73a1031b7b63632b1ba34b7b760811b606482015260840161096e565b600082815261022a602052604090206122b59060080182612544565b6123015760405162461bcd60e51b815260206004820181905260248201527f3842616c6c4375654d696e7465723a3a496e76616c69642064657369676e4964604482015260640161096e565b61231c828261230f8561294c565b612317612929565b6132fb565b610b9a600160c955565b61233d600080516020614c1d83398151915261253a565b61234961022884612544565b6123655760405162461bcd60e51b815260040161096e906144cd565b600083815261022a60205260408120905b828110156124b1576123b3848483818110612393576123936145d7565b90506020028101906123a591906148d8565b600884019060200135612d5d565b5060405180604001604052808585848181106123d1576123d16145d7565b90506020028101906123e391906148d8565b6123f19060208101906148f8565b600481111561240257612402614340565b8152602001858584818110612419576124196145d7565b905060200281019061242b91906148d8565b604001359052600a83016000868685818110612449576124496145d7565b905060200281019061245b91906148d8565b602090810135825281019190915260400160002081518154829060ff1916600183600481111561248d5761248d614340565b021790555060209190910151600190910155806124a98161468a565b915050612376565b506102265460405163fd2de53960e01b81526001600160a01b039091169063fd2de539906124e790879087908790600401614915565b600060405180830381600087803b15801561250157600080fd5b505af11580156112be573d6000803e3d6000fd5b60006001600160e01b03198216631e78b8c760e21b1480610929575061092982613452565b610d1f8133613477565b60008181526001830160205260408120541515610eda565b60606000610eda836134d0565b60006125776101f78461352c565b6001600160a01b03811660009081526101f4602090815260409091208451929350916125ab91600284019190860190613e3f565b50610a576101f785613538565b6125c28282613544565b600082815261015f60205260409020610bc49082612d69565b6125e582826135cb565b600082815261015f60205260409020610bc49082612d48565b610d1f600080516020614c1d83398151915261253a565b7f4910fdfa16fed3260ed0e7147f7cc6da11a60208b5b9406d12a635614ffd91435460ff161561264857610bc483613633565b826001600160a01b03166352d1902d6040518163ffffffff1660e01b8152600401602060405180830381865afa9250505080156126a2575060408051601f3d908101601f1916820190925261269f91810190614a09565b60015b6127055760405162461bcd60e51b815260206004820152602e60248201527f45524331393637557067726164653a206e657720696d706c656d656e7461746960448201526d6f6e206973206e6f74205555505360901b606482015260840161096e565b600080516020614bd683398151915281146127745760405162461bcd60e51b815260206004820152602960248201527f45524331393637557067726164653a20756e737570706f727465642070726f786044820152681a58589b195555525160ba1b606482015260840161096e565b50610bc48383836136cf565b60335460ff1615610e925760405162461bcd60e51b815260206004820152601060248201526f14185d5cd8589b194e881c185d5cd95960821b604482015260640161096e565b600260c954036128185760405162461bcd60e51b815260206004820152601f60248201527f5265656e7472616e637947756172643a207265656e7472616e742063616c6c00604482015260640161096e565b600260c955565b61282b61022882612544565b6128475760405162461bcd60e51b815260040161096e906144cd565b600081815261022a6020526040902054421015806128695750612869336136fa565b6128c15760405162461bcd60e51b8152602060048201526024808201527f3842616c6c4375654d696e7465723a3a4d696e7420686173206e6f74207374616044820152631c9d195960e21b606482015260840161096e565b600081815261022a602052604081206128dc90600801612fd2565b11610d1f5760405162461bcd60e51b815260206004820152601860248201527f3842616c6c4375654d696e7465723a3a536f6c64206f75740000000000000000604482015260640161096e565b60008061293661022b5490565b905061294761022b80546001019055565b919050565b33600090815261022c60205260408120541561298b5733600090815261022c6020526040812080549161297e83614a22565b9091555060009392505050565b600061299683611060565b905080348111156129b95760405162461bcd60e51b815260040161096e906147fc565b600084815261022a6020526040902060060180546001600160a01b031615612b035760006127108260010154856129f09190614600565b6129fa9190614635565b9050612a0681846145c4565b610225546040519194506000916001600160a01b039091169083908381818185875af1925050503d8060008114612a59576040519150601f19603f3d011682016040523d82523d6000602084013e612a5e565b606091505b505090508015612ab657825460408051898152602081018590526001600160a01b039092169133917f98ffdf4f5be5af8de356ea9db372549d2182650280d5234acb94a9955e788c56910160405180910390a3612b00565b825460408051898152602081018590526001600160a01b039092169133917f820d26b4d2455e90e3d3f84dc019d6873705f91d9ec310888cc6357f0914988d910160405180910390a35b50505b610225546040516001600160a01b039091169083156108fc029084906000818181858888f19350505050158015612b3e573d6000803e3d6000fd5b5091949350505050565b612b546101f584612d26565b15612bb05760405162461bcd60e51b815260206004820152602660248201527f436861696e6c696e6b565246436f6e73756d65723a3a4578697374696e672072604482015265195c5d595cdd60d21b606482015260840161096e565b6000612bbe83614e20614a39565b612bcb90620186a0614a65565b6001600160a01b0385811660009081526101f46020526040908190206101f1546101f2546101f35493516305d3b1d360e41b8152600481019190915267ffffffffffffffff84166024820152600160401b90930461ffff16604484015263ffffffff8086166064850152881660848401529394509290911690635d3b1d309060a4016020604051808303816000875af1158015612c6c573d6000803e3d6000fd5b505050506040513d601f19601f82011682018060405250810190612c909190614a09565b81558251612ca79060018301906020860190613e3f565b50612cb46101f586612d69565b508054612cc5906101f79087613714565b505050505050565b600160c955565b612cdc61372a565b6033805460ff191690557f5db9ee0a495bf2e6ff9c91a7834c1ba4fdd244a5e8aa4e537bd38aeae4b073aa335b6040516001600160a01b03909116815260200160405180910390a1565b6001600160a01b03811660009081526001830160205260408120541515610eda565b6000610eda836001600160a01b038416613773565b6000610eda838361386d565b6000610eda836001600160a01b03841661386d565b600054610100900460ff16612da55760405162461bcd60e51b815260040161096e90614a82565b610e926138bc565b600054610100900460ff16612dd45760405162461bcd60e51b815260040161096e90614a82565b612ddc612ea7565b612de76000336125b8565b612dff600080516020614c1d833981519152336125b8565b612e297f364d3d7565c7a8300c96fd53e065d19b65848d7b23b3191adcd55621c744223c336125b8565b612e537f9f2df0fed2c77648de5860a4cc508cd0818c85b8b8a1ab4ceeef8d981c8956a6336125b8565b612e7d7ff18b77e1ef402111bacb54bd5e03494cbdba92fbd1bd3bbcc1ce77e69b42ea6c336125b8565b610e927f52ba824bfabc2bcfcdf7f0edbb486ebb05e1836c90e78047efeb949990f72e5f336125b8565b600054610100900460ff16610e925760405162461bcd60e51b815260040161096e90614a82565b600054610100900460ff16612ef55760405162461bcd60e51b815260040161096e90614a82565b610e926138ef565b600054610100900460ff16612f245760405162461bcd60e51b815260040161096e90614a82565b612f2d84613916565b6101f180546001600160a01b039095166001600160a01b0319909516949094179093556101f380546101f29390935561ffff909316600160401b0269ffffffffffffffffffff1990921667ffffffffffffffff90911617179055565b612f91612780565b6033805460ff191660011790557f62e78cea01bee320cd4e420270b5ea74000d11b0c9f74754ebdbfc544b05a258612d093390565b6000610eda83836139d9565b6000610929825490565b606080612feb6101f584612d26565b6130375760405162461bcd60e51b815260206004820181905260248201527f436861696e6c696e6b565246436f6e73756d65723a3a4e6f2072657175657374604482015260640161096e565b6001600160a01b03831660009081526101f4602090815260409182902060028101805484518185028101850190955280855291939290919083018282801561309e57602002820191906000526020600020905b81548152602001906001019080831161308a575b50505050509250806001018054806020026020016040519081016040528092919081815260200182805480156130f357602002820191906000526020600020905b8154815260200190600101908083116130df575b5050505050915061310f846101f5612d4890919063ffffffff16565b506001600160a01b03841660009081526101f4602052604081208181559061313a6001830182613e8a565b613148600283016000613e8a565b505050915091565b600080805b84518110156131c25761022a6000878152602001908152602001600020600a016000868381518110613189576131896145d7565b6020026020010151815260200190815260200160002060010154826131ae91906145ed565b9150806131ba8161468a565b915050613155565b5060006131cf8285614acd565b90506000915060005b855181101561329857600061022a6000898152602001908152602001600020600a01600088848151811061320e5761320e6145d7565b60200260200101518152602001908152602001600020600101548461323391906145ed565b90506132406001826145c4565b83116132845786878381518110613259576132596145d7565b602002602001015181518110613271576132716145d7565b6020026020010151945050505050610eda565b9250806132908161468a565b9150506131d8565b5060405162461bcd60e51b815260206004820152603160248201527f3842616c6c4375654d696e7465723a3a4572726f722063616c63756c6174696e60448201527019c81c985b991bdb4819195cda59db9259607a1b606482015260840161096e565b600084815261022a60209081526040808320868452600a81019092528220600181018054929391929161332d83614a22565b9190505550806001015460000361334d5761334b6008830186613a03565b505b610226546040805160e0810190915282546001600160a01b03909216916301e65df1913391879190819060ff16600481111561338b5761338b614340565b81526020018b81526020018a815260200160018152602001600181526020016001815260200160018152506040518463ffffffff1660e01b81526004016133d493929190614840565b600060405180830381600087803b1580156133ee57600080fd5b505af1158015613402573d6000803e3d6000fd5b505082546040513393507f20a1a53afff5899d6a197cadef7db93281256627d98124e9756d69cef4c83f0592506134429187918b9160ff16908a906148ae565b60405180910390a2505050505050565b60006001600160e01b03198216631fe543e360e01b1480610929575061092982613a0f565b61348182826119eb565b610b9a5761348e81613a34565b613499836020613a46565b6040516020016134aa929190614b05565b60408051601f198184030181529082905262461bcd60e51b825261096e91600401614b7a565b60608160000180548060200260200160405190810160405280929190818152602001828054801561352057602002820191906000526020600020905b81548152602001906001019080831161350c575b50505050509050919050565b6000610eda8383613be2565b6000610eda8383613c52565b61354e82826119eb565b610b9a57600082815261012d602090815260408083206001600160a01b03851684529091529020805460ff191660011790556135873390565b6001600160a01b0316816001600160a01b0316837f2f8788117e7eff1d82e926ec794901d17c78024a50270940304540a733656f0d60405160405180910390a45050565b6135d582826119eb565b15610b9a57600082815261012d602090815260408083206001600160a01b0385168085529252808320805460ff1916905551339285917ff6391f5c32d9c69d2a47ea670b442974b53935d1edc7fd64eb21e047a839171b9190a45050565b6001600160a01b0381163b6136a05760405162461bcd60e51b815260206004820152602d60248201527f455243313936373a206e657720696d706c656d656e746174696f6e206973206e60448201526c1bdd08184818dbdb9d1c9858dd609a1b606482015260840161096e565b600080516020614bd683398151915280546001600160a01b0319166001600160a01b0392909216919091179055565b6136d883613c6f565b6000825111806136e55750805b15610bc4576136f48383613caf565b50505050565b6000610929600080516020614c1d833981519152836119eb565b60006110d184846001600160a01b038516613da3565b60335460ff16610e925760405162461bcd60e51b815260206004820152601460248201527314185d5cd8589b194e881b9bdd081c185d5cd95960621b604482015260640161096e565b6000818152600183016020526040812054801561385c5760006137976001836145c4565b85549091506000906137ab906001906145c4565b90508181146138105760008660000182815481106137cb576137cb6145d7565b90600052602060002001549050808760000184815481106137ee576137ee6145d7565b6000918252602080832090910192909255918252600188019052604090208390555b855486908061382157613821614bad565b600190038181906000526020600020016000905590558560010160008681526020019081526020016000206000905560019350505050610929565b6000915050610929565b5092915050565b60008181526001830160205260408120546138b457508154600181810184556000848152602080822090930184905584548482528286019093526040902091909155610929565b506000610929565b600054610100900460ff166138e35760405162461bcd60e51b815260040161096e90614a82565b6033805460ff19169055565b600054610100900460ff16612ccd5760405162461bcd60e51b815260040161096e90614a82565b600054610100900460ff1661393d5760405162461bcd60e51b815260040161096e90614a82565b613945612ea7565b6001600160a01b0381166139b65760405162461bcd60e51b815260206004820152603260248201527f436861696e6c696e6b565246436f6e73756d6572426173653a3a436f6f7264696044820152716e61746f72207a65726f206164647265737360701b606482015260840161096e565b6101bf80546001600160a01b0319166001600160a01b0392909216919091179055565b60008260000182815481106139f0576139f06145d7565b9060005260206000200154905092915050565b6000610eda8383613773565b60006001600160e01b03198216635a05180f60e01b1480610929575061092982613dc0565b60606109296001600160a01b03831660145b60606000613a55836002614600565b613a609060026145ed565b67ffffffffffffffff811115613a7857613a78613f85565b6040519080825280601f01601f191660200182016040528015613aa2576020820181803683370190505b509050600360fc1b81600081518110613abd57613abd6145d7565b60200101906001600160f81b031916908160001a905350600f60fb1b81600181518110613aec57613aec6145d7565b60200101906001600160f81b031916908160001a9053506000613b10846002614600565b613b1b9060016145ed565b90505b6001811115613b93576f181899199a1a9b1b9c1cb0b131b232b360811b85600f1660108110613b4f57613b4f6145d7565b1a60f81b828281518110613b6557613b656145d7565b60200101906001600160f81b031916908160001a90535060049490941c93613b8c81614a22565b9050613b1e565b508315610eda5760405162461bcd60e51b815260206004820181905260248201527f537472696e67733a20686578206c656e67746820696e73756666696369656e74604482015260640161096e565b600081815260028301602052604081205480151580613c065750613c068484613df5565b610eda5760405162461bcd60e51b815260206004820152601e60248201527f456e756d657261626c654d61703a206e6f6e6578697374656e74206b65790000604482015260640161096e565b60008181526002830160205260408120819055610eda8383613a03565b613c7881613633565b6040516001600160a01b038216907fbc7cd75a20ee27fd9adebab32041f755214dbc6bffa90cc0225b39da2e5c2d3b90600090a250565b60606001600160a01b0383163b613d175760405162461bcd60e51b815260206004820152602660248201527f416464726573733a2064656c65676174652063616c6c20746f206e6f6e2d636f6044820152651b9d1c9858dd60d21b606482015260840161096e565b600080846001600160a01b031684604051613d329190614bc3565b600060405180830381855af49150503d8060008114613d6d576040519150601f19603f3d011682016040523d82523d6000602084013e613d72565b606091505b5091509150613d9a8282604051806060016040528060278152602001614bf660279139613e01565b95945050505050565b600082815260028401602052604081208290556110d18484612d5d565b60006001600160e01b03198216637965db0b60e01b148061092957506301ffc9a760e01b6001600160e01b0319831614610929565b6000610eda8383612544565b60608315613e10575081610eda565b610eda8383815115613e255781518083602001fd5b8060405162461bcd60e51b815260040161096e9190614b7a565b828054828255906000526020600020908101928215613e7a579160200282015b82811115613e7a578251825591602001919060010190613e5f565b50613e86929150613ea4565b5090565b5080546000825590600052602060002090810190610d1f91905b5b80821115613e865760008155600101613ea5565b600060208284031215613ecb57600080fd5b81356001600160e01b031981168114610eda57600080fd5b600060408284031215613ef557600080fd5b50919050565b60008060608385031215613f0e57600080fd5b82359150613f1f8460208501613ee3565b90509250929050565b600060208284031215613f3a57600080fd5b5035919050565b6020808252825182820181905260009190848201906040850190845b81811015613f7957835183529284019291840191600101613f5d565b50909695505050505050565b634e487b7160e01b600052604160045260246000fd5b604051601f8201601f1916810167ffffffffffffffff81118282101715613fc457613fc4613f85565b604052919050565b60008060408385031215613fdf57600080fd5b8235915060208084013567ffffffffffffffff80821115613fff57600080fd5b818601915086601f83011261401357600080fd5b81358181111561402557614025613f85565b8060051b9150614036848301613f9b565b818152918301840191848101908984111561405057600080fd5b938501935b8385101561406e57843582529385019390850190614055565b8096505050505050509250929050565b6001600160a01b0381168114610d1f57600080fd5b600080604083850312156140a657600080fd5b8235915060208301356140b88161407e565b809150509250929050565b6000602082840312156140d557600080fd5b8135610eda8161407e565b600080604083850312156140f357600080fd5b82356140fe8161407e565b946020939093013593505050565b6000806040838503121561411f57600080fd5b823561412a8161407e565b915060208381013567ffffffffffffffff8082111561414857600080fd5b818601915086601f83011261415c57600080fd5b81358181111561416e5761416e613f85565b614180601f8201601f19168501613f9b565b9150808252878482850101111561419657600080fd5b80848401858401376000848284010152508093505050509250929050565b60008083601f8401126141c657600080fd5b50813567ffffffffffffffff8111156141de57600080fd5b6020830191508360208260051b85010111156141f957600080fd5b9250929050565b60008060006040848603121561421557600080fd5b83359250602084013567ffffffffffffffff81111561423357600080fd5b61423f868287016141b4565b9497909650939450505050565b8035801515811461294757600080fd5b6000806000806000806000610100888a03121561427857600080fd5b87359650602088013567ffffffffffffffff8082111561429757600080fd5b818a0191508a601f8301126142ab57600080fd5b8135818111156142ba57600080fd5b8b60208285010111156142cc57600080fd5b6020830198508097505050506142e58960408a01613ee3565b93506142f48960808a01613ee3565b925061430260c0890161424c565b915061431060e0890161424c565b905092959891949750929550565b6000806040838503121561433157600080fd5b50508035926020909101359150565b634e487b7160e01b600052602160045260246000fd5b6005811061437457634e487b7160e01b600052602160045260246000fd5b9052565b600060408201905061438b828451614356565b602092830151919092015290565b600081518084526020808501945080840160005b838110156143c9578151875295820195908201906001016143ad565b509495945050505050565b602081528151602082015260006020830151606060408401526143fa6080840182614399565b90506040840151601f19848303016060850152613d9a8282614399565b815181526020808301519082015260408101610929565b6000806040838503121561444157600080fd5b82359150613f1f6020840161424c565b6020808252825182820181905260009190848201906040850190845b81811015613f795783516001600160a01b03168352928401929184019160010161446d565b600080600080600060a086880312156144aa57600080fd5b505083359560208501359550604085013594606081013594506080013592509050565b60208082526029908201527f3842616c6c4375654d696e7465723a3a4e6f6e2d6578697374656e7420636f6c6040820152681b1958dd1a5bdb925960ba1b606082015260800190565b6020808252602c908201527f46756e6374696f6e206d7573742062652063616c6c6564207468726f7567682060408201526b19195b1959d85d1958d85b1b60a21b606082015260800190565b6020808252602c908201527f46756e6374696f6e206d7573742062652063616c6c6564207468726f7567682060408201526b6163746976652070726f787960a01b606082015260800190565b634e487b7160e01b600052601160045260246000fd5b81810381811115610929576109296145ae565b634e487b7160e01b600052603260045260246000fd5b80820180821115610929576109296145ae565b600081600019048311821515161561461a5761461a6145ae565b500290565b634e487b7160e01b600052601260045260246000fd5b6000826146445761464461461f565b500490565b60208082526021908201527f3842616c6c4375654d696e7465723a3a456d7074792077616c6c6574206c69736040820152601d60fa1b606082015260800190565b60006001820161469c5761469c6145ae565b5060010190565b81835281816020850137506000828201602090810191909152601f909101601f19169091010190565b838152604060208201526000613d9a6040830184866146a3565b60208082526026908201527f3842616c6c4375654d696e7465723a3a496e76616c696420726f79616c747920604082015265636f6e66696760d01b606082015260800190565b81356147378161407e565b81546001600160a01b0319166001600160a01b03919091161781556020919091013560019190910155565b60058110610d1f57600080fd5b600060e0828403121561478157600080fd5b60405160e0810181811067ffffffffffffffff821117156147a4576147a4613f85565b60405282516147b281614762565b808252506020830151602082015260408301516040820152606083015160608201526080830151608082015260a083015160a082015260c083015160c08201528091505092915050565b60208082526024908201527f3842616c6c4375654d696e7465723a3a496e73756666696369656e74207061796040820152631b595b9d60e21b606082015260800190565b6001600160a01b0384168152602081018390528151610120820190614869906040840190614356565b6020830151606083015260408301516080830152606083015160a0830152608083015160c083015260a083015160e083015260c0830151610100830152949350505050565b84815260208101849052608081016148c96040830185614356565b82606083015295945050505050565b60008235607e198336030181126148ee57600080fd5b9190910192915050565b60006020828403121561490a57600080fd5b8135610eda81614762565b600060408083018684526020828186015281868352606092508286019050828760051b8701018860005b898110156149f957888303605f190184528135368c9003607e1901811261496557600080fd5b8b016080813561497481614762565b61497e8682614356565b508682013587860152888201358986015287820135601e198336030181126149a557600080fd5b90910186810191903567ffffffffffffffff8111156149c357600080fd5b8036038313156149d257600080fd5b81898701526149e482870182856146a3565b9688019695505050918501915060010161493f565b50909a9950505050505050505050565b600060208284031215614a1b57600080fd5b5051919050565b600081614a3157614a316145ae565b506000190190565b600063ffffffff80831681851681830481118215151615614a5c57614a5c6145ae565b02949350505050565b63ffffffff818116838216019080821115613866576138666145ae565b6020808252602b908201527f496e697469616c697a61626c653a20636f6e7472616374206973206e6f74206960408201526a6e697469616c697a696e6760a81b606082015260800190565b600082614adc57614adc61461f565b500690565b60005b83811015614afc578181015183820152602001614ae4565b50506000910152565b7f416363657373436f6e74726f6c3a206163636f756e7420000000000000000000815260008351614b3d816017850160208801614ae1565b7001034b99036b4b9b9b4b733903937b6329607d1b6017918401918201528351614b6e816028840160208801614ae1565b01602801949350505050565b6020815260008251806020840152614b99816040850160208701614ae1565b601f01601f19169190910160400192915050565b634e487b7160e01b600052603160045260246000fd5b600082516148ee818460208701614ae156fe360894a13ba1a3210667c828492db98dca3e2076cc3735a920a3ca505d382bbc416464726573733a206c6f772d6c6576656c2064656c65676174652063616c6c206661696c6564a49807205ce4d355092ef5a8a18f56e8913cf4a201fbe287825b095693c21775a2646970667358221220763f8738df94149049857da4b11c0bcf927379fd70b07943ceb8d5ce0937543364736f6c63430008100033",
  "linkReferences": {},
  "deployedLinkReferences": {}
}