{
  "_format": "hh-sol-artifact-1",
  "contractName": "A8BallCue",
  "sourceName": "contracts/A8Ball/Cue/A8BallCue.sol",
  "abi": [
    {
      "inputs": [],
      "stateMutability": "nonpayable",
      "type": "constructor"
    },
    {
      "anonymous": false,
      "inputs": [
        {
          "indexed": false,
          "internalType": "address",
          "name": "previousAdmin",
          "type": "address"
        },
        {
          "indexed": false,
          "internalType": "address",
          "name": "newAdmin",
          "type": "address"
        }
      ],
      "name": "AdminChanged",
      "type": "event"
    },
    {
      "anonymous": false,
      "inputs": [
        {
          "indexed": true,
          "internalType": "address",
          "name": "owner",
          "type": "address"
        },
        {
          "indexed": true,
          "internalType": "address",
          "name": "approved",
          "type": "address"
        },
        {
          "indexed": true,
          "internalType": "uint256",
          "name": "tokenId",
          "type": "uint256"
        }
      ],
      "name": "Approval",
      "type": "event"
    },
    {
      "anonymous": false,
      "inputs": [
        {
          "indexed": true,
          "internalType": "address",
          "name": "owner",
          "type": "address"
        },
        {
          "indexed": true,
          "internalType": "address",
          "name": "operator",
          "type": "address"
        },
        {
          "indexed": false,
          "internalType": "bool",
          "name": "approved",
          "type": "bool"
        }
      ],
      "name": "ApprovalForAll",
      "type": "event"
    },
    {
      "anonymous": false,
      "inputs": [
        {
          "indexed": true,
          "internalType": "address",
          "name": "beacon",
          "type": "address"
        }
      ],
      "name": "BeaconUpgraded",
      "type": "event"
    },
    {
      "anonymous": false,
      "inputs": [
        {
          "indexed": false,
          "internalType": "uint8",
          "name": "version",
          "type": "uint8"
        }
      ],
      "name": "Initialized",
      "type": "event"
    },
    {
      "anonymous": false,
      "inputs": [
        {
          "indexed": false,
          "internalType": "address",
          "name": "account",
          "type": "address"
        }
      ],
      "name": "Paused",
      "type": "event"
    },
    {
      "anonymous": false,
      "inputs": [
        {
          "indexed": true,
          "internalType": "bytes32",
          "name": "role",
          "type": "bytes32"
        },
        {
          "indexed": true,
          "internalType": "bytes32",
          "name": "previousAdminRole",
          "type": "bytes32"
        },
        {
          "indexed": true,
          "internalType": "bytes32",
          "name": "newAdminRole",
          "type": "bytes32"
        }
      ],
      "name": "RoleAdminChanged",
      "type": "event"
    },
    {
      "anonymous": false,
      "inputs": [
        {
          "indexed": true,
          "internalType": "bytes32",
          "name": "role",
          "type": "bytes32"
        },
        {
          "indexed": true,
          "internalType": "address",
          "name": "account",
          "type": "address"
        },
        {
          "indexed": true,
          "internalType": "address",
          "name": "sender",
          "type": "address"
        }
      ],
      "name": "RoleGranted",
      "type": "event"
    },
    {
      "anonymous": false,
      "inputs": [
        {
          "indexed": true,
          "internalType": "bytes32",
          "name": "role",
          "type": "bytes32"
        },
        {
          "indexed": true,
          "internalType": "address",
          "name": "account",
          "type": "address"
        },
        {
          "indexed": true,
          "internalType": "address",
          "name": "sender",
          "type": "address"
        }
      ],
      "name": "RoleRevoked",
      "type": "event"
    },
    {
      "anonymous": false,
      "inputs": [
        {
          "indexed": true,
          "internalType": "address",
          "name": "from",
          "type": "address"
        },
        {
          "indexed": true,
          "internalType": "address",
          "name": "to",
          "type": "address"
        },
        {
          "indexed": true,
          "internalType": "uint256",
          "name": "tokenId",
          "type": "uint256"
        }
      ],
      "name": "Transfer",
      "type": "event"
    },
    {
      "anonymous": false,
      "inputs": [
        {
          "indexed": false,
          "internalType": "address",
          "name": "account",
          "type": "address"
        }
      ],
      "name": "Unpaused",
      "type": "event"
    },
    {
      "anonymous": false,
      "inputs": [
        {
          "indexed": true,
          "internalType": "address",
          "name": "implementation",
          "type": "address"
        }
      ],
      "name": "Upgraded",
      "type": "event"
    },
    {
      "inputs": [],
      "name": "DEFAULT_ADMIN_ROLE",
      "outputs": [
        {
          "internalType": "bytes32",
          "name": "",
          "type": "bytes32"
        }
      ],
      "stateMutability": "view",
      "type": "function"
    },
    {
      "inputs": [
        {
          "internalType": "uint256",
          "name": "collectionId",
          "type": "uint256"
        },
        {
          "internalType": "string",
          "name": "name",
          "type": "string"
        }
      ],
      "name": "addCollection",
      "outputs": [],
      "stateMutability": "nonpayable",
      "type": "function"
    },
    {
      "inputs": [
        {
          "internalType": "uint256",
          "name": "collectionId",
          "type": "uint256"
        },
        {
          "components": [
            {
              "internalType": "enum I8BallCommon.Rarity",
              "name": "rarity",
              "type": "uint8"
            },
            {
              "internalType": "uint256",
              "name": "id",
              "type": "uint256"
            },
            {
              "internalType": "uint256",
              "name": "remaining",
              "type": "uint256"
            },
            {
              "internalType": "string",
              "name": "name",
              "type": "string"
            }
          ],
          "internalType": "struct I8BallCommon.Design[]",
          "name": "designs",
          "type": "tuple[]"
        }
      ],
      "name": "addCollectionDesigns",
      "outputs": [],
      "stateMutability": "nonpayable",
      "type": "function"
    },
    {
      "inputs": [
        {
          "internalType": "address",
          "name": "to",
          "type": "address"
        },
        {
          "internalType": "uint256",
          "name": "tokenId",
          "type": "uint256"
        }
      ],
      "name": "approve",
      "outputs": [],
      "stateMutability": "nonpayable",
      "type": "function"
    },
    {
      "inputs": [
        {
          "internalType": "address",
          "name": "owner",
          "type": "address"
        }
      ],
      "name": "balanceOf",
      "outputs": [
        {
          "internalType": "uint256",
          "name": "",
          "type": "uint256"
        }
      ],
      "stateMutability": "view",
      "type": "function"
    },
    {
      "inputs": [
        {
          "internalType": "uint256[]",
          "name": "tokenIds",
          "type": "uint256[]"
        }
      ],
      "name": "batchTokenURI",
      "outputs": [
        {
          "internalType": "string[]",
          "name": "",
          "type": "string[]"
        }
      ],
      "stateMutability": "view",
      "type": "function"
    },
    {
      "inputs": [
        {
          "internalType": "uint256[]",
          "name": "tokenIds",
          "type": "uint256[]"
        }
      ],
      "name": "batchTokenURIJSON",
      "outputs": [
        {
          "internalType": "string[]",
          "name": "",
          "type": "string[]"
        }
      ],
      "stateMutability": "view",
      "type": "function"
    },
    {
      "inputs": [
        {
          "internalType": "address",
          "name": "from",
          "type": "address"
        },
        {
          "internalType": "address",
          "name": "to",
          "type": "address"
        },
        {
          "internalType": "uint256[]",
          "name": "tokenIds",
          "type": "uint256[]"
        }
      ],
      "name": "batchTransferFrom",
      "outputs": [],
      "stateMutability": "nonpayable",
      "type": "function"
    },
    {
      "inputs": [
        {
          "internalType": "uint256",
          "name": "tokenId",
          "type": "uint256"
        }
      ],
      "name": "burn",
      "outputs": [],
      "stateMutability": "nonpayable",
      "type": "function"
    },
    {
      "inputs": [],
      "name": "getAllTokenIds",
      "outputs": [
        {
          "internalType": "uint256[]",
          "name": "",
          "type": "uint256[]"
        }
      ],
      "stateMutability": "view",
      "type": "function"
    },
    {
      "inputs": [
        {
          "internalType": "uint256",
          "name": "tokenId",
          "type": "uint256"
        }
      ],
      "name": "getApproved",
      "outputs": [
        {
          "internalType": "address",
          "name": "",
          "type": "address"
        }
      ],
      "stateMutability": "view",
      "type": "function"
    },
    {
      "inputs": [
        {
          "internalType": "uint256",
          "name": "tokenId",
          "type": "uint256"
        }
      ],
      "name": "getCue",
      "outputs": [
        {
          "components": [
            {
              "internalType": "enum I8BallCommon.Rarity",
              "name": "rarity",
              "type": "uint8"
            },
            {
              "internalType": "uint256",
              "name": "collectionId",
              "type": "uint256"
            },
            {
              "internalType": "uint256",
              "name": "designId",
              "type": "uint256"
            },
            {
              "internalType": "uint256",
              "name": "power",
              "type": "uint256"
            },
            {
              "internalType": "uint256",
              "name": "accuracy",
              "type": "uint256"
            },
            {
              "internalType": "uint256",
              "name": "spin",
              "type": "uint256"
            },
            {
              "internalType": "uint256",
              "name": "time",
              "type": "uint256"
            }
          ],
          "internalType": "struct I8BallCommon.Cue",
          "name": "",
          "type": "tuple"
        }
      ],
      "stateMutability": "view",
      "type": "function"
    },
    {
      "inputs": [
        {
          "internalType": "bytes32",
          "name": "role",
          "type": "bytes32"
        }
      ],
      "name": "getRoleAdmin",
      "outputs": [
        {
          "internalType": "bytes32",
          "name": "",
          "type": "bytes32"
        }
      ],
      "stateMutability": "view",
      "type": "function"
    },
    {
      "inputs": [
        {
          "internalType": "bytes32",
          "name": "role",
          "type": "bytes32"
        },
        {
          "internalType": "uint256",
          "name": "index",
          "type": "uint256"
        }
      ],
      "name": "getRoleMember",
      "outputs": [
        {
          "internalType": "address",
          "name": "",
          "type": "address"
        }
      ],
      "stateMutability": "view",
      "type": "function"
    },
    {
      "inputs": [
        {
          "internalType": "bytes32",
          "name": "role",
          "type": "bytes32"
        }
      ],
      "name": "getRoleMemberCount",
      "outputs": [
        {
          "internalType": "uint256",
          "name": "",
          "type": "uint256"
        }
      ],
      "stateMutability": "view",
      "type": "function"
    },
    {
      "inputs": [
        {
          "internalType": "bytes32",
          "name": "role",
          "type": "bytes32"
        },
        {
          "internalType": "address",
          "name": "account",
          "type": "address"
        }
      ],
      "name": "grantRole",
      "outputs": [],
      "stateMutability": "nonpayable",
      "type": "function"
    },
    {
      "inputs": [
        {
          "internalType": "bytes32",
          "name": "role",
          "type": "bytes32"
        },
        {
          "internalType": "address",
          "name": "account",
          "type": "address"
        }
      ],
      "name": "hasRole",
      "outputs": [
        {
          "internalType": "bool",
          "name": "",
          "type": "bool"
        }
      ],
      "stateMutability": "view",
      "type": "function"
    },
    {
      "inputs": [],
      "name": "imageBaseURI",
      "outputs": [
        {
          "internalType": "string",
          "name": "",
          "type": "string"
        }
      ],
      "stateMutability": "view",
      "type": "function"
    },
    {
      "inputs": [],
      "name": "initialize",
      "outputs": [],
      "stateMutability": "nonpayable",
      "type": "function"
    },
    {
      "inputs": [
        {
          "internalType": "address",
          "name": "owner",
          "type": "address"
        },
        {
          "internalType": "address",
          "name": "operator",
          "type": "address"
        }
      ],
      "name": "isApprovedForAll",
      "outputs": [
        {
          "internalType": "bool",
          "name": "",
          "type": "bool"
        }
      ],
      "stateMutability": "view",
      "type": "function"
    },
    {
      "inputs": [
        {
          "internalType": "enum I8BallCommon.Rarity",
          "name": "rarity",
          "type": "uint8"
        }
      ],
      "name": "maxLevel",
      "outputs": [
        {
          "internalType": "uint256",
          "name": "",
          "type": "uint256"
        }
      ],
      "stateMutability": "pure",
      "type": "function"
    },
    {
      "inputs": [
        {
          "internalType": "address",
          "name": "to",
          "type": "address"
        },
        {
          "internalType": "uint256",
          "name": "tokenId",
          "type": "uint256"
        },
        {
          "components": [
            {
              "internalType": "enum I8BallCommon.Rarity",
              "name": "rarity",
              "type": "uint8"
            },
            {
              "internalType": "uint256",
              "name": "collectionId",
              "type": "uint256"
            },
            {
              "internalType": "uint256",
              "name": "designId",
              "type": "uint256"
            },
            {
              "internalType": "uint256",
              "name": "power",
              "type": "uint256"
            },
            {
              "internalType": "uint256",
              "name": "accuracy",
              "type": "uint256"
            },
            {
              "internalType": "uint256",
              "name": "spin",
              "type": "uint256"
            },
            {
              "internalType": "uint256",
              "name": "time",
              "type": "uint256"
            }
          ],
          "internalType": "struct I8BallCommon.Cue",
          "name": "cue",
          "type": "tuple"
        }
      ],
      "name": "mint",
      "outputs": [],
      "stateMutability": "nonpayable",
      "type": "function"
    },
    {
      "inputs": [],
      "name": "name",
      "outputs": [
        {
          "internalType": "string",
          "name": "",
          "type": "string"
        }
      ],
      "stateMutability": "view",
      "type": "function"
    },
    {
      "inputs": [
        {
          "internalType": "uint256",
          "name": "tokenId",
          "type": "uint256"
        }
      ],
      "name": "ownerOf",
      "outputs": [
        {
          "internalType": "address",
          "name": "",
          "type": "address"
        }
      ],
      "stateMutability": "view",
      "type": "function"
    },
    {
      "inputs": [],
      "name": "paused",
      "outputs": [
        {
          "internalType": "bool",
          "name": "",
          "type": "bool"
        }
      ],
      "stateMutability": "view",
      "type": "function"
    },
    {
      "inputs": [],
      "name": "proxiableUUID",
      "outputs": [
        {
          "internalType": "bytes32",
          "name": "",
          "type": "bytes32"
        }
      ],
      "stateMutability": "view",
      "type": "function"
    },
    {
      "inputs": [
        {
          "internalType": "bytes32",
          "name": "role",
          "type": "bytes32"
        },
        {
          "internalType": "address",
          "name": "account",
          "type": "address"
        }
      ],
      "name": "renounceRole",
      "outputs": [],
      "stateMutability": "nonpayable",
      "type": "function"
    },
    {
      "inputs": [
        {
          "internalType": "bytes32",
          "name": "role",
          "type": "bytes32"
        },
        {
          "internalType": "address",
          "name": "account",
          "type": "address"
        }
      ],
      "name": "revokeRole",
      "outputs": [],
      "stateMutability": "nonpayable",
      "type": "function"
    },
    {
      "inputs": [
        {
          "internalType": "address",
          "name": "from",
          "type": "address"
        },
        {
          "internalType": "address",
          "name": "to",
          "type": "address"
        },
        {
          "internalType": "uint256",
          "name": "tokenId",
          "type": "uint256"
        }
      ],
      "name": "safeTransferFrom",
      "outputs": [],
      "stateMutability": "nonpayable",
      "type": "function"
    },
    {
      "inputs": [
        {
          "internalType": "address",
          "name": "from",
          "type": "address"
        },
        {
          "internalType": "address",
          "name": "to",
          "type": "address"
        },
        {
          "internalType": "uint256",
          "name": "tokenId",
          "type": "uint256"
        },
        {
          "internalType": "bytes",
          "name": "data",
          "type": "bytes"
        }
      ],
      "name": "safeTransferFrom",
      "outputs": [],
      "stateMutability": "nonpayable",
      "type": "function"
    },
    {
      "inputs": [
        {
          "internalType": "address",
          "name": "operator",
          "type": "address"
        },
        {
          "internalType": "bool",
          "name": "approved",
          "type": "bool"
        }
      ],
      "name": "setApprovalForAll",
      "outputs": [],
      "stateMutability": "nonpayable",
      "type": "function"
    },
    {
      "inputs": [
        {
          "internalType": "string",
          "name": "_imageBaseURI",
          "type": "string"
        }
      ],
      "name": "setImageBaseUri",
      "outputs": [],
      "stateMutability": "nonpayable",
      "type": "function"
    },
    {
      "inputs": [
        {
          "internalType": "bytes4",
          "name": "interfaceId",
          "type": "bytes4"
        }
      ],
      "name": "supportsInterface",
      "outputs": [
        {
          "internalType": "bool",
          "name": "",
          "type": "bool"
        }
      ],
      "stateMutability": "view",
      "type": "function"
    },
    {
      "inputs": [],
      "name": "symbol",
      "outputs": [
        {
          "internalType": "string",
          "name": "",
          "type": "string"
        }
      ],
      "stateMutability": "view",
      "type": "function"
    },
    {
      "inputs": [
        {
          "internalType": "uint256",
          "name": "index",
          "type": "uint256"
        }
      ],
      "name": "tokenByIndex",
      "outputs": [
        {
          "internalType": "uint256",
          "name": "",
          "type": "uint256"
        }
      ],
      "stateMutability": "view",
      "type": "function"
    },
    {
      "inputs": [
        {
          "internalType": "address",
          "name": "owner",
          "type": "address"
        },
        {
          "internalType": "uint256",
          "name": "index",
          "type": "uint256"
        }
      ],
      "name": "tokenOfOwnerByIndex",
      "outputs": [
        {
          "internalType": "uint256",
          "name": "",
          "type": "uint256"
        }
      ],
      "stateMutability": "view",
      "type": "function"
    },
    {
      "inputs": [
        {
          "internalType": "uint256",
          "name": "tokenId",
          "type": "uint256"
        }
      ],
      "name": "tokenURI",
      "outputs": [
        {
          "internalType": "string",
          "name": "",
          "type": "string"
        }
      ],
      "stateMutability": "view",
      "type": "function"
    },
    {
      "inputs": [
        {
          "internalType": "uint256",
          "name": "tokenId",
          "type": "uint256"
        }
      ],
      "name": "tokenURIJSON",
      "outputs": [
        {
          "internalType": "string",
          "name": "",
          "type": "string"
        }
      ],
      "stateMutability": "view",
      "type": "function"
    },
    {
      "inputs": [
        {
          "internalType": "address",
          "name": "owner",
          "type": "address"
        }
      ],
      "name": "tokensOfOwner",
      "outputs": [
        {
          "internalType": "uint256[]",
          "name": "",
          "type": "uint256[]"
        }
      ],
      "stateMutability": "view",
      "type": "function"
    },
    {
      "inputs": [],
      "name": "totalSupply",
      "outputs": [
        {
          "internalType": "uint256",
          "name": "",
          "type": "uint256"
        }
      ],
      "stateMutability": "view",
      "type": "function"
    },
    {
      "inputs": [
        {
          "internalType": "address",
          "name": "from",
          "type": "address"
        },
        {
          "internalType": "address",
          "name": "to",
          "type": "address"
        },
        {
          "internalType": "uint256",
          "name": "tokenId",
          "type": "uint256"
        }
      ],
      "name": "transferFrom",
      "outputs": [],
      "stateMutability": "nonpayable",
      "type": "function"
    },
    {
      "inputs": [
        {
          "internalType": "address",
          "name": "owner",
          "type": "address"
        },
        {
          "internalType": "uint256",
          "name": "tokenId",
          "type": "uint256"
        },
        {
          "components": [
            {
              "internalType": "enum I8BallCommon.Rarity",
              "name": "rarity",
              "type": "uint8"
            },
            {
              "internalType": "uint256",
              "name": "collectionId",
              "type": "uint256"
            },
            {
              "internalType": "uint256",
              "name": "designId",
              "type": "uint256"
            },
            {
              "internalType": "uint256",
              "name": "power",
              "type": "uint256"
            },
            {
              "internalType": "uint256",
              "name": "accuracy",
              "type": "uint256"
            },
            {
              "internalType": "uint256",
              "name": "spin",
              "type": "uint256"
            },
            {
              "internalType": "uint256",
              "name": "time",
              "type": "uint256"
            }
          ],
          "internalType": "struct I8BallCommon.Cue",
          "name": "cue",
          "type": "tuple"
        }
      ],
      "name": "upgradeCue",
      "outputs": [],
      "stateMutability": "nonpayable",
      "type": "function"
    },
    {
      "inputs": [
        {
          "internalType": "address",
          "name": "newImplementation",
          "type": "address"
        }
      ],
      "name": "upgradeTo",
      "outputs": [],
      "stateMutability": "nonpayable",
      "type": "function"
    },
    {
      "inputs": [
        {
          "internalType": "address",
          "name": "newImplementation",
          "type": "address"
        },
        {
          "internalType": "bytes",
          "name": "data",
          "type": "bytes"
        }
      ],
      "name": "upgradeToAndCall",
      "outputs": [],
      "stateMutability": "payable",
      "type": "function"
    }
  ],
  "bytecode": "0x60a0604052306080523480156200001557600080fd5b506200002062000026565b620000e8565b600054610100900460ff1615620000935760405162461bcd60e51b815260206004820152602760248201527f496e697469616c697a61626c653a20636f6e747261637420697320696e697469604482015266616c697a696e6760c81b606482015260840160405180910390fd5b60005460ff9081161015620000e6576000805460ff191660ff9081179091556040519081527f7f26b83ff96e1f2b6a682f133852f6798a09c465da95921460cefb38474024989060200160405180910390a15b565b6080516156d56200012060003960008181611058015281816110980152818161121a0152818161125a015261137c01526156d56000f3fe6080604052600436106102675760003560e01c80635d93d6a411610144578063a22cb465116100b6578063d547741f1161007a578063d547741f1461073e578063e985e9c51461075e578063f3993d11146107a7578063fd2de539146107c7578063fd80e45a146107e7578063fe459f5c1461080757600080fd5b8063a22cb465146106a9578063b88d4fde146106c9578063bdbed722146106e9578063c87b56dd146106fe578063ca15c8731461071e57600080fd5b80638129fc1c116101085780638129fc1c146105fd5780638462151c146106125780639010d07c1461063f57806391d148541461065f57806395d89b411461067f578063a217fddf1461069457600080fd5b80635d93d6a4146105685780636352211e146105885780636d94f13a146105a857806370a08231146105c857806377645839146105e857600080fd5b80632f745c59116101dd57806342842e0e116101a157806342842e0e146104c757806342966c68146104e75780634f1ef286146105075780634f6ccce71461051a57806352d1902d1461053a5780635c975abb1461054f57600080fd5b80632f745c591461041a57806334985b991461043a57806336568abe146104675780633659cfe61461048757806339b92bbb146104a757600080fd5b8063095ea7b31161022f578063095ea7b31461033d57806318160ddd1461035d57806323b872dd1461037c578063248a9ca31461039c5780632c303493146103cd5780632f2ff15d146103fa57600080fd5b8063014979f61461026c57806301e65df11461028e57806301ffc9a7146102ae57806306fdde03146102e3578063081812fc14610305575b600080fd5b34801561027857600080fd5b5061028c610287366004614513565b610827565b005b34801561029a57600080fd5b5061028c6102a9366004614575565b6109ec565b3480156102ba57600080fd5b506102ce6102c93660046145d4565b610ae7565b60405190151581526020015b60405180910390f35b3480156102ef57600080fd5b506102f8610b12565b6040516102da9190614641565b34801561031157600080fd5b50610325610320366004614654565b610ba4565b6040516001600160a01b0390911681526020016102da565b34801561034957600080fd5b5061028c61035836600461466d565b610bcb565b34801561036957600080fd5b506099545b6040519081526020016102da565b34801561038857600080fd5b5061028c610397366004614697565b610cdb565b3480156103a857600080fd5b5061036e6103b7366004614654565b6000908152610192602052604090206001015490565b3480156103d957600080fd5b506103ed6103e8366004614761565b610d0c565b6040516102da9190614795565b34801561040657600080fd5b5061028c6104153660046147f7565b610dc4565b34801561042657600080fd5b5061036e61043536600461466d565b610dea565b34801561044657600080fd5b5061045a610455366004614654565b610e80565b6040516102da9190614839565b34801561047357600080fd5b5061028c6104823660046147f7565b610fd4565b34801561049357600080fd5b5061028c6104a23660046148a4565b61104e565b3480156104b357600080fd5b5061028c6104c23660046148bf565b61112d565b3480156104d357600080fd5b5061028c6104e2366004614697565b611163565b3480156104f357600080fd5b5061028c610502366004614654565b61117e565b61028c6105153660046148f3565b611210565b34801561052657600080fd5b5061036e610535366004614654565b6112dc565b34801561054657600080fd5b5061036e61136f565b34801561055b57600080fd5b506102245460ff166102ce565b34801561057457600080fd5b5061036e610583366004614939565b611422565b34801561059457600080fd5b506103256105a3366004614654565b611466565b3480156105b457600080fd5b506103ed6105c3366004614954565b6114c6565b3480156105d457600080fd5b5061036e6105e33660046148a4565b61157c565b3480156105f457600080fd5b506102f8611602565b34801561060957600080fd5b5061028c611691565b34801561061e57600080fd5b5061063261062d3660046148a4565b611893565b6040516102da91906149c8565b34801561064b57600080fd5b5061032561065a366004614a0c565b61192c565b34801561066b57600080fd5b506102ce61067a3660046147f7565b61194c565b34801561068b57600080fd5b506102f8611978565b3480156106a057600080fd5b5061036e600081565b3480156106b557600080fd5b5061028c6106c4366004614a2e565b611987565b3480156106d557600080fd5b5061028c6106e4366004614a6a565b611992565b3480156106f557600080fd5b506106326119ca565b34801561070a57600080fd5b506102f8610719366004614654565b611ad2565b34801561072a57600080fd5b5061036e610739366004614654565b611add565b34801561074a57600080fd5b5061028c6107593660046147f7565b611af5565b34801561076a57600080fd5b506102ce610779366004614ad1565b6001600160a01b039182166000908152606a6020908152604080832093909416825291909152205460ff1690565b3480156107b357600080fd5b5061028c6107c2366004614afb565b611b1b565b3480156107d357600080fd5b5061028c6107e2366004614b58565b611b5d565b3480156107f357600080fd5b5061028c610802366004614575565b611be8565b34801561081357600080fd5b506102f8610822366004614654565b611d76565b61083e6000805160206156808339815191526120d2565b600082116108935760405162461bcd60e51b815260206004820152601e60248201527f3842616c6c4375653a3a496e76616c696420636f6c6c656374696f6e4964000060448201526064015b60405180910390fd5b6108a06102ba83836120dc565b604080518082019091526008815267426972746864617960c01b60208201526108d1906102ba908490600090612156565b60408051808201909152600681526552617269747960d01b6020820152610900906102ba908490600190612156565b6040805180820190915260068152652232b9b4b3b760d11b602082015261092f906102ba908490600290612156565b6040805180820190915260058152642837bbb2b960d91b602082015261095d906102ba908490600390612156565b604080518082019091526008815267416363757261637960c01b602082015261098e906102ba908490600490612156565b60408051808201909152600481526329b834b760e11b60208201526109bb906102ba908490600590612156565b60408051808201909152600481526354696d6560e01b60208201526109e8906102ba908490600690612156565b5050565b610a036000805160206156808339815191526120d2565b610a0d8383612219565b610a216102ba836000806020860135612223565b610a356102ba836020840135600042612223565b610a6a8260208301803590600190610a4d9086614939565b6004811115610a5e57610a5e614823565b6102ba93929190612223565b610a826102ba83602084013560026040860135612223565b610a9a6102ba83602084013560036060860135612223565b610ab26102ba83602084013560046080860135612223565b610aca6102ba836020840135600560a0860135612223565b610ae26102ba836020840135600660c0860135612223565b505050565b600063285841f160e11b6001600160e01b031983161480610b0c5750610b0c826122a5565b92915050565b606060658054610b2190614c6e565b80601f0160208091040260200160405190810160405280929190818152602001828054610b4d90614c6e565b8015610b9a5780601f10610b6f57610100808354040283529160200191610b9a565b820191906000526020600020905b815481529060010190602001808311610b7d57829003601f168201915b5050505050905090565b6000610baf826122ca565b506000908152606960205260409020546001600160a01b031690565b6000610bd682611466565b9050806001600160a01b0316836001600160a01b031603610c435760405162461bcd60e51b815260206004820152602160248201527f4552433732313a20617070726f76616c20746f2063757272656e74206f776e656044820152603960f91b606482015260840161088a565b336001600160a01b0382161480610c5f5750610c5f8133610779565b610cd15760405162461bcd60e51b815260206004820152603d60248201527f4552433732313a20617070726f76652063616c6c6572206973206e6f7420746f60448201527f6b656e206f776e6572206f7220617070726f76656420666f7220616c6c000000606482015260840161088a565b610ae28383612329565b610ce53382612397565b610d015760405162461bcd60e51b815260040161088a90614ca8565b610ae2838383612415565b6060600082516001600160401b03811115610d2957610d29614436565b604051908082528060200260200182016040528015610d5c57816020015b6060815260200190600190039081610d475790505b50905060005b8351811015610dbd57610d8d848281518110610d8057610d80614cf5565b6020026020010151611d76565b828281518110610d9f57610d9f614cf5565b60200260200101819052508080610db590614d21565b915050610d62565b5092915050565b60008281526101926020526040902060010154610de0816120d2565b610ae28383612586565b6000610df58361157c565b8210610e575760405162461bcd60e51b815260206004820152602b60248201527f455243373231456e756d657261626c653a206f776e657220696e646578206f7560448201526a74206f6620626f756e647360a81b606482015260840161088a565b506001600160a01b03919091166000908152609760209081526040808320938352929052205490565b610ec16040805160e0810190915280600081526020016000815260200160008152602001600081526020016000815260200160008152602001600081525090565b6000610ed16102ba8483806125a9565b905060008111610f235760405162461bcd60e51b815260206004820152601a60248201527f3842616c6c4375653a3a496e76616c696420546f6b656e204944000000000000604482015260640161088a565b6040805160e0810190915280610f3e6102ba868560016125a9565b6004811115610f4f57610f4f614823565b6004811115610f6057610f60614823565b815260208101839052604001610f7b6102ba868560026125a9565b8152602001610f8f6102ba868560036125a9565b8152602001610fa36102ba868560046125a9565b8152602001610fb76102ba868560056125a9565b8152602001610fcb6102ba868560066125a9565b90529392505050565b6001600160a01b03811633146110445760405162461bcd60e51b815260206004820152602f60248201527f416363657373436f6e74726f6c3a2063616e206f6e6c792072656e6f756e636560448201526e103937b632b9903337b91039b2b63360891b606482015260840161088a565b6109e88282612632565b6001600160a01b037f00000000000000000000000000000000000000000000000000000000000000001630036110965760405162461bcd60e51b815260040161088a90614d3a565b7f00000000000000000000000000000000000000000000000000000000000000006001600160a01b03166110df6000805160206155d3833981519152546001600160a01b031690565b6001600160a01b0316146111055760405162461bcd60e51b815260040161088a90614d86565b61110e81612655565b6040805160008082526020820190925261112a9183919061267e565b50565b6111567fa49807205ce4d355092ef5a8a18f56e8913cf4a201fbe287825b095693c217756120d2565b6101606109e88282614e18565b610ae283838360405180602001604052806000815250611992565b6111883382612397565b6111fa5760405162461bcd60e51b815260206004820152603860248201527f4552433732314275726e61626c6556323a2063616c6c6572206973206e6f742060448201527f746f6b656e206f776e6572206e6f7220617070726f7665640000000000000000606482015260840161088a565b61120661012d826127e9565b5061112a816127f5565b6001600160a01b037f00000000000000000000000000000000000000000000000000000000000000001630036112585760405162461bcd60e51b815260040161088a90614d3a565b7f00000000000000000000000000000000000000000000000000000000000000006001600160a01b03166112a16000805160206155d3833981519152546001600160a01b031690565b6001600160a01b0316146112c75760405162461bcd60e51b815260040161088a90614d86565b6112d082612655565b6109e88282600161267e565b60006112e760995490565b821061134a5760405162461bcd60e51b815260206004820152602c60248201527f455243373231456e756d657261626c653a20676c6f62616c20696e646578206f60448201526b7574206f6620626f756e647360a01b606482015260840161088a565b6099828154811061135d5761135d614cf5565b90600052602060002001549050919050565b6000306001600160a01b037f0000000000000000000000000000000000000000000000000000000000000000161461140f5760405162461bcd60e51b815260206004820152603860248201527f555550535570677261646561626c653a206d757374206e6f742062652063616c60448201527f6c6564207468726f7567682064656c656761746563616c6c0000000000000000606482015260840161088a565b506000805160206155d383398151915290565b60008082600481111561143757611437614823565b1461145e5781600481111561144e5761144e614823565b611459906006614ed7565b610b0c565b600592915050565b6000818152606760205260408120546001600160a01b031680610b0c5760405162461bcd60e51b8152602060048201526018602482015277115490cdcc8c4e881a5b9d985b1a59081d1bdad95b88125160421b604482015260640161088a565b60606000826001600160401b038111156114e2576114e2614436565b60405190808252806020026020018201604052801561151557816020015b60608152602001906001900390816115005790505b50905060005b838110156115745761154485858381811061153857611538614cf5565b90506020020135611ad2565b82828151811061155657611556614cf5565b6020026020010181905250808061156c90614d21565b91505061151b565b509392505050565b60006001600160a01b0382166115e65760405162461bcd60e51b815260206004820152602960248201527f4552433732313a2061646472657373207a65726f206973206e6f7420612076616044820152683634b21037bbb732b960b91b606482015260840161088a565b506001600160a01b031660009081526068602052604090205490565b610160805461161090614c6e565b80601f016020809104026020016040519081016040528092919081815260200182805461163c90614c6e565b80156116895780601f1061165e57610100808354040283529160200191611689565b820191906000526020600020905b81548152906001019060200180831161166c57829003601f168201915b505050505081565b600054610100900460ff16158080156116b15750600054600160ff909116105b806116cb5750303b1580156116cb575060005460ff166001145b61172e5760405162461bcd60e51b815260206004820152602e60248201527f496e697469616c697a61626c653a20636f6e747261637420697320616c72656160448201526d191e481a5b9a5d1a585b1a5e995960921b606482015260840161088a565b6000805460ff191660011790558015611751576000805461ff0019166101001790555b61179b604051806040016040528060088152602001673842616c6c43756560c01b815250604051806040016040528060088152602001673842414c4c43554560c01b815250612898565b6117a36128c9565b6117c460405180606001604052806026815260200161565a602691396128fa565b6117cc612921565b6117d4612950565b6117dc6128c9565b6117e4612a4a565b60408051808201909152600d81526c436f7265204d6574616461746160981b6020820152611818906102ba906000906120dc565b60408051808201909152600a81526921b7b63632b1ba34b7b760b11b602082015261184b906102ba906000908190612156565b801561112a576000805461ff0019169055604051600181527f7f26b83ff96e1f2b6a682f133852f6798a09c465da95921460cefb38474024989060200160405180910390a150565b606060006118a08361157c565b90506000816001600160401b038111156118bc576118bc614436565b6040519080825280602002602001820160405280156118e5578160200160208202803683370190505b50905060005b82811015611574576118fd8582610dea565b82828151811061190f5761190f614cf5565b60209081029190910101528061192481614d21565b9150506118eb565b60008281526101c4602052604081206119459083612a71565b9392505050565b6000918252610192602090815260408084206001600160a01b0393909316845291905290205460ff1690565b606060668054610b2190614c6e565b6109e8338383612a7d565b61199c3383612397565b6119b85760405162461bcd60e51b815260040161088a90614ca8565b6119c484848484612b4b565b50505050565b6060600060015b612710811015611a18576000818152606760205260409020546001600160a01b031615611a065781611a0281614d21565b9250505b80611a1081614d21565b9150506119d1565b506000816001600160401b03811115611a3357611a33614436565b604051908082528060200260200182016040528015611a5c578160200160208202803683370190505b509050600060015b612710811015611ac9576000818152606760205260409020546001600160a01b031615611ab75780838381518110611a9e57611a9e614cf5565b602090810291909101015281611ab381614d21565b9250505b80611ac181614d21565b915050611a64565b50909392505050565b6060610b0c82612b7e565b60008181526101c460205260408120610b0c90612b91565b60008281526101926020526040902060010154611b11816120d2565b610ae28383612632565b60005b81518110156119c457611b4b8484848481518110611b3e57611b3e614cf5565b6020026020010151610cdb565b80611b5581614d21565b915050611b1e565b611b746000805160206156808339815191526120d2565b60005b8151811015610ae257611bd6836002848481518110611b9857611b98614cf5565b602002602001015160200151858581518110611bb657611bb6614cf5565b6020026020010151606001516102ba612b9b90949392919063ffffffff16565b80611be081614d21565b915050611b77565b611bff6000805160206156808339815191526120d2565b611c098383612397565b611c555760405162461bcd60e51b815260206004820152601f60248201527f3842616c6c4375653a3a4e6f7420617070726f766564206f72206f776e657200604482015260640161088a565b6000611c656102ba8483806125a9565b90506000611c786102ba858460016125a9565b905060008115611c9257611c8d826006614ed7565b611c95565b60055b905060035b6007811015611d1d5781611cb26102ba8887856125a9565b10611d0b5760405162461bcd60e51b815260206004820152602360248201527f3842616c6c4375653a3a557067726164652065786365656473206d6178206c656044820152621d995b60ea1b606482015260840161088a565b80611d1581614d21565b915050611c9a565b50611d326102ba868560036060890135612223565b611d466102ba868560046080890135612223565b611d5a6102ba8685600560a0890135612223565b611d6e6102ba8685600660c0890135612223565b505050505050565b60606000611d886102ba8483806125a9565b604080516007808252610100820190925291925060009190816020015b611dd260405180608001604052806060815260200160608152602001606081526020016000151581525090565b815260200190600190039081611da5575050604080516080810190915290915080611e016102ba600080612c24565b815260408051602081810183526000825283015201611e226102ba85612d2f565b81526020016000151581525081600081518110611e4157611e41614cf5565b6020908102919091010152604080516080810190915280611e666102ba856000612c24565b815260408051808201825260048152636461746560e01b60208281019190915283015201611ea1611e9c6102ba888760006125a9565b612df8565b81526020016001151581525081600181518110611ec057611ec0614cf5565b6020908102919091010152604080516080810190915280611ee56102ba856001612c24565b815260408051602081810183526000825280840191909152815160e081018352600660a082019081526521b7b6b6b7b760d11b60c083015281528251808401845260088152672ab731b7b6b6b7b760c11b8184015281830152825180840184526004808252635261726560e01b828501528285019190915283518085018552908152634570696360e01b8184015260608201528251808401845260098152684c6567656e6461727960b81b928101929092526080810191909152910190611fb16102ba888760016125a9565b60058110611fc157611fc1614cf5565b602002015181526020016000151581525081600281518110611fe557611fe5614cf5565b602090810291909101015260035b6007811015612077576040805160808101909152806120156102ba8685612c24565b81526040805160208181018352600082528301520161203b611e9c6102ba8988876125a9565b81526020016001151581525082828151811061205957612059614cf5565b6020026020010181905250808061206f90614d21565b915050611ff3565b506120ca8461209b8460026120906102ba8584846125a9565b6102ba929190612e8a565b6040518060400160405280601081526020016f43727970746f203842616c6c2043756560801b81525084612f9e565b949350505050565b61112a8133612ff8565b6120e683836127e9565b61213c5760405162461bcd60e51b815260206004820152602160248201527f417474726962757465733a3a54726565496420616c72656164792065786973746044820152607360f81b606482015260840161088a565b600082815260068401602052604090206119c48282614e18565b6121608484613051565b61217c5760405162461bcd60e51b815260040161088a90614eea565b6000838152600285016020526040902061219690836127e9565b6121ed5760405162461bcd60e51b815260206004820152602260248201527f417474726962757465733a3a536b696c6c496420616c72656164792065786973604482015261747360f01b606482015260840161088a565b6000838152600585016020908152604080832085845290915290206122128282614e18565b5050505050565b6109e88282613069565b61222d8584613051565b6122495760405162461bcd60e51b815260040161088a90614eea565b600083815260028601602052604090206122639083613051565b61227f5760405162461bcd60e51b815260040161088a90614f21565b600093845260039094016020908152604080852093855292815282842091845252902055565b60006001600160e01b03198216635a05180f60e01b1480610b0c5750610b0c82613083565b6000818152606760205260409020546001600160a01b031661112a5760405162461bcd60e51b8152602060048201526018602482015277115490cdcc8c4e881a5b9d985b1a59081d1bdad95b88125160421b604482015260640161088a565b600081815260696020526040902080546001600160a01b0319166001600160a01b038416908117909155819061235e82611466565b6001600160a01b03167f8c5be1e5ebec7d5bd14f71427d1e84f3dd0314c0f7b2291e5b200ac8c7c3b92560405160405180910390a45050565b6000806123a383611466565b9050806001600160a01b0316846001600160a01b031614806123ea57506001600160a01b038082166000908152606a602090815260408083209388168352929052205460ff165b806120ca5750836001600160a01b031661240384610ba4565b6001600160a01b031614949350505050565b826001600160a01b031661242882611466565b6001600160a01b03161461244e5760405162461bcd60e51b815260040161088a90614f56565b6001600160a01b0382166124b05760405162461bcd60e51b8152602060048201526024808201527f4552433732313a207472616e7366657220746f20746865207a65726f206164646044820152637265737360e01b606482015260840161088a565b6124bd83838360016130a8565b826001600160a01b03166124d082611466565b6001600160a01b0316146124f65760405162461bcd60e51b815260040161088a90614f56565b600081815260696020908152604080832080546001600160a01b03199081169091556001600160a01b0387811680865260688552838620805460001901905590871680865283862080546001019055868652606790945282852080549092168417909155905184937fddf252ad1be2c89b69c2b068fc378daa952ba7f163c4a11628f55a4df523b3ef91a4505050565b61259082826130b4565b60008281526101c460205260409020610ae2908261313b565b60006125b58584613051565b6125d15760405162461bcd60e51b815260040161088a90614eea565b600083815260028601602052604090206125eb9083613051565b6126075760405162461bcd60e51b815260040161088a90614f21565b5060009283526003939093016020908152604080842092845291815281832093835292909252205490565b61263c8282613150565b60008281526101c460205260409020610ae290826131b8565b61112a7fa49807205ce4d355092ef5a8a18f56e8913cf4a201fbe287825b095693c217756120d2565b7f4910fdfa16fed3260ed0e7147f7cc6da11a60208b5b9406d12a635614ffd91435460ff16156126b157610ae2836131cd565b826001600160a01b03166352d1902d6040518163ffffffff1660e01b8152600401602060405180830381865afa92505050801561270b575060408051601f3d908101601f1916820190925261270891810190614f9b565b60015b61276e5760405162461bcd60e51b815260206004820152602e60248201527f45524331393637557067726164653a206e657720696d706c656d656e7461746960448201526d6f6e206973206e6f74205555505360901b606482015260840161088a565b6000805160206155d383398151915281146127dd5760405162461bcd60e51b815260206004820152602960248201527f45524331393637557067726164653a20756e737570706f727465642070726f786044820152681a58589b195555525160ba1b606482015260840161088a565b50610ae2838383613269565b6000611945838361328e565b600061280082611466565b90506128108160008460016130a8565b61281982611466565b600083815260696020908152604080832080546001600160a01b03199081169091556001600160a01b0385168085526068845282852080546000190190558785526067909352818420805490911690555192935084927fddf252ad1be2c89b69c2b068fc378daa952ba7f163c4a11628f55a4df523b3ef908390a45050565b600054610100900460ff166128bf5760405162461bcd60e51b815260040161088a90614fb4565b6109e882826132dd565b600054610100900460ff166128f05760405162461bcd60e51b815260040161088a90614fb4565b6128f8612a4a565b565b600054610100900460ff166111565760405162461bcd60e51b815260040161088a90614fb4565b600054610100900460ff166129485760405162461bcd60e51b815260040161088a90614fb4565b6128f861331d565b600054610100900460ff166129775760405162461bcd60e51b815260040161088a90614fb4565b61297f612a4a565b61298a600033612586565b6129b47fa49807205ce4d355092ef5a8a18f56e8913cf4a201fbe287825b095693c2177533612586565b6129cc60008051602061568083398151915233612586565b6129f67f9f2df0fed2c77648de5860a4cc508cd0818c85b8b8a1ab4ceeef8d981c8956a633612586565b612a207ff18b77e1ef402111bacb54bd5e03494cbdba92fbd1bd3bbcc1ce77e69b42ea6c33612586565b6128f87f52ba824bfabc2bcfcdf7f0edbb486ebb05e1836c90e78047efeb949990f72e5f33612586565b600054610100900460ff166128f85760405162461bcd60e51b815260040161088a90614fb4565b60006119458383613351565b816001600160a01b0316836001600160a01b031603612ade5760405162461bcd60e51b815260206004820152601960248201527f4552433732313a20617070726f766520746f2063616c6c657200000000000000604482015260640161088a565b6001600160a01b038381166000818152606a6020908152604080832094871680845294825291829020805460ff191686151590811790915591519182527f17307eab39ab6107e8899845ad3d59bd9653f200f220920489ca2b5937696c31910160405180910390a3505050565b612b56848484612415565b612b628484848461337b565b6119c45760405162461bcd60e51b815260040161088a90614fff565b6060610b0c612b8c83611d76565b613479565b6000610b0c825490565b612ba58585613051565b612bc15760405162461bcd60e51b815260040161088a90614eea565b60008481526002860160205260409020612bdb9084613051565b612bf75760405162461bcd60e51b815260040161088a90614f21565b6000848152600486016020908152604080832086845282528083208584529091529020611d6e8282614e18565b6060612c308484613051565b612c4c5760405162461bcd60e51b815260040161088a90614eea565b60008381526002850160205260409020612c669083613051565b612c825760405162461bcd60e51b815260040161088a90614f21565b6000838152600585016020908152604080832085845290915290208054612ca890614c6e565b80601f0160208091040260200160405190810160405280929190818152602001828054612cd490614c6e565b8015612d215780601f10612cf657610100808354040283529160200191612d21565b820191906000526020600020905b815481529060010190602001808311612d0457829003601f168201915b505050505090509392505050565b6060612d3b8383613051565b612d575760405162461bcd60e51b815260040161088a90614eea565b600082815260068401602052604090208054612d7290614c6e565b80601f0160208091040260200160405190810160405280929190818152602001828054612d9e90614c6e565b8015612deb5780601f10612dc057610100808354040283529160200191612deb565b820191906000526020600020905b815481529060010190602001808311612dce57829003601f168201915b5050505050905092915050565b60606000612e05836134aa565b60010190506000816001600160401b03811115612e2457612e24614436565b6040519080825280601f01601f191660200182016040528015612e4e576020820181803683370190505b5090508181016020015b600019016f181899199a1a9b1b9c1cb0b131b232b360811b600a86061a8153600a8504945084612e5857509392505050565b6060612e968585613051565b612eb25760405162461bcd60e51b815260040161088a90614eea565b60008481526002860160205260409020612ecc9084613051565b612ee85760405162461bcd60e51b815260040161088a90614f21565b60008481526004860160209081526040808320868452825280832085845290915290208054612f1690614c6e565b80601f0160208091040260200160405190810160405280929190818152602001828054612f4290614c6e565b8015612f8f5780601f10612f6457610100808354040283529160200191612f8f565b820191906000526020600020905b815481529060010190602001808311612f7257829003601f168201915b50505050509050949350505050565b60606000612fab86611466565b90506000610160612fbb88613582565b604051602001612fcc92919061506d565b6040516020818303038152906040529050612fed878388848960028a6135dc565b979650505050505050565b613002828261194c565b6109e85761300f81613628565b61301a83602061363a565b60405160200161302b9291906150f4565b60408051601f198184030181529082905262461bcd60e51b825261088a91600401614641565b60008181526001830160205260408120541515611945565b6109e88282604051806020016040528060008152506137d5565b60006001600160e01b03198216637965db0b60e01b1480610b0c5750610b0c82613808565b6119c484848484613813565b6130be828261194c565b6109e8576000828152610192602090815260408083206001600160a01b03851684529091529020805460ff191660011790556130f73390565b6001600160a01b0316816001600160a01b0316837f2f8788117e7eff1d82e926ec794901d17c78024a50270940304540a733656f0d60405160405180910390a45050565b6000611945836001600160a01b03841661328e565b61315a828261194c565b156109e8576000828152610192602090815260408083206001600160a01b0385168085529252808320805460ff1916905551339285917ff6391f5c32d9c69d2a47ea670b442974b53935d1edc7fd64eb21e047a839171b9190a45050565b6000611945836001600160a01b03841661381f565b6001600160a01b0381163b61323a5760405162461bcd60e51b815260206004820152602d60248201527f455243313936373a206e657720696d706c656d656e746174696f6e206973206e60448201526c1bdd08184818dbdb9d1c9858dd609a1b606482015260840161088a565b6000805160206155d383398151915280546001600160a01b0319166001600160a01b0392909216919091179055565b61327283613912565b60008251118061327f5750805b15610ae2576119c48383613952565b60008181526001830160205260408120546132d557508154600181810184556000848152602080822090930184905584548482528286019093526040902091909155610b0c565b506000610b0c565b600054610100900460ff166133045760405162461bcd60e51b815260040161088a90614fb4565b60656133108382614e18565b506066610ae28282614e18565b600054610100900460ff166133445760405162461bcd60e51b815260040161088a90614fb4565b610224805460ff19169055565b600082600001828154811061336857613368614cf5565b9060005260206000200154905092915050565b60006001600160a01b0384163b1561347157604051630a85bd0160e11b81526001600160a01b0385169063150b7a02906133bf903390899088908890600401615169565b6020604051808303816000875af19250505080156133fa575060408051601f3d908101601f191682019092526133f7918101906151a6565b60015b613457573d808015613428576040519150601f19603f3d011682016040523d82523d6000602084013e61342d565b606091505b50805160000361344f5760405162461bcd60e51b815260040161088a90614fff565b805181602001fd5b6001600160e01b031916630a85bd0160e11b1490506120ca565b5060016120ca565b606061348482613a46565b60405160200161349491906151c3565b6040516020818303038152906040529050919050565b60008072184f03e93ff9f4daa797ed6e38ed64bf6a1f0160401b83106134e95772184f03e93ff9f4daa797ed6e38ed64bf6a1f0160401b830492506040015b6d04ee2d6d415b85acef81000000008310613515576d04ee2d6d415b85acef8100000000830492506020015b662386f26fc10000831061353357662386f26fc10000830492506010015b6305f5e100831061354b576305f5e100830492506008015b612710831061355f57612710830492506004015b60648310613571576064830492506002015b600a8310610b0c5760010192915050565b606060006135946102ba8483806125a9565b90506135a26102ba82612d2f565b6135b4611e9c6102ba868560026125a9565b6040516020016135c5929190615208565b604051602081830303815290604052915050919050565b606060006135ee898989898989613b98565b9050806135fa84613c02565b60405160200161360b929190615244565b604051602081830303815290604052915050979650505050505050565b6060610b0c6001600160a01b03831660145b60606000613649836002615291565b613654906002614ed7565b6001600160401b0381111561366b5761366b614436565b6040519080825280601f01601f191660200182016040528015613695576020820181803683370190505b509050600360fc1b816000815181106136b0576136b0614cf5565b60200101906001600160f81b031916908160001a905350600f60fb1b816001815181106136df576136df614cf5565b60200101906001600160f81b031916908160001a9053506000613703846002615291565b61370e906001614ed7565b90505b6001811115613786576f181899199a1a9b1b9c1cb0b131b232b360811b85600f166010811061374257613742614cf5565b1a60f81b82828151811061375857613758614cf5565b60200101906001600160f81b031916908160001a90535060049490941c9361377f816152b0565b9050613711565b5083156119455760405162461bcd60e51b815260206004820181905260248201527f537472696e67733a20686578206c656e67746820696e73756666696369656e74604482015260640161088a565b6137df8383613df6565b6137ec600084848461337b565b610ae25760405162461bcd60e51b815260040161088a90614fff565b6000610b0c82613f8f565b6119c484848484613fb4565b600081815260018301602052604081205480156139085760006138436001836152c7565b8554909150600090613857906001906152c7565b90508181146138bc57600086600001828154811061387757613877614cf5565b906000526020600020015490508087600001848154811061389a5761389a614cf5565b6000918252602080832090910192909255918252600188019052604090208390555b85548690806138cd576138cd6152da565b600190038181906000526020600020016000905590558560010160008681526020019081526020016000206000905560019350505050610b0c565b6000915050610b0c565b61391b816131cd565b6040516001600160a01b038216907fbc7cd75a20ee27fd9adebab32041f755214dbc6bffa90cc0225b39da2e5c2d3b90600090a250565b60606001600160a01b0383163b6139ba5760405162461bcd60e51b815260206004820152602660248201527f416464726573733a2064656c65676174652063616c6c20746f206e6f6e2d636f6044820152651b9d1c9858dd60d21b606482015260840161088a565b600080846001600160a01b0316846040516139d591906152f0565b600060405180830381855af49150503d8060008114613a10576040519150601f19603f3d011682016040523d82523d6000602084013e613a15565b606091505b5091509150613a3d8282604051806060016040528060278152602001615633602791396140ed565b95945050505050565b60608151600003613a6557505060408051602081019091526000815290565b60006040518060600160405280604081526020016155f36040913990506000600384516002613a949190614ed7565b613a9e919061530c565b613aa9906004615291565b6001600160401b03811115613ac057613ac0614436565b6040519080825280601f01601f191660200182016040528015613aea576020820181803683370190505b509050600182016020820185865187015b80821015613b56576003820191508151603f8160121c168501518453600184019350603f81600c1c168501518453600184019350603f8160061c168501518453600184019350603f8116850151845350600183019250613afb565b5050600386510660018114613b725760028114613b8557613b8d565b603d6001830353603d6002830353613b8d565b603d60018303535b509195945050505050565b606084613ba488612df8565b8486613bb88a6001600160a01b0316613628565b613bd2876002811115613bcd57613bcd614823565b614106565b604051602001613be79695949392919061532e565b60405160208183030381529060405290509695505050505050565b60408051602081019091526000808252606091905b8351811015613de457600060018551613c3091906152c7565b8214613c5557604051806040016040528060018152602001600b60fa1b815250613c66565b604051806020016040528060008152505b90506000858381518110613c7c57613c7c614cf5565b602002602001015160600151613cab57604051806040016040528060018152602001601160f91b815250613cbc565b604051806020016040528060008152505b9050600081878581518110613cd357613cd3614cf5565b60200260200101516040015183604051602001613cf29392919061544d565b60405160208183030381529060405290506000878581518110613d1757613d17614cf5565b60200260200101516020015151600014613d6d57878581518110613d3d57613d3d614cf5565b602002602001015160200151604051602001613d599190615490565b604051602081830303815290604052613d7e565b604051806020016040528060008152505b9050600086898781518110613d9557613d95614cf5565b602002602001015160000151838588604051602001613db89594939291906154d5565b604051602081830303815290604052905080965050505050508080613ddc90614d21565b915050613c17565b50806040516020016135c59190615590565b6001600160a01b038216613e4c5760405162461bcd60e51b815260206004820181905260248201527f4552433732313a206d696e7420746f20746865207a65726f2061646472657373604482015260640161088a565b6000818152606760205260409020546001600160a01b031615613eb15760405162461bcd60e51b815260206004820152601c60248201527f4552433732313a20746f6b656e20616c7265616479206d696e74656400000000604482015260640161088a565b613ebf6000838360016130a8565b6000818152606760205260409020546001600160a01b031615613f245760405162461bcd60e51b815260206004820152601c60248201527f4552433732313a20746f6b656e20616c7265616479206d696e74656400000000604482015260640161088a565b6001600160a01b038216600081815260686020908152604080832080546001019055848352606790915280822080546001600160a01b0319168417905551839291907fddf252ad1be2c89b69c2b068fc378daa952ba7f163c4a11628f55a4df523b3ef908290a45050565b60006001600160e01b0319821663780e9d6360e01b1480610b0c5750610b0c826141a4565b613fc0848484846141f4565b600181111561402f5760405162461bcd60e51b815260206004820152603560248201527f455243373231456e756d657261626c653a20636f6e7365637574697665207472604482015274185b9cd9995c9cc81b9bdd081cdd5c1c1bdc9d1959605a1b606482015260840161088a565b816001600160a01b03851661408b5761408681609980546000838152609a60205260408120829055600182018355919091527f72a152ddfb8e864297c917af52ea6c1c68aead0fee1a62673fcc7e0c94979d000155565b6140ae565b836001600160a01b0316856001600160a01b0316146140ae576140ae858261427c565b6001600160a01b0384166140ca576140c581614319565b612212565b846001600160a01b0316846001600160a01b0316146122125761221284826143c8565b606083156140fc575081611945565b611945838361440c565b6060600282600281111561411c5761411c614823565b1461418257600182600281111561413557614135614823565b1461415d5760405180604001604052806005815260200164045524332360dc1b815250610b0c565b604051806040016040528060078152602001664552433131353560c81b815250610b0c565b505060408051808201909152600681526545524337323160d01b602082015290565b60006001600160e01b031982166380ac58cd60e01b14806141d557506001600160e01b03198216635b5e139f60e01b145b80610b0c57506301ffc9a760e01b6001600160e01b0319831614610b0c565b60018111156119c4576001600160a01b0384161561423a576001600160a01b038416600090815260686020526040812080548392906142349084906152c7565b90915550505b6001600160a01b038316156119c4576001600160a01b03831660009081526068602052604081208054839290614271908490614ed7565b909155505050505050565b600060016142898461157c565b61429391906152c7565b6000838152609860205260409020549091508082146142e6576001600160a01b03841660009081526097602090815260408083208584528252808320548484528184208190558352609890915290208190555b5060009182526098602090815260408084208490556001600160a01b039094168352609781528383209183525290812055565b60995460009061432b906001906152c7565b6000838152609a60205260408120546099805493945090928490811061435357614353614cf5565b90600052602060002001549050806099838154811061437457614374614cf5565b6000918252602080832090910192909255828152609a909152604080822084905585825281205560998054806143ac576143ac6152da565b6001900381819060005260206000200160009055905550505050565b60006143d38361157c565b6001600160a01b039093166000908152609760209081526040808320868452825280832085905593825260989052919091209190915550565b81511561441c5781518083602001fd5b8060405162461bcd60e51b815260040161088a9190614641565b634e487b7160e01b600052604160045260246000fd5b604051608081016001600160401b038111828210171561446e5761446e614436565b60405290565b604051601f8201601f191681016001600160401b038111828210171561449c5761449c614436565b604052919050565b600082601f8301126144b557600080fd5b81356001600160401b038111156144ce576144ce614436565b6144e1601f8201601f1916602001614474565b8181528460208386010111156144f657600080fd5b816020850160208301376000918101602001919091529392505050565b6000806040838503121561452657600080fd5b8235915060208301356001600160401b0381111561454357600080fd5b61454f858286016144a4565b9150509250929050565b80356001600160a01b038116811461457057600080fd5b919050565b600080600083850361012081121561458c57600080fd5b61459585614559565b93506020850135925060e0603f19820112156145b057600080fd5b506040840190509250925092565b6001600160e01b03198116811461112a57600080fd5b6000602082840312156145e657600080fd5b8135611945816145be565b60005b8381101561460c5781810151838201526020016145f4565b50506000910152565b6000815180845261462d8160208601602086016145f1565b601f01601f19169290920160200192915050565b6020815260006119456020830184614615565b60006020828403121561466657600080fd5b5035919050565b6000806040838503121561468057600080fd5b61468983614559565b946020939093013593505050565b6000806000606084860312156146ac57600080fd5b6146b584614559565b92506146c360208501614559565b9150604084013590509250925092565b60006001600160401b038211156146ec576146ec614436565b5060051b60200190565b600082601f83011261470757600080fd5b8135602061471c614717836146d3565b614474565b82815260059290921b8401810191818101908684111561473b57600080fd5b8286015b84811015614756578035835291830191830161473f565b509695505050505050565b60006020828403121561477357600080fd5b81356001600160401b0381111561478957600080fd5b6120ca848285016146f6565b6000602080830181845280855180835260408601915060408160051b870101925083870160005b828110156147ea57603f198886030184526147d8858351614615565b945092850192908501906001016147bc565b5092979650505050505050565b6000806040838503121561480a57600080fd5b8235915061481a60208401614559565b90509250929050565b634e487b7160e01b600052602160045260246000fd5b815160e08201906005811061485e57634e487b7160e01b600052602160045260246000fd5b808352506020830151602083015260408301516040830152606083015160608301526080830151608083015260a083015160a083015260c083015160c083015292915050565b6000602082840312156148b657600080fd5b61194582614559565b6000602082840312156148d157600080fd5b81356001600160401b038111156148e757600080fd5b6120ca848285016144a4565b6000806040838503121561490657600080fd5b61490f83614559565b915060208301356001600160401b0381111561454357600080fd5b80356005811061457057600080fd5b60006020828403121561494b57600080fd5b6119458261492a565b6000806020838503121561496757600080fd5b82356001600160401b038082111561497e57600080fd5b818501915085601f83011261499257600080fd5b8135818111156149a157600080fd5b8660208260051b85010111156149b657600080fd5b60209290920196919550909350505050565b6020808252825182820181905260009190848201906040850190845b81811015614a00578351835292840192918401916001016149e4565b50909695505050505050565b60008060408385031215614a1f57600080fd5b50508035926020909101359150565b60008060408385031215614a4157600080fd5b614a4a83614559565b915060208301358015158114614a5f57600080fd5b809150509250929050565b60008060008060808587031215614a8057600080fd5b614a8985614559565b9350614a9760208601614559565b92506040850135915060608501356001600160401b03811115614ab957600080fd5b614ac5878288016144a4565b91505092959194509250565b60008060408385031215614ae457600080fd5b614aed83614559565b915061481a60208401614559565b600080600060608486031215614b1057600080fd5b614b1984614559565b9250614b2760208501614559565b915060408401356001600160401b03811115614b4257600080fd5b614b4e868287016146f6565b9150509250925092565b60008060408385031215614b6b57600080fd5b823591506020808401356001600160401b0380821115614b8a57600080fd5b818601915086601f830112614b9e57600080fd5b8135614bac614717826146d3565b81815260059190911b83018401908481019089831115614bcb57600080fd5b8585015b83811015614c5d57803585811115614be75760008081fd5b86016080818d03601f1901811315614bff5760008081fd5b614c0761444c565b614c128a840161492a565b815260408301358a820152606080840135604083015282840135925088831115614c3c5760008081fd5b614c4a8f8c858701016144a4565b9082015285525050918601918601614bcf565b508096505050505050509250929050565b600181811c90821680614c8257607f821691505b602082108103614ca257634e487b7160e01b600052602260045260246000fd5b50919050565b6020808252602d908201527f4552433732313a2063616c6c6572206973206e6f7420746f6b656e206f776e6560408201526c1c881bdc88185c1c1c9bdd9959609a1b606082015260800190565b634e487b7160e01b600052603260045260246000fd5b634e487b7160e01b600052601160045260246000fd5b600060018201614d3357614d33614d0b565b5060010190565b6020808252602c908201527f46756e6374696f6e206d7573742062652063616c6c6564207468726f7567682060408201526b19195b1959d85d1958d85b1b60a21b606082015260800190565b6020808252602c908201527f46756e6374696f6e206d7573742062652063616c6c6564207468726f7567682060408201526b6163746976652070726f787960a01b606082015260800190565b601f821115610ae257600081815260208120601f850160051c81016020861015614df95750805b601f850160051c820191505b81811015611d6e57828155600101614e05565b81516001600160401b03811115614e3157614e31614436565b614e4581614e3f8454614c6e565b84614dd2565b602080601f831160018114614e7a5760008415614e625750858301515b600019600386901b1c1916600185901b178555611d6e565b600085815260208120601f198616915b82811015614ea957888601518255948401946001909101908401614e8a565b5085821015614ec75787850151600019600388901b60f8161c191681555b5050505050600190811b01905550565b80820180821115610b0c57610b0c614d0b565b6020808252601f908201527f417474726962757465733a3a4e6f6e2d6578697374656e742074726565496400604082015260600190565b6020808252818101527f417474726962757465733a3a4e6f6e2d6578697374656e7420736b696c6c4964604082015260600190565b60208082526025908201527f4552433732313a207472616e736665722066726f6d20696e636f72726563742060408201526437bbb732b960d91b606082015260800190565b600060208284031215614fad57600080fd5b5051919050565b6020808252602b908201527f496e697469616c697a61626c653a20636f6e7472616374206973206e6f74206960408201526a6e697469616c697a696e6760a81b606082015260800190565b60208082526032908201527f4552433732313a207472616e7366657220746f206e6f6e20455243373231526560408201527131b2b4bb32b91034b6b83632b6b2b73a32b960711b606082015260800190565b600081516150638185602086016145f1565b9290920192915050565b600080845461507b81614c6e565b6001828116801561509357600181146150a8576150d7565b60ff19841687528215158302870194506150d7565b8860005260208060002060005b858110156150ce5781548a8201529084019082016150b5565b50505082870194505b5050505083516150eb8183602088016145f1565b01949350505050565b7f416363657373436f6e74726f6c3a206163636f756e742000000000000000000081526000835161512c8160178501602088016145f1565b7001034b99036b4b9b9b4b733903937b6329607d1b601791840191820152835161515d8160288401602088016145f1565b01602801949350505050565b6001600160a01b038581168252841660208201526040810183905260806060820181905260009061519c90830184614615565b9695505050505050565b6000602082840312156151b857600080fd5b8151611945816145be565b7f646174613a6170706c69636174696f6e2f6a736f6e3b6261736536342c0000008152600082516151fb81601d8501602087016145f1565b91909101601d0192915050565b6000835161521a8184602088016145f1565b602f60f81b90830190815283516152388160018401602088016145f1565b01600101949350505050565b607b60f81b8152600083516152608160018501602088016145f1565b8351908301906152778160018401602088016145f1565b607d60f81b60019290910191820152600201949350505050565b60008160001904831182151516156152ab576152ab614d0b565b500290565b6000816152bf576152bf614d0b565b506000190190565b81810381811115610b0c57610b0c614d0b565b634e487b7160e01b600052603160045260246000fd5b600082516153028184602087016145f1565b9190910192915050565b60008261532957634e487b7160e01b600052601260045260246000fd5b500490565b67113730b6b2911d1160c11b81528651600090615352816008850160208c016145f1565b61088b60f21b60089184019182018190526a113a37b5b2b724b2111d1160a91b600a830152885161538a816015850160208d016145f1565b601592019182018190526e113232b9b1b934b83a34b7b7111d1160891b601783015287516153bf816026850160208c016145f1565b60269201918201526154406153fd61543a6154268261542061540b826153f760288a01681134b6b0b3b2911d1160b91b815260090190565b8e615051565b61088b60f21b815260020190565b681137bbb732b9111d1160b91b815260090190565b8a615051565b67113a3cb832911d1160c11b815260080190565b86615051565b9998505050505050505050565b6000845161545f8184602089016145f1565b8451908301906154738183602089016145f1565b84519101906154868183602088016145f1565b0195945050505050565b6f113234b9b83630bcafba3cb832911d1160811b815281516000906154bc8160108501602087016145f1565b61088b60f21b6010939091019283015250601201919050565b600086516154e7818460208b016145f1565b6e3d913a3930b4ba2fba3cb832911d1160891b908301908152865161551381600f840160208b016145f1565b61088b60f21b600f92909101918201528551615536816011840160208a016145f1565b67113b30b63ab2911d60c11b60119290910191820152845161555f8160198401602089016145f1565b607d60f81b60199290910191820152835161558181601a8401602088016145f1565b01601a01979650505050505050565b6d2261747472696275746573223a5b60901b815281516000906155ba81600e8501602087016145f1565b605d60f81b600e939091019283015250600f0191905056fe360894a13ba1a3210667c828492db98dca3e2076cc3735a920a3ca505d382bbc4142434445464748494a4b4c4d4e4f505152535455565758595a6162636465666768696a6b6c6d6e6f707172737475767778797a303132333435363738392b2f416464726573733a206c6f772d6c6576656c2064656c65676174652063616c6c206661696c656468747470733a2f2f696d616765732e617263616469616e2e67616d652f3842616c6c4375652f364d3d7565c7a8300c96fd53e065d19b65848d7b23b3191adcd55621c744223ca2646970667358221220a598f716aad147ee5335c9dfbc5b3b9d80f6df27db33cde00252f04a4ef611f164736f6c63430008100033",
  "linkReferences": {},
  "deployedLinkReferences": {}
}