{
  "_format": "hh-sol-artifact-1",
  "contractName": "A8BallCue",
  "sourceName": "contracts/A8Ball/Cue/A8BallCue.sol",
  "abi": [
    {
      "inputs": [],
      "stateMutability": "nonpayable",
      "type": "constructor"
    },
    {
      "anonymous": false,
      "inputs": [
        {
          "indexed": false,
          "internalType": "address",
          "name": "previousAdmin",
          "type": "address"
        },
        {
          "indexed": false,
          "internalType": "address",
          "name": "newAdmin",
          "type": "address"
        }
      ],
      "name": "AdminChanged",
      "type": "event"
    },
    {
      "anonymous": false,
      "inputs": [
        {
          "indexed": true,
          "internalType": "address",
          "name": "owner",
          "type": "address"
        },
        {
          "indexed": true,
          "internalType": "address",
          "name": "approved",
          "type": "address"
        },
        {
          "indexed": true,
          "internalType": "uint256",
          "name": "tokenId",
          "type": "uint256"
        }
      ],
      "name": "Approval",
      "type": "event"
    },
    {
      "anonymous": false,
      "inputs": [
        {
          "indexed": true,
          "internalType": "address",
          "name": "owner",
          "type": "address"
        },
        {
          "indexed": true,
          "internalType": "address",
          "name": "operator",
          "type": "address"
        },
        {
          "indexed": false,
          "internalType": "bool",
          "name": "approved",
          "type": "bool"
        }
      ],
      "name": "ApprovalForAll",
      "type": "event"
    },
    {
      "anonymous": false,
      "inputs": [
        {
          "indexed": true,
          "internalType": "address",
          "name": "beacon",
          "type": "address"
        }
      ],
      "name": "BeaconUpgraded",
      "type": "event"
    },
    {
      "anonymous": false,
      "inputs": [
        {
          "indexed": false,
          "internalType": "uint8",
          "name": "version",
          "type": "uint8"
        }
      ],
      "name": "Initialized",
      "type": "event"
    },
    {
      "anonymous": false,
      "inputs": [
        {
          "indexed": false,
          "internalType": "address",
          "name": "account",
          "type": "address"
        }
      ],
      "name": "Paused",
      "type": "event"
    },
    {
      "anonymous": false,
      "inputs": [
        {
          "indexed": true,
          "internalType": "bytes32",
          "name": "role",
          "type": "bytes32"
        },
        {
          "indexed": true,
          "internalType": "bytes32",
          "name": "previousAdminRole",
          "type": "bytes32"
        },
        {
          "indexed": true,
          "internalType": "bytes32",
          "name": "newAdminRole",
          "type": "bytes32"
        }
      ],
      "name": "RoleAdminChanged",
      "type": "event"
    },
    {
      "anonymous": false,
      "inputs": [
        {
          "indexed": true,
          "internalType": "bytes32",
          "name": "role",
          "type": "bytes32"
        },
        {
          "indexed": true,
          "internalType": "address",
          "name": "account",
          "type": "address"
        },
        {
          "indexed": true,
          "internalType": "address",
          "name": "sender",
          "type": "address"
        }
      ],
      "name": "RoleGranted",
      "type": "event"
    },
    {
      "anonymous": false,
      "inputs": [
        {
          "indexed": true,
          "internalType": "bytes32",
          "name": "role",
          "type": "bytes32"
        },
        {
          "indexed": true,
          "internalType": "address",
          "name": "account",
          "type": "address"
        },
        {
          "indexed": true,
          "internalType": "address",
          "name": "sender",
          "type": "address"
        }
      ],
      "name": "RoleRevoked",
      "type": "event"
    },
    {
      "anonymous": false,
      "inputs": [
        {
          "indexed": true,
          "internalType": "address",
          "name": "from",
          "type": "address"
        },
        {
          "indexed": true,
          "internalType": "address",
          "name": "to",
          "type": "address"
        },
        {
          "indexed": true,
          "internalType": "uint256",
          "name": "tokenId",
          "type": "uint256"
        }
      ],
      "name": "Transfer",
      "type": "event"
    },
    {
      "anonymous": false,
      "inputs": [
        {
          "indexed": false,
          "internalType": "address",
          "name": "account",
          "type": "address"
        }
      ],
      "name": "Unpaused",
      "type": "event"
    },
    {
      "anonymous": false,
      "inputs": [
        {
          "indexed": true,
          "internalType": "address",
          "name": "implementation",
          "type": "address"
        }
      ],
      "name": "Upgraded",
      "type": "event"
    },
    {
      "inputs": [],
      "name": "DEFAULT_ADMIN_ROLE",
      "outputs": [
        {
          "internalType": "bytes32",
          "name": "",
          "type": "bytes32"
        }
      ],
      "stateMutability": "view",
      "type": "function"
    },
    {
      "inputs": [
        {
          "internalType": "uint256",
          "name": "collectionId",
          "type": "uint256"
        },
        {
          "internalType": "string",
          "name": "name",
          "type": "string"
        }
      ],
      "name": "addCollection",
      "outputs": [],
      "stateMutability": "nonpayable",
      "type": "function"
    },
    {
      "inputs": [
        {
          "internalType": "uint256",
          "name": "collectionId",
          "type": "uint256"
        },
        {
          "components": [
            {
              "internalType": "enum I8BallCommon.Rarity",
              "name": "rarity",
              "type": "uint8"
            },
            {
              "internalType": "uint256",
              "name": "id",
              "type": "uint256"
            },
            {
              "internalType": "uint256",
              "name": "remaining",
              "type": "uint256"
            },
            {
              "internalType": "string",
              "name": "name",
              "type": "string"
            }
          ],
          "internalType": "struct I8BallCommon.Design[]",
          "name": "designs",
          "type": "tuple[]"
        }
      ],
      "name": "addCollectionDesigns",
      "outputs": [],
      "stateMutability": "nonpayable",
      "type": "function"
    },
    {
      "inputs": [
        {
          "internalType": "address",
          "name": "to",
          "type": "address"
        },
        {
          "internalType": "uint256",
          "name": "tokenId",
          "type": "uint256"
        }
      ],
      "name": "approve",
      "outputs": [],
      "stateMutability": "nonpayable",
      "type": "function"
    },
    {
      "inputs": [
        {
          "internalType": "address",
          "name": "owner",
          "type": "address"
        }
      ],
      "name": "balanceOf",
      "outputs": [
        {
          "internalType": "uint256",
          "name": "",
          "type": "uint256"
        }
      ],
      "stateMutability": "view",
      "type": "function"
    },
    {
      "inputs": [
        {
          "internalType": "uint256[]",
          "name": "tokenIds",
          "type": "uint256[]"
        }
      ],
      "name": "batchTokenURI",
      "outputs": [
        {
          "internalType": "string[]",
          "name": "",
          "type": "string[]"
        }
      ],
      "stateMutability": "view",
      "type": "function"
    },
    {
      "inputs": [
        {
          "internalType": "uint256[]",
          "name": "tokenIds",
          "type": "uint256[]"
        }
      ],
      "name": "batchTokenURIJSON",
      "outputs": [
        {
          "internalType": "string[]",
          "name": "",
          "type": "string[]"
        }
      ],
      "stateMutability": "view",
      "type": "function"
    },
    {
      "inputs": [
        {
          "internalType": "address",
          "name": "from",
          "type": "address"
        },
        {
          "internalType": "address",
          "name": "to",
          "type": "address"
        },
        {
          "internalType": "uint256[]",
          "name": "tokenIds",
          "type": "uint256[]"
        }
      ],
      "name": "batchTransferFrom",
      "outputs": [],
      "stateMutability": "nonpayable",
      "type": "function"
    },
    {
      "inputs": [
        {
          "internalType": "uint256",
          "name": "tokenId",
          "type": "uint256"
        }
      ],
      "name": "burn",
      "outputs": [],
      "stateMutability": "nonpayable",
      "type": "function"
    },
    {
      "inputs": [],
      "name": "getAllTokenIds",
      "outputs": [
        {
          "internalType": "uint256[]",
          "name": "",
          "type": "uint256[]"
        }
      ],
      "stateMutability": "view",
      "type": "function"
    },
    {
      "inputs": [
        {
          "internalType": "uint256",
          "name": "tokenId",
          "type": "uint256"
        }
      ],
      "name": "getApproved",
      "outputs": [
        {
          "internalType": "address",
          "name": "",
          "type": "address"
        }
      ],
      "stateMutability": "view",
      "type": "function"
    },
    {
      "inputs": [
        {
          "internalType": "uint256",
          "name": "tokenId",
          "type": "uint256"
        }
      ],
      "name": "getCue",
      "outputs": [
        {
          "components": [
            {
              "internalType": "enum I8BallCommon.Rarity",
              "name": "rarity",
              "type": "uint8"
            },
            {
              "internalType": "uint256",
              "name": "collectionId",
              "type": "uint256"
            },
            {
              "internalType": "uint256",
              "name": "designId",
              "type": "uint256"
            },
            {
              "internalType": "uint256",
              "name": "power",
              "type": "uint256"
            },
            {
              "internalType": "uint256",
              "name": "accuracy",
              "type": "uint256"
            },
            {
              "internalType": "uint256",
              "name": "spin",
              "type": "uint256"
            },
            {
              "internalType": "uint256",
              "name": "time",
              "type": "uint256"
            }
          ],
          "internalType": "struct I8BallCommon.Cue",
          "name": "",
          "type": "tuple"
        }
      ],
      "stateMutability": "view",
      "type": "function"
    },
    {
      "inputs": [
        {
          "internalType": "bytes32",
          "name": "role",
          "type": "bytes32"
        }
      ],
      "name": "getRoleAdmin",
      "outputs": [
        {
          "internalType": "bytes32",
          "name": "",
          "type": "bytes32"
        }
      ],
      "stateMutability": "view",
      "type": "function"
    },
    {
      "inputs": [
        {
          "internalType": "bytes32",
          "name": "role",
          "type": "bytes32"
        },
        {
          "internalType": "uint256",
          "name": "index",
          "type": "uint256"
        }
      ],
      "name": "getRoleMember",
      "outputs": [
        {
          "internalType": "address",
          "name": "",
          "type": "address"
        }
      ],
      "stateMutability": "view",
      "type": "function"
    },
    {
      "inputs": [
        {
          "internalType": "bytes32",
          "name": "role",
          "type": "bytes32"
        }
      ],
      "name": "getRoleMemberCount",
      "outputs": [
        {
          "internalType": "uint256",
          "name": "",
          "type": "uint256"
        }
      ],
      "stateMutability": "view",
      "type": "function"
    },
    {
      "inputs": [
        {
          "internalType": "bytes32",
          "name": "role",
          "type": "bytes32"
        },
        {
          "internalType": "address",
          "name": "account",
          "type": "address"
        }
      ],
      "name": "grantRole",
      "outputs": [],
      "stateMutability": "nonpayable",
      "type": "function"
    },
    {
      "inputs": [
        {
          "internalType": "bytes32",
          "name": "role",
          "type": "bytes32"
        },
        {
          "internalType": "address",
          "name": "account",
          "type": "address"
        }
      ],
      "name": "hasRole",
      "outputs": [
        {
          "internalType": "bool",
          "name": "",
          "type": "bool"
        }
      ],
      "stateMutability": "view",
      "type": "function"
    },
    {
      "inputs": [],
      "name": "imageBaseURI",
      "outputs": [
        {
          "internalType": "string",
          "name": "",
          "type": "string"
        }
      ],
      "stateMutability": "view",
      "type": "function"
    },
    {
      "inputs": [],
      "name": "initialize",
      "outputs": [],
      "stateMutability": "nonpayable",
      "type": "function"
    },
    {
      "inputs": [
        {
          "internalType": "address",
          "name": "owner",
          "type": "address"
        },
        {
          "internalType": "address",
          "name": "operator",
          "type": "address"
        }
      ],
      "name": "isApprovedForAll",
      "outputs": [
        {
          "internalType": "bool",
          "name": "",
          "type": "bool"
        }
      ],
      "stateMutability": "view",
      "type": "function"
    },
    {
      "inputs": [
        {
          "internalType": "enum I8BallCommon.Rarity",
          "name": "rarity",
          "type": "uint8"
        }
      ],
      "name": "maxLevel",
      "outputs": [
        {
          "internalType": "uint256",
          "name": "",
          "type": "uint256"
        }
      ],
      "stateMutability": "pure",
      "type": "function"
    },
    {
      "inputs": [
        {
          "internalType": "address",
          "name": "to",
          "type": "address"
        },
        {
          "internalType": "uint256",
          "name": "tokenId",
          "type": "uint256"
        },
        {
          "components": [
            {
              "internalType": "enum I8BallCommon.Rarity",
              "name": "rarity",
              "type": "uint8"
            },
            {
              "internalType": "uint256",
              "name": "collectionId",
              "type": "uint256"
            },
            {
              "internalType": "uint256",
              "name": "designId",
              "type": "uint256"
            },
            {
              "internalType": "uint256",
              "name": "power",
              "type": "uint256"
            },
            {
              "internalType": "uint256",
              "name": "accuracy",
              "type": "uint256"
            },
            {
              "internalType": "uint256",
              "name": "spin",
              "type": "uint256"
            },
            {
              "internalType": "uint256",
              "name": "time",
              "type": "uint256"
            }
          ],
          "internalType": "struct I8BallCommon.Cue",
          "name": "cue",
          "type": "tuple"
        }
      ],
      "name": "mint",
      "outputs": [],
      "stateMutability": "nonpayable",
      "type": "function"
    },
    {
      "inputs": [],
      "name": "name",
      "outputs": [
        {
          "internalType": "string",
          "name": "",
          "type": "string"
        }
      ],
      "stateMutability": "view",
      "type": "function"
    },
    {
      "inputs": [
        {
          "internalType": "uint256",
          "name": "tokenId",
          "type": "uint256"
        }
      ],
      "name": "ownerOf",
      "outputs": [
        {
          "internalType": "address",
          "name": "",
          "type": "address"
        }
      ],
      "stateMutability": "view",
      "type": "function"
    },
    {
      "inputs": [],
      "name": "paused",
      "outputs": [
        {
          "internalType": "bool",
          "name": "",
          "type": "bool"
        }
      ],
      "stateMutability": "view",
      "type": "function"
    },
    {
      "inputs": [],
      "name": "proxiableUUID",
      "outputs": [
        {
          "internalType": "bytes32",
          "name": "",
          "type": "bytes32"
        }
      ],
      "stateMutability": "view",
      "type": "function"
    },
    {
      "inputs": [
        {
          "internalType": "bytes32",
          "name": "role",
          "type": "bytes32"
        },
        {
          "internalType": "address",
          "name": "account",
          "type": "address"
        }
      ],
      "name": "renounceRole",
      "outputs": [],
      "stateMutability": "nonpayable",
      "type": "function"
    },
    {
      "inputs": [
        {
          "internalType": "bytes32",
          "name": "role",
          "type": "bytes32"
        },
        {
          "internalType": "address",
          "name": "account",
          "type": "address"
        }
      ],
      "name": "revokeRole",
      "outputs": [],
      "stateMutability": "nonpayable",
      "type": "function"
    },
    {
      "inputs": [
        {
          "internalType": "address",
          "name": "from",
          "type": "address"
        },
        {
          "internalType": "address",
          "name": "to",
          "type": "address"
        },
        {
          "internalType": "uint256",
          "name": "tokenId",
          "type": "uint256"
        }
      ],
      "name": "safeTransferFrom",
      "outputs": [],
      "stateMutability": "nonpayable",
      "type": "function"
    },
    {
      "inputs": [
        {
          "internalType": "address",
          "name": "from",
          "type": "address"
        },
        {
          "internalType": "address",
          "name": "to",
          "type": "address"
        },
        {
          "internalType": "uint256",
          "name": "tokenId",
          "type": "uint256"
        },
        {
          "internalType": "bytes",
          "name": "data",
          "type": "bytes"
        }
      ],
      "name": "safeTransferFrom",
      "outputs": [],
      "stateMutability": "nonpayable",
      "type": "function"
    },
    {
      "inputs": [
        {
          "internalType": "address",
          "name": "operator",
          "type": "address"
        },
        {
          "internalType": "bool",
          "name": "approved",
          "type": "bool"
        }
      ],
      "name": "setApprovalForAll",
      "outputs": [],
      "stateMutability": "nonpayable",
      "type": "function"
    },
    {
      "inputs": [
        {
          "internalType": "string",
          "name": "_imageBaseURI",
          "type": "string"
        }
      ],
      "name": "setImageBaseUri",
      "outputs": [],
      "stateMutability": "nonpayable",
      "type": "function"
    },
    {
      "inputs": [
        {
          "internalType": "bytes4",
          "name": "interfaceId",
          "type": "bytes4"
        }
      ],
      "name": "supportsInterface",
      "outputs": [
        {
          "internalType": "bool",
          "name": "",
          "type": "bool"
        }
      ],
      "stateMutability": "view",
      "type": "function"
    },
    {
      "inputs": [],
      "name": "symbol",
      "outputs": [
        {
          "internalType": "string",
          "name": "",
          "type": "string"
        }
      ],
      "stateMutability": "view",
      "type": "function"
    },
    {
      "inputs": [
        {
          "internalType": "uint256",
          "name": "index",
          "type": "uint256"
        }
      ],
      "name": "tokenByIndex",
      "outputs": [
        {
          "internalType": "uint256",
          "name": "",
          "type": "uint256"
        }
      ],
      "stateMutability": "view",
      "type": "function"
    },
    {
      "inputs": [
        {
          "internalType": "address",
          "name": "owner",
          "type": "address"
        },
        {
          "internalType": "uint256",
          "name": "index",
          "type": "uint256"
        }
      ],
      "name": "tokenOfOwnerByIndex",
      "outputs": [
        {
          "internalType": "uint256",
          "name": "",
          "type": "uint256"
        }
      ],
      "stateMutability": "view",
      "type": "function"
    },
    {
      "inputs": [
        {
          "internalType": "uint256",
          "name": "tokenId",
          "type": "uint256"
        }
      ],
      "name": "tokenURI",
      "outputs": [
        {
          "internalType": "string",
          "name": "",
          "type": "string"
        }
      ],
      "stateMutability": "view",
      "type": "function"
    },
    {
      "inputs": [
        {
          "internalType": "uint256",
          "name": "tokenId",
          "type": "uint256"
        }
      ],
      "name": "tokenURIJSON",
      "outputs": [
        {
          "internalType": "string",
          "name": "",
          "type": "string"
        }
      ],
      "stateMutability": "view",
      "type": "function"
    },
    {
      "inputs": [
        {
          "internalType": "address",
          "name": "owner",
          "type": "address"
        }
      ],
      "name": "tokensOfOwner",
      "outputs": [
        {
          "internalType": "uint256[]",
          "name": "",
          "type": "uint256[]"
        }
      ],
      "stateMutability": "view",
      "type": "function"
    },
    {
      "inputs": [],
      "name": "totalSupply",
      "outputs": [
        {
          "internalType": "uint256",
          "name": "",
          "type": "uint256"
        }
      ],
      "stateMutability": "view",
      "type": "function"
    },
    {
      "inputs": [
        {
          "internalType": "address",
          "name": "from",
          "type": "address"
        },
        {
          "internalType": "address",
          "name": "to",
          "type": "address"
        },
        {
          "internalType": "uint256",
          "name": "tokenId",
          "type": "uint256"
        }
      ],
      "name": "transferFrom",
      "outputs": [],
      "stateMutability": "nonpayable",
      "type": "function"
    },
    {
      "inputs": [
        {
          "internalType": "address",
          "name": "owner",
          "type": "address"
        },
        {
          "internalType": "uint256",
          "name": "tokenId",
          "type": "uint256"
        },
        {
          "components": [
            {
              "internalType": "enum I8BallCommon.Rarity",
              "name": "rarity",
              "type": "uint8"
            },
            {
              "internalType": "uint256",
              "name": "collectionId",
              "type": "uint256"
            },
            {
              "internalType": "uint256",
              "name": "designId",
              "type": "uint256"
            },
            {
              "internalType": "uint256",
              "name": "power",
              "type": "uint256"
            },
            {
              "internalType": "uint256",
              "name": "accuracy",
              "type": "uint256"
            },
            {
              "internalType": "uint256",
              "name": "spin",
              "type": "uint256"
            },
            {
              "internalType": "uint256",
              "name": "time",
              "type": "uint256"
            }
          ],
          "internalType": "struct I8BallCommon.Cue",
          "name": "cue",
          "type": "tuple"
        }
      ],
      "name": "upgradeCue",
      "outputs": [],
      "stateMutability": "nonpayable",
      "type": "function"
    },
    {
      "inputs": [
        {
          "internalType": "address",
          "name": "newImplementation",
          "type": "address"
        }
      ],
      "name": "upgradeTo",
      "outputs": [],
      "stateMutability": "nonpayable",
      "type": "function"
    },
    {
      "inputs": [
        {
          "internalType": "address",
          "name": "newImplementation",
          "type": "address"
        },
        {
          "internalType": "bytes",
          "name": "data",
          "type": "bytes"
        }
      ],
      "name": "upgradeToAndCall",
      "outputs": [],
      "stateMutability": "payable",
      "type": "function"
    }
  ],
  "bytecode": "0x60a0604052306080523480156200001557600080fd5b506200002062000026565b620000e8565b600054610100900460ff1615620000935760405162461bcd60e51b815260206004820152602760248201527f496e697469616c697a61626c653a20636f6e747261637420697320696e697469604482015266616c697a696e6760c81b606482015260840160405180910390fd5b60005460ff9081161015620000e6576000805460ff191660ff9081179091556040519081527f7f26b83ff96e1f2b6a682f133852f6798a09c465da95921460cefb38474024989060200160405180910390a15b565b60805161561e6200012060003960008181611058015281816110980152818161121a0152818161125a015261137c015261561e6000f3fe6080604052600436106102675760003560e01c80635d93d6a411610144578063a22cb465116100b6578063d547741f1161007a578063d547741f1461073e578063e985e9c51461075e578063f3993d11146107a7578063fd2de539146107c7578063fd80e45a146107e7578063fe459f5c1461080757600080fd5b8063a22cb465146106a9578063b88d4fde146106c9578063bdbed722146106e9578063c87b56dd146106fe578063ca15c8731461071e57600080fd5b80638129fc1c116101085780638129fc1c146105fd5780638462151c146106125780639010d07c1461063f57806391d148541461065f57806395d89b411461067f578063a217fddf1461069457600080fd5b80635d93d6a4146105685780636352211e146105885780636d94f13a146105a857806370a08231146105c857806377645839146105e857600080fd5b80632f745c59116101dd57806342842e0e116101a157806342842e0e146104c757806342966c68146104e75780634f1ef286146105075780634f6ccce71461051a57806352d1902d1461053a5780635c975abb1461054f57600080fd5b80632f745c591461041a57806334985b991461043a57806336568abe146104675780633659cfe61461048757806339b92bbb146104a757600080fd5b8063095ea7b31161022f578063095ea7b31461033d57806318160ddd1461035d57806323b872dd1461037c578063248a9ca31461039c5780632c303493146103cd5780632f2ff15d146103fa57600080fd5b8063014979f61461026c57806301e65df11461028e57806301ffc9a7146102ae57806306fdde03146102e3578063081812fc14610305575b600080fd5b34801561027857600080fd5b5061028c61028736600461445c565b610827565b005b34801561029a57600080fd5b5061028c6102a93660046144be565b6109ec565b3480156102ba57600080fd5b506102ce6102c936600461451d565b610ae7565b60405190151581526020015b60405180910390f35b3480156102ef57600080fd5b506102f8610b12565b6040516102da919061458a565b34801561031157600080fd5b5061032561032036600461459d565b610ba4565b6040516001600160a01b0390911681526020016102da565b34801561034957600080fd5b5061028c6103583660046145b6565b610bcb565b34801561036957600080fd5b506099545b6040519081526020016102da565b34801561038857600080fd5b5061028c6103973660046145e0565b610cdb565b3480156103a857600080fd5b5061036e6103b736600461459d565b6000908152610192602052604090206001015490565b3480156103d957600080fd5b506103ed6103e83660046146aa565b610d0c565b6040516102da91906146de565b34801561040657600080fd5b5061028c610415366004614740565b610dc4565b34801561042657600080fd5b5061036e6104353660046145b6565b610dea565b34801561044657600080fd5b5061045a61045536600461459d565b610e80565b6040516102da9190614782565b34801561047357600080fd5b5061028c610482366004614740565b610fd4565b34801561049357600080fd5b5061028c6104a23660046147ed565b61104e565b3480156104b357600080fd5b5061028c6104c2366004614808565b61112d565b3480156104d357600080fd5b5061028c6104e23660046145e0565b611163565b3480156104f357600080fd5b5061028c61050236600461459d565b61117e565b61028c61051536600461483c565b611210565b34801561052657600080fd5b5061036e61053536600461459d565b6112dc565b34801561054657600080fd5b5061036e61136f565b34801561055b57600080fd5b506102245460ff166102ce565b34801561057457600080fd5b5061036e610583366004614882565b611422565b34801561059457600080fd5b506103256105a336600461459d565b611466565b3480156105b457600080fd5b506103ed6105c336600461489d565b6114c6565b3480156105d457600080fd5b5061036e6105e33660046147ed565b61157c565b3480156105f457600080fd5b506102f8611602565b34801561060957600080fd5b5061028c611691565b34801561061e57600080fd5b5061063261062d3660046147ed565b611893565b6040516102da9190614911565b34801561064b57600080fd5b5061032561065a366004614955565b61192c565b34801561066b57600080fd5b506102ce61067a366004614740565b61194c565b34801561068b57600080fd5b506102f8611978565b3480156106a057600080fd5b5061036e600081565b3480156106b557600080fd5b5061028c6106c4366004614977565b611987565b3480156106d557600080fd5b5061028c6106e43660046149b3565b611992565b3480156106f557600080fd5b506106326119ca565b34801561070a57600080fd5b506102f861071936600461459d565b611ad2565b34801561072a57600080fd5b5061036e61073936600461459d565b611add565b34801561074a57600080fd5b5061028c610759366004614740565b611af5565b34801561076a57600080fd5b506102ce610779366004614a1a565b6001600160a01b039182166000908152606a6020908152604080832093909416825291909152205460ff1690565b3480156107b357600080fd5b5061028c6107c2366004614a44565b611b1b565b3480156107d357600080fd5b5061028c6107e2366004614aa1565b611b5d565b3480156107f357600080fd5b5061028c6108023660046144be565b611be8565b34801561081357600080fd5b506102f861082236600461459d565b611cb7565b61083e6000805160206155c9833981519152612013565b600082116108935760405162461bcd60e51b815260206004820152601e60248201527f3842616c6c4375653a3a496e76616c696420636f6c6c656374696f6e4964000060448201526064015b60405180910390fd5b6108a06102ba838361201d565b604080518082019091526008815267426972746864617960c01b60208201526108d1906102ba908490600090612097565b60408051808201909152600681526552617269747960d01b6020820152610900906102ba908490600190612097565b6040805180820190915260068152652232b9b4b3b760d11b602082015261092f906102ba908490600290612097565b6040805180820190915260058152642837bbb2b960d91b602082015261095d906102ba908490600390612097565b604080518082019091526008815267416363757261637960c01b602082015261098e906102ba908490600490612097565b60408051808201909152600481526329b834b760e11b60208201526109bb906102ba908490600590612097565b60408051808201909152600481526354696d6560e01b60208201526109e8906102ba908490600690612097565b5050565b610a036000805160206155c9833981519152612013565b610a0d838361215a565b610a216102ba836000806020860135612164565b610a356102ba836020840135600042612164565b610a6a8260208301803590600190610a4d9086614882565b6004811115610a5e57610a5e61476c565b6102ba93929190612164565b610a826102ba83602084013560026040860135612164565b610a9a6102ba83602084013560036060860135612164565b610ab26102ba83602084013560046080860135612164565b610aca6102ba836020840135600560a0860135612164565b610ae26102ba836020840135600660c0860135612164565b505050565b600063285841f160e11b6001600160e01b031983161480610b0c5750610b0c826121e6565b92915050565b606060658054610b2190614bb7565b80601f0160208091040260200160405190810160405280929190818152602001828054610b4d90614bb7565b8015610b9a5780601f10610b6f57610100808354040283529160200191610b9a565b820191906000526020600020905b815481529060010190602001808311610b7d57829003601f168201915b5050505050905090565b6000610baf8261220b565b506000908152606960205260409020546001600160a01b031690565b6000610bd682611466565b9050806001600160a01b0316836001600160a01b031603610c435760405162461bcd60e51b815260206004820152602160248201527f4552433732313a20617070726f76616c20746f2063757272656e74206f776e656044820152603960f91b606482015260840161088a565b336001600160a01b0382161480610c5f5750610c5f8133610779565b610cd15760405162461bcd60e51b815260206004820152603d60248201527f4552433732313a20617070726f76652063616c6c6572206973206e6f7420746f60448201527f6b656e206f776e6572206f7220617070726f76656420666f7220616c6c000000606482015260840161088a565b610ae2838361226a565b610ce533826122d8565b610d015760405162461bcd60e51b815260040161088a90614bf1565b610ae2838383612356565b6060600082516001600160401b03811115610d2957610d2961437f565b604051908082528060200260200182016040528015610d5c57816020015b6060815260200190600190039081610d475790505b50905060005b8351811015610dbd57610d8d848281518110610d8057610d80614c3e565b6020026020010151611cb7565b828281518110610d9f57610d9f614c3e565b60200260200101819052508080610db590614c6a565b915050610d62565b5092915050565b60008281526101926020526040902060010154610de081612013565b610ae283836124c7565b6000610df58361157c565b8210610e575760405162461bcd60e51b815260206004820152602b60248201527f455243373231456e756d657261626c653a206f776e657220696e646578206f7560448201526a74206f6620626f756e647360a81b606482015260840161088a565b506001600160a01b03919091166000908152609760209081526040808320938352929052205490565b610ec16040805160e0810190915280600081526020016000815260200160008152602001600081526020016000815260200160008152602001600081525090565b6000610ed16102ba8483806124ea565b905060008111610f235760405162461bcd60e51b815260206004820152601a60248201527f3842616c6c4375653a3a496e76616c696420546f6b656e204944000000000000604482015260640161088a565b6040805160e0810190915280610f3e6102ba868560016124ea565b6004811115610f4f57610f4f61476c565b6004811115610f6057610f6061476c565b815260208101839052604001610f7b6102ba868560026124ea565b8152602001610f8f6102ba868560036124ea565b8152602001610fa36102ba868560046124ea565b8152602001610fb76102ba868560056124ea565b8152602001610fcb6102ba868560066124ea565b90529392505050565b6001600160a01b03811633146110445760405162461bcd60e51b815260206004820152602f60248201527f416363657373436f6e74726f6c3a2063616e206f6e6c792072656e6f756e636560448201526e103937b632b9903337b91039b2b63360891b606482015260840161088a565b6109e88282612573565b6001600160a01b037f00000000000000000000000000000000000000000000000000000000000000001630036110965760405162461bcd60e51b815260040161088a90614c83565b7f00000000000000000000000000000000000000000000000000000000000000006001600160a01b03166110df60008051602061551c833981519152546001600160a01b031690565b6001600160a01b0316146111055760405162461bcd60e51b815260040161088a90614ccf565b61110e81612596565b6040805160008082526020820190925261112a918391906125bf565b50565b6111567fa49807205ce4d355092ef5a8a18f56e8913cf4a201fbe287825b095693c21775612013565b6101606109e88282614d61565b610ae283838360405180602001604052806000815250611992565b61118833826122d8565b6111fa5760405162461bcd60e51b815260206004820152603860248201527f4552433732314275726e61626c6556323a2063616c6c6572206973206e6f742060448201527f746f6b656e206f776e6572206e6f7220617070726f7665640000000000000000606482015260840161088a565b61120661012d8261272a565b5061112a81612736565b6001600160a01b037f00000000000000000000000000000000000000000000000000000000000000001630036112585760405162461bcd60e51b815260040161088a90614c83565b7f00000000000000000000000000000000000000000000000000000000000000006001600160a01b03166112a160008051602061551c833981519152546001600160a01b031690565b6001600160a01b0316146112c75760405162461bcd60e51b815260040161088a90614ccf565b6112d082612596565b6109e8828260016125bf565b60006112e760995490565b821061134a5760405162461bcd60e51b815260206004820152602c60248201527f455243373231456e756d657261626c653a20676c6f62616c20696e646578206f60448201526b7574206f6620626f756e647360a01b606482015260840161088a565b6099828154811061135d5761135d614c3e565b90600052602060002001549050919050565b6000306001600160a01b037f0000000000000000000000000000000000000000000000000000000000000000161461140f5760405162461bcd60e51b815260206004820152603860248201527f555550535570677261646561626c653a206d757374206e6f742062652063616c60448201527f6c6564207468726f7567682064656c656761746563616c6c0000000000000000606482015260840161088a565b5060008051602061551c83398151915290565b6000808260048111156114375761143761476c565b1461145e5781600481111561144e5761144e61476c565b611459906006614e20565b610b0c565b600592915050565b6000818152606760205260408120546001600160a01b031680610b0c5760405162461bcd60e51b8152602060048201526018602482015277115490cdcc8c4e881a5b9d985b1a59081d1bdad95b88125160421b604482015260640161088a565b60606000826001600160401b038111156114e2576114e261437f565b60405190808252806020026020018201604052801561151557816020015b60608152602001906001900390816115005790505b50905060005b838110156115745761154485858381811061153857611538614c3e565b90506020020135611ad2565b82828151811061155657611556614c3e565b6020026020010181905250808061156c90614c6a565b91505061151b565b509392505050565b60006001600160a01b0382166115e65760405162461bcd60e51b815260206004820152602960248201527f4552433732313a2061646472657373207a65726f206973206e6f7420612076616044820152683634b21037bbb732b960b91b606482015260840161088a565b506001600160a01b031660009081526068602052604090205490565b610160805461161090614bb7565b80601f016020809104026020016040519081016040528092919081815260200182805461163c90614bb7565b80156116895780601f1061165e57610100808354040283529160200191611689565b820191906000526020600020905b81548152906001019060200180831161166c57829003601f168201915b505050505081565b600054610100900460ff16158080156116b15750600054600160ff909116105b806116cb5750303b1580156116cb575060005460ff166001145b61172e5760405162461bcd60e51b815260206004820152602e60248201527f496e697469616c697a61626c653a20636f6e747261637420697320616c72656160448201526d191e481a5b9a5d1a585b1a5e995960921b606482015260840161088a565b6000805460ff191660011790558015611751576000805461ff0019166101001790555b61179b604051806040016040528060088152602001673842616c6c43756560c01b815250604051806040016040528060088152602001673842414c4c43554560c01b8152506127d9565b6117a361280a565b6117c46040518060600160405280602681526020016155a36026913961283b565b6117cc612862565b6117d4612891565b6117dc61280a565b6117e461298b565b60408051808201909152600d81526c436f7265204d6574616461746160981b6020820152611818906102ba9060009061201d565b60408051808201909152600a81526921b7b63632b1ba34b7b760b11b602082015261184b906102ba906000908190612097565b801561112a576000805461ff0019169055604051600181527f7f26b83ff96e1f2b6a682f133852f6798a09c465da95921460cefb38474024989060200160405180910390a150565b606060006118a08361157c565b90506000816001600160401b038111156118bc576118bc61437f565b6040519080825280602002602001820160405280156118e5578160200160208202803683370190505b50905060005b82811015611574576118fd8582610dea565b82828151811061190f5761190f614c3e565b60209081029190910101528061192481614c6a565b9150506118eb565b60008281526101c46020526040812061194590836129b2565b9392505050565b6000918252610192602090815260408084206001600160a01b0393909316845291905290205460ff1690565b606060668054610b2190614bb7565b6109e83383836129be565b61199c33836122d8565b6119b85760405162461bcd60e51b815260040161088a90614bf1565b6119c484848484612a8c565b50505050565b6060600060015b612710811015611a18576000818152606760205260409020546001600160a01b031615611a065781611a0281614c6a565b9250505b80611a1081614c6a565b9150506119d1565b506000816001600160401b03811115611a3357611a3361437f565b604051908082528060200260200182016040528015611a5c578160200160208202803683370190505b509050600060015b612710811015611ac9576000818152606760205260409020546001600160a01b031615611ab75780838381518110611a9e57611a9e614c3e565b602090810291909101015281611ab381614c6a565b9250505b80611ac181614c6a565b915050611a64565b50909392505050565b6060610b0c82612abf565b60008181526101c460205260408120610b0c90612ad2565b60008281526101926020526040902060010154611b1181612013565b610ae28383612573565b60005b81518110156119c457611b4b8484848481518110611b3e57611b3e614c3e565b6020026020010151610cdb565b80611b5581614c6a565b915050611b1e565b611b746000805160206155c9833981519152612013565b60005b8151811015610ae257611bd6836002848481518110611b9857611b98614c3e565b602002602001015160200151858581518110611bb657611bb6614c3e565b6020026020010151606001516102ba612adc90949392919063ffffffff16565b80611be081614c6a565b915050611b77565b611bff6000805160206155c9833981519152612013565b611c0983836122d8565b611c555760405162461bcd60e51b815260206004820152601f60248201527f3842616c6c4375653a3a4e6f7420617070726f766564206f72206f776e657200604482015260640161088a565b6000611c656102ba8483806124ea565b9050611c7b6102ba848360036060870135612164565b611c8f6102ba848360046080870135612164565b611ca36102ba8483600560a0870135612164565b6119c46102ba8483600660c0870135612164565b60606000611cc96102ba8483806124ea565b604080516007808252610100820190925291925060009190816020015b611d1360405180608001604052806060815260200160608152602001606081526020016000151581525090565b815260200190600190039081611ce6575050604080516080810190915290915080611d426102ba600080612b6d565b815260408051602081810183526000825283015201611d636102ba85612c78565b81526020016000151581525081600081518110611d8257611d82614c3e565b6020908102919091010152604080516080810190915280611da76102ba856000612b6d565b815260408051808201825260048152636461746560e01b60208281019190915283015201611de2611ddd6102ba888760006124ea565b612d41565b81526020016001151581525081600181518110611e0157611e01614c3e565b6020908102919091010152604080516080810190915280611e266102ba856001612b6d565b815260408051602081810183526000825280840191909152815160e081018352600660a082019081526521b7b6b6b7b760d11b60c083015281528251808401845260088152672ab731b7b6b6b7b760c11b8184015281830152825180840184526004808252635261726560e01b828501528285019190915283518085018552908152634570696360e01b8184015260608201528251808401845260098152684c6567656e6461727960b81b928101929092526080810191909152910190611ef26102ba888760016124ea565b60058110611f0257611f02614c3e565b602002015181526020016000151581525081600281518110611f2657611f26614c3e565b602090810291909101015260035b6007811015611fb857604080516080810190915280611f566102ba8685612b6d565b815260408051602081810183526000825283015201611f7c611ddd6102ba8988876124ea565b815260200160011515815250828281518110611f9a57611f9a614c3e565b60200260200101819052508080611fb090614c6a565b915050611f34565b5061200b84611fdc846002611fd16102ba8584846124ea565b6102ba929190612dd3565b6040518060400160405280601081526020016f43727970746f203842616c6c2043756560801b81525084612ee7565b949350505050565b61112a8133612f41565b612027838361272a565b61207d5760405162461bcd60e51b815260206004820152602160248201527f417474726962757465733a3a54726565496420616c72656164792065786973746044820152607360f81b606482015260840161088a565b600082815260068401602052604090206119c48282614d61565b6120a18484612f9a565b6120bd5760405162461bcd60e51b815260040161088a90614e33565b600083815260028501602052604090206120d7908361272a565b61212e5760405162461bcd60e51b815260206004820152602260248201527f417474726962757465733a3a536b696c6c496420616c72656164792065786973604482015261747360f01b606482015260840161088a565b6000838152600585016020908152604080832085845290915290206121538282614d61565b5050505050565b6109e88282612fb2565b61216e8584612f9a565b61218a5760405162461bcd60e51b815260040161088a90614e33565b600083815260028601602052604090206121a49083612f9a565b6121c05760405162461bcd60e51b815260040161088a90614e6a565b600093845260039094016020908152604080852093855292815282842091845252902055565b60006001600160e01b03198216635a05180f60e01b1480610b0c5750610b0c82612fcc565b6000818152606760205260409020546001600160a01b031661112a5760405162461bcd60e51b8152602060048201526018602482015277115490cdcc8c4e881a5b9d985b1a59081d1bdad95b88125160421b604482015260640161088a565b600081815260696020526040902080546001600160a01b0319166001600160a01b038416908117909155819061229f82611466565b6001600160a01b03167f8c5be1e5ebec7d5bd14f71427d1e84f3dd0314c0f7b2291e5b200ac8c7c3b92560405160405180910390a45050565b6000806122e483611466565b9050806001600160a01b0316846001600160a01b0316148061232b57506001600160a01b038082166000908152606a602090815260408083209388168352929052205460ff165b8061200b5750836001600160a01b031661234484610ba4565b6001600160a01b031614949350505050565b826001600160a01b031661236982611466565b6001600160a01b03161461238f5760405162461bcd60e51b815260040161088a90614e9f565b6001600160a01b0382166123f15760405162461bcd60e51b8152602060048201526024808201527f4552433732313a207472616e7366657220746f20746865207a65726f206164646044820152637265737360e01b606482015260840161088a565b6123fe8383836001612ff1565b826001600160a01b031661241182611466565b6001600160a01b0316146124375760405162461bcd60e51b815260040161088a90614e9f565b600081815260696020908152604080832080546001600160a01b03199081169091556001600160a01b0387811680865260688552838620805460001901905590871680865283862080546001019055868652606790945282852080549092168417909155905184937fddf252ad1be2c89b69c2b068fc378daa952ba7f163c4a11628f55a4df523b3ef91a4505050565b6124d18282612ffd565b60008281526101c460205260409020610ae29082613084565b60006124f68584612f9a565b6125125760405162461bcd60e51b815260040161088a90614e33565b6000838152600286016020526040902061252c9083612f9a565b6125485760405162461bcd60e51b815260040161088a90614e6a565b5060009283526003939093016020908152604080842092845291815281832093835292909252205490565b61257d8282613099565b60008281526101c460205260409020610ae29082613101565b61112a7fa49807205ce4d355092ef5a8a18f56e8913cf4a201fbe287825b095693c21775612013565b7f4910fdfa16fed3260ed0e7147f7cc6da11a60208b5b9406d12a635614ffd91435460ff16156125f257610ae283613116565b826001600160a01b03166352d1902d6040518163ffffffff1660e01b8152600401602060405180830381865afa92505050801561264c575060408051601f3d908101601f1916820190925261264991810190614ee4565b60015b6126af5760405162461bcd60e51b815260206004820152602e60248201527f45524331393637557067726164653a206e657720696d706c656d656e7461746960448201526d6f6e206973206e6f74205555505360901b606482015260840161088a565b60008051602061551c833981519152811461271e5760405162461bcd60e51b815260206004820152602960248201527f45524331393637557067726164653a20756e737570706f727465642070726f786044820152681a58589b195555525160ba1b606482015260840161088a565b50610ae28383836131b2565b600061194583836131d7565b600061274182611466565b9050612751816000846001612ff1565b61275a82611466565b600083815260696020908152604080832080546001600160a01b03199081169091556001600160a01b0385168085526068845282852080546000190190558785526067909352818420805490911690555192935084927fddf252ad1be2c89b69c2b068fc378daa952ba7f163c4a11628f55a4df523b3ef908390a45050565b600054610100900460ff166128005760405162461bcd60e51b815260040161088a90614efd565b6109e88282613226565b600054610100900460ff166128315760405162461bcd60e51b815260040161088a90614efd565b61283961298b565b565b600054610100900460ff166111565760405162461bcd60e51b815260040161088a90614efd565b600054610100900460ff166128895760405162461bcd60e51b815260040161088a90614efd565b612839613266565b600054610100900460ff166128b85760405162461bcd60e51b815260040161088a90614efd565b6128c061298b565b6128cb6000336124c7565b6128f57fa49807205ce4d355092ef5a8a18f56e8913cf4a201fbe287825b095693c21775336124c7565b61290d6000805160206155c9833981519152336124c7565b6129377f9f2df0fed2c77648de5860a4cc508cd0818c85b8b8a1ab4ceeef8d981c8956a6336124c7565b6129617ff18b77e1ef402111bacb54bd5e03494cbdba92fbd1bd3bbcc1ce77e69b42ea6c336124c7565b6128397f52ba824bfabc2bcfcdf7f0edbb486ebb05e1836c90e78047efeb949990f72e5f336124c7565b600054610100900460ff166128395760405162461bcd60e51b815260040161088a90614efd565b6000611945838361329a565b816001600160a01b0316836001600160a01b031603612a1f5760405162461bcd60e51b815260206004820152601960248201527f4552433732313a20617070726f766520746f2063616c6c657200000000000000604482015260640161088a565b6001600160a01b038381166000818152606a6020908152604080832094871680845294825291829020805460ff191686151590811790915591519182527f17307eab39ab6107e8899845ad3d59bd9653f200f220920489ca2b5937696c31910160405180910390a3505050565b612a97848484612356565b612aa3848484846132c4565b6119c45760405162461bcd60e51b815260040161088a90614f48565b6060610b0c612acd83611cb7565b6133c2565b6000610b0c825490565b612ae68585612f9a565b612b025760405162461bcd60e51b815260040161088a90614e33565b60008481526002860160205260409020612b1c9084612f9a565b612b385760405162461bcd60e51b815260040161088a90614e6a565b6000848152600486016020908152604080832086845282528083208584529091529020612b658282614d61565b505050505050565b6060612b798484612f9a565b612b955760405162461bcd60e51b815260040161088a90614e33565b60008381526002850160205260409020612baf9083612f9a565b612bcb5760405162461bcd60e51b815260040161088a90614e6a565b6000838152600585016020908152604080832085845290915290208054612bf190614bb7565b80601f0160208091040260200160405190810160405280929190818152602001828054612c1d90614bb7565b8015612c6a5780601f10612c3f57610100808354040283529160200191612c6a565b820191906000526020600020905b815481529060010190602001808311612c4d57829003601f168201915b505050505090509392505050565b6060612c848383612f9a565b612ca05760405162461bcd60e51b815260040161088a90614e33565b600082815260068401602052604090208054612cbb90614bb7565b80601f0160208091040260200160405190810160405280929190818152602001828054612ce790614bb7565b8015612d345780601f10612d0957610100808354040283529160200191612d34565b820191906000526020600020905b815481529060010190602001808311612d1757829003601f168201915b5050505050905092915050565b60606000612d4e836133f3565b60010190506000816001600160401b03811115612d6d57612d6d61437f565b6040519080825280601f01601f191660200182016040528015612d97576020820181803683370190505b5090508181016020015b600019016f181899199a1a9b1b9c1cb0b131b232b360811b600a86061a8153600a8504945084612da157509392505050565b6060612ddf8585612f9a565b612dfb5760405162461bcd60e51b815260040161088a90614e33565b60008481526002860160205260409020612e159084612f9a565b612e315760405162461bcd60e51b815260040161088a90614e6a565b60008481526004860160209081526040808320868452825280832085845290915290208054612e5f90614bb7565b80601f0160208091040260200160405190810160405280929190818152602001828054612e8b90614bb7565b8015612ed85780601f10612ead57610100808354040283529160200191612ed8565b820191906000526020600020905b815481529060010190602001808311612ebb57829003601f168201915b50505050509050949350505050565b60606000612ef486611466565b90506000610160612f04886134cb565b604051602001612f15929190614fb6565b6040516020818303038152906040529050612f36878388848960028a613525565b979650505050505050565b612f4b828261194c565b6109e857612f5881613571565b612f63836020613583565b604051602001612f7492919061503d565b60408051601f198184030181529082905262461bcd60e51b825261088a9160040161458a565b60008181526001830160205260408120541515611945565b6109e882826040518060200160405280600081525061371e565b60006001600160e01b03198216637965db0b60e01b1480610b0c5750610b0c82613751565b6119c48484848461375c565b613007828261194c565b6109e8576000828152610192602090815260408083206001600160a01b03851684529091529020805460ff191660011790556130403390565b6001600160a01b0316816001600160a01b0316837f2f8788117e7eff1d82e926ec794901d17c78024a50270940304540a733656f0d60405160405180910390a45050565b6000611945836001600160a01b0384166131d7565b6130a3828261194c565b156109e8576000828152610192602090815260408083206001600160a01b0385168085529252808320805460ff1916905551339285917ff6391f5c32d9c69d2a47ea670b442974b53935d1edc7fd64eb21e047a839171b9190a45050565b6000611945836001600160a01b038416613768565b6001600160a01b0381163b6131835760405162461bcd60e51b815260206004820152602d60248201527f455243313936373a206e657720696d706c656d656e746174696f6e206973206e60448201526c1bdd08184818dbdb9d1c9858dd609a1b606482015260840161088a565b60008051602061551c83398151915280546001600160a01b0319166001600160a01b0392909216919091179055565b6131bb8361385b565b6000825111806131c85750805b15610ae2576119c4838361389b565b600081815260018301602052604081205461321e57508154600181810184556000848152602080822090930184905584548482528286019093526040902091909155610b0c565b506000610b0c565b600054610100900460ff1661324d5760405162461bcd60e51b815260040161088a90614efd565b60656132598382614d61565b506066610ae28282614d61565b600054610100900460ff1661328d5760405162461bcd60e51b815260040161088a90614efd565b610224805460ff19169055565b60008260000182815481106132b1576132b1614c3e565b9060005260206000200154905092915050565b60006001600160a01b0384163b156133ba57604051630a85bd0160e11b81526001600160a01b0385169063150b7a02906133089033908990889088906004016150b2565b6020604051808303816000875af1925050508015613343575060408051601f3d908101601f19168201909252613340918101906150ef565b60015b6133a0573d808015613371576040519150601f19603f3d011682016040523d82523d6000602084013e613376565b606091505b5080516000036133985760405162461bcd60e51b815260040161088a90614f48565b805181602001fd5b6001600160e01b031916630a85bd0160e11b14905061200b565b50600161200b565b60606133cd8261398f565b6040516020016133dd919061510c565b6040516020818303038152906040529050919050565b60008072184f03e93ff9f4daa797ed6e38ed64bf6a1f0160401b83106134325772184f03e93ff9f4daa797ed6e38ed64bf6a1f0160401b830492506040015b6d04ee2d6d415b85acef8100000000831061345e576d04ee2d6d415b85acef8100000000830492506020015b662386f26fc10000831061347c57662386f26fc10000830492506010015b6305f5e1008310613494576305f5e100830492506008015b61271083106134a857612710830492506004015b606483106134ba576064830492506002015b600a8310610b0c5760010192915050565b606060006134dd6102ba8483806124ea565b90506134eb6102ba82612c78565b6134fd611ddd6102ba868560026124ea565b60405160200161350e929190615151565b604051602081830303815290604052915050919050565b60606000613537898989898989613ae1565b90508061354384613b4b565b60405160200161355492919061518d565b604051602081830303815290604052915050979650505050505050565b6060610b0c6001600160a01b03831660145b606060006135928360026151da565b61359d906002614e20565b6001600160401b038111156135b4576135b461437f565b6040519080825280601f01601f1916602001820160405280156135de576020820181803683370190505b509050600360fc1b816000815181106135f9576135f9614c3e565b60200101906001600160f81b031916908160001a905350600f60fb1b8160018151811061362857613628614c3e565b60200101906001600160f81b031916908160001a905350600061364c8460026151da565b613657906001614e20565b90505b60018111156136cf576f181899199a1a9b1b9c1cb0b131b232b360811b85600f166010811061368b5761368b614c3e565b1a60f81b8282815181106136a1576136a1614c3e565b60200101906001600160f81b031916908160001a90535060049490941c936136c8816151f9565b905061365a565b5083156119455760405162461bcd60e51b815260206004820181905260248201527f537472696e67733a20686578206c656e67746820696e73756666696369656e74604482015260640161088a565b6137288383613d3f565b61373560008484846132c4565b610ae25760405162461bcd60e51b815260040161088a90614f48565b6000610b0c82613ed8565b6119c484848484613efd565b6000818152600183016020526040812054801561385157600061378c600183615210565b85549091506000906137a090600190615210565b90508181146138055760008660000182815481106137c0576137c0614c3e565b90600052602060002001549050808760000184815481106137e3576137e3614c3e565b6000918252602080832090910192909255918252600188019052604090208390555b855486908061381657613816615223565b600190038181906000526020600020016000905590558560010160008681526020019081526020016000206000905560019350505050610b0c565b6000915050610b0c565b61386481613116565b6040516001600160a01b038216907fbc7cd75a20ee27fd9adebab32041f755214dbc6bffa90cc0225b39da2e5c2d3b90600090a250565b60606001600160a01b0383163b6139035760405162461bcd60e51b815260206004820152602660248201527f416464726573733a2064656c65676174652063616c6c20746f206e6f6e2d636f6044820152651b9d1c9858dd60d21b606482015260840161088a565b600080846001600160a01b03168460405161391e9190615239565b600060405180830381855af49150503d8060008114613959576040519150601f19603f3d011682016040523d82523d6000602084013e61395e565b606091505b5091509150613986828260405180606001604052806027815260200161557c60279139614036565b95945050505050565b606081516000036139ae57505060408051602081019091526000815290565b600060405180606001604052806040815260200161553c60409139905060006003845160026139dd9190614e20565b6139e79190615255565b6139f29060046151da565b6001600160401b03811115613a0957613a0961437f565b6040519080825280601f01601f191660200182016040528015613a33576020820181803683370190505b509050600182016020820185865187015b80821015613a9f576003820191508151603f8160121c168501518453600184019350603f81600c1c168501518453600184019350603f8160061c168501518453600184019350603f8116850151845350600183019250613a44565b5050600386510660018114613abb5760028114613ace57613ad6565b603d6001830353603d6002830353613ad6565b603d60018303535b509195945050505050565b606084613aed88612d41565b8486613b018a6001600160a01b0316613571565b613b1b876002811115613b1657613b1661476c565b61404f565b604051602001613b3096959493929190615277565b60405160208183030381529060405290509695505050505050565b60408051602081019091526000808252606091905b8351811015613d2d57600060018551613b799190615210565b8214613b9e57604051806040016040528060018152602001600b60fa1b815250613baf565b604051806020016040528060008152505b90506000858381518110613bc557613bc5614c3e565b602002602001015160600151613bf457604051806040016040528060018152602001601160f91b815250613c05565b604051806020016040528060008152505b9050600081878581518110613c1c57613c1c614c3e565b60200260200101516040015183604051602001613c3b93929190615396565b60405160208183030381529060405290506000878581518110613c6057613c60614c3e565b60200260200101516020015151600014613cb657878581518110613c8657613c86614c3e565b602002602001015160200151604051602001613ca291906153d9565b604051602081830303815290604052613cc7565b604051806020016040528060008152505b9050600086898781518110613cde57613cde614c3e565b602002602001015160000151838588604051602001613d0195949392919061541e565b604051602081830303815290604052905080965050505050508080613d2590614c6a565b915050613b60565b508060405160200161350e91906154d9565b6001600160a01b038216613d955760405162461bcd60e51b815260206004820181905260248201527f4552433732313a206d696e7420746f20746865207a65726f2061646472657373604482015260640161088a565b6000818152606760205260409020546001600160a01b031615613dfa5760405162461bcd60e51b815260206004820152601c60248201527f4552433732313a20746f6b656e20616c7265616479206d696e74656400000000604482015260640161088a565b613e08600083836001612ff1565b6000818152606760205260409020546001600160a01b031615613e6d5760405162461bcd60e51b815260206004820152601c60248201527f4552433732313a20746f6b656e20616c7265616479206d696e74656400000000604482015260640161088a565b6001600160a01b038216600081815260686020908152604080832080546001019055848352606790915280822080546001600160a01b0319168417905551839291907fddf252ad1be2c89b69c2b068fc378daa952ba7f163c4a11628f55a4df523b3ef908290a45050565b60006001600160e01b0319821663780e9d6360e01b1480610b0c5750610b0c826140ed565b613f098484848461413d565b6001811115613f785760405162461bcd60e51b815260206004820152603560248201527f455243373231456e756d657261626c653a20636f6e7365637574697665207472604482015274185b9cd9995c9cc81b9bdd081cdd5c1c1bdc9d1959605a1b606482015260840161088a565b816001600160a01b038516613fd457613fcf81609980546000838152609a60205260408120829055600182018355919091527f72a152ddfb8e864297c917af52ea6c1c68aead0fee1a62673fcc7e0c94979d000155565b613ff7565b836001600160a01b0316856001600160a01b031614613ff757613ff785826141c5565b6001600160a01b0384166140135761400e81614262565b612153565b846001600160a01b0316846001600160a01b031614612153576121538482614311565b60608315614045575081611945565b6119458383614355565b606060028260028111156140655761406561476c565b146140cb57600182600281111561407e5761407e61476c565b146140a65760405180604001604052806005815260200164045524332360dc1b815250610b0c565b604051806040016040528060078152602001664552433131353560c81b815250610b0c565b505060408051808201909152600681526545524337323160d01b602082015290565b60006001600160e01b031982166380ac58cd60e01b148061411e57506001600160e01b03198216635b5e139f60e01b145b80610b0c57506301ffc9a760e01b6001600160e01b0319831614610b0c565b60018111156119c4576001600160a01b03841615614183576001600160a01b0384166000908152606860205260408120805483929061417d908490615210565b90915550505b6001600160a01b038316156119c4576001600160a01b038316600090815260686020526040812080548392906141ba908490614e20565b909155505050505050565b600060016141d28461157c565b6141dc9190615210565b60008381526098602052604090205490915080821461422f576001600160a01b03841660009081526097602090815260408083208584528252808320548484528184208190558352609890915290208190555b5060009182526098602090815260408084208490556001600160a01b039094168352609781528383209183525290812055565b60995460009061427490600190615210565b6000838152609a60205260408120546099805493945090928490811061429c5761429c614c3e565b9060005260206000200154905080609983815481106142bd576142bd614c3e565b6000918252602080832090910192909255828152609a909152604080822084905585825281205560998054806142f5576142f5615223565b6001900381819060005260206000200160009055905550505050565b600061431c8361157c565b6001600160a01b039093166000908152609760209081526040808320868452825280832085905593825260989052919091209190915550565b8151156143655781518083602001fd5b8060405162461bcd60e51b815260040161088a919061458a565b634e487b7160e01b600052604160045260246000fd5b604051608081016001600160401b03811182821017156143b7576143b761437f565b60405290565b604051601f8201601f191681016001600160401b03811182821017156143e5576143e561437f565b604052919050565b600082601f8301126143fe57600080fd5b81356001600160401b038111156144175761441761437f565b61442a601f8201601f19166020016143bd565b81815284602083860101111561443f57600080fd5b816020850160208301376000918101602001919091529392505050565b6000806040838503121561446f57600080fd5b8235915060208301356001600160401b0381111561448c57600080fd5b614498858286016143ed565b9150509250929050565b80356001600160a01b03811681146144b957600080fd5b919050565b60008060008385036101208112156144d557600080fd5b6144de856144a2565b93506020850135925060e0603f19820112156144f957600080fd5b506040840190509250925092565b6001600160e01b03198116811461112a57600080fd5b60006020828403121561452f57600080fd5b813561194581614507565b60005b8381101561455557818101518382015260200161453d565b50506000910152565b6000815180845261457681602086016020860161453a565b601f01601f19169290920160200192915050565b602081526000611945602083018461455e565b6000602082840312156145af57600080fd5b5035919050565b600080604083850312156145c957600080fd5b6145d2836144a2565b946020939093013593505050565b6000806000606084860312156145f557600080fd5b6145fe846144a2565b925061460c602085016144a2565b9150604084013590509250925092565b60006001600160401b038211156146355761463561437f565b5060051b60200190565b600082601f83011261465057600080fd5b813560206146656146608361461c565b6143bd565b82815260059290921b8401810191818101908684111561468457600080fd5b8286015b8481101561469f5780358352918301918301614688565b509695505050505050565b6000602082840312156146bc57600080fd5b81356001600160401b038111156146d257600080fd5b61200b8482850161463f565b6000602080830181845280855180835260408601915060408160051b870101925083870160005b8281101561473357603f1988860301845261472185835161455e565b94509285019290850190600101614705565b5092979650505050505050565b6000806040838503121561475357600080fd5b82359150614763602084016144a2565b90509250929050565b634e487b7160e01b600052602160045260246000fd5b815160e0820190600581106147a757634e487b7160e01b600052602160045260246000fd5b808352506020830151602083015260408301516040830152606083015160608301526080830151608083015260a083015160a083015260c083015160c083015292915050565b6000602082840312156147ff57600080fd5b611945826144a2565b60006020828403121561481a57600080fd5b81356001600160401b0381111561483057600080fd5b61200b848285016143ed565b6000806040838503121561484f57600080fd5b614858836144a2565b915060208301356001600160401b0381111561448c57600080fd5b8035600581106144b957600080fd5b60006020828403121561489457600080fd5b61194582614873565b600080602083850312156148b057600080fd5b82356001600160401b03808211156148c757600080fd5b818501915085601f8301126148db57600080fd5b8135818111156148ea57600080fd5b8660208260051b85010111156148ff57600080fd5b60209290920196919550909350505050565b6020808252825182820181905260009190848201906040850190845b818110156149495783518352928401929184019160010161492d565b50909695505050505050565b6000806040838503121561496857600080fd5b50508035926020909101359150565b6000806040838503121561498a57600080fd5b614993836144a2565b9150602083013580151581146149a857600080fd5b809150509250929050565b600080600080608085870312156149c957600080fd5b6149d2856144a2565b93506149e0602086016144a2565b92506040850135915060608501356001600160401b03811115614a0257600080fd5b614a0e878288016143ed565b91505092959194509250565b60008060408385031215614a2d57600080fd5b614a36836144a2565b9150614763602084016144a2565b600080600060608486031215614a5957600080fd5b614a62846144a2565b9250614a70602085016144a2565b915060408401356001600160401b03811115614a8b57600080fd5b614a978682870161463f565b9150509250925092565b60008060408385031215614ab457600080fd5b823591506020808401356001600160401b0380821115614ad357600080fd5b818601915086601f830112614ae757600080fd5b8135614af56146608261461c565b81815260059190911b83018401908481019089831115614b1457600080fd5b8585015b83811015614ba657803585811115614b305760008081fd5b86016080818d03601f1901811315614b485760008081fd5b614b50614395565b614b5b8a8401614873565b815260408301358a820152606080840135604083015282840135925088831115614b855760008081fd5b614b938f8c858701016143ed565b9082015285525050918601918601614b18565b508096505050505050509250929050565b600181811c90821680614bcb57607f821691505b602082108103614beb57634e487b7160e01b600052602260045260246000fd5b50919050565b6020808252602d908201527f4552433732313a2063616c6c6572206973206e6f7420746f6b656e206f776e6560408201526c1c881bdc88185c1c1c9bdd9959609a1b606082015260800190565b634e487b7160e01b600052603260045260246000fd5b634e487b7160e01b600052601160045260246000fd5b600060018201614c7c57614c7c614c54565b5060010190565b6020808252602c908201527f46756e6374696f6e206d7573742062652063616c6c6564207468726f7567682060408201526b19195b1959d85d1958d85b1b60a21b606082015260800190565b6020808252602c908201527f46756e6374696f6e206d7573742062652063616c6c6564207468726f7567682060408201526b6163746976652070726f787960a01b606082015260800190565b601f821115610ae257600081815260208120601f850160051c81016020861015614d425750805b601f850160051c820191505b81811015612b6557828155600101614d4e565b81516001600160401b03811115614d7a57614d7a61437f565b614d8e81614d888454614bb7565b84614d1b565b602080601f831160018114614dc35760008415614dab5750858301515b600019600386901b1c1916600185901b178555612b65565b600085815260208120601f198616915b82811015614df257888601518255948401946001909101908401614dd3565b5085821015614e105787850151600019600388901b60f8161c191681555b5050505050600190811b01905550565b80820180821115610b0c57610b0c614c54565b6020808252601f908201527f417474726962757465733a3a4e6f6e2d6578697374656e742074726565496400604082015260600190565b6020808252818101527f417474726962757465733a3a4e6f6e2d6578697374656e7420736b696c6c4964604082015260600190565b60208082526025908201527f4552433732313a207472616e736665722066726f6d20696e636f72726563742060408201526437bbb732b960d91b606082015260800190565b600060208284031215614ef657600080fd5b5051919050565b6020808252602b908201527f496e697469616c697a61626c653a20636f6e7472616374206973206e6f74206960408201526a6e697469616c697a696e6760a81b606082015260800190565b60208082526032908201527f4552433732313a207472616e7366657220746f206e6f6e20455243373231526560408201527131b2b4bb32b91034b6b83632b6b2b73a32b960711b606082015260800190565b60008151614fac81856020860161453a565b9290920192915050565b6000808454614fc481614bb7565b60018281168015614fdc5760018114614ff157615020565b60ff1984168752821515830287019450615020565b8860005260208060002060005b858110156150175781548a820152908401908201614ffe565b50505082870194505b50505050835161503481836020880161453a565b01949350505050565b7f416363657373436f6e74726f6c3a206163636f756e742000000000000000000081526000835161507581601785016020880161453a565b7001034b99036b4b9b9b4b733903937b6329607d1b60179184019182015283516150a681602884016020880161453a565b01602801949350505050565b6001600160a01b03858116825284166020820152604081018390526080606082018190526000906150e59083018461455e565b9695505050505050565b60006020828403121561510157600080fd5b815161194581614507565b7f646174613a6170706c69636174696f6e2f6a736f6e3b6261736536342c00000081526000825161514481601d85016020870161453a565b91909101601d0192915050565b6000835161516381846020880161453a565b602f60f81b908301908152835161518181600184016020880161453a565b01600101949350505050565b607b60f81b8152600083516151a981600185016020880161453a565b8351908301906151c081600184016020880161453a565b607d60f81b60019290910191820152600201949350505050565b60008160001904831182151516156151f4576151f4614c54565b500290565b60008161520857615208614c54565b506000190190565b81810381811115610b0c57610b0c614c54565b634e487b7160e01b600052603160045260246000fd5b6000825161524b81846020870161453a565b9190910192915050565b60008261527257634e487b7160e01b600052601260045260246000fd5b500490565b67113730b6b2911d1160c11b8152865160009061529b816008850160208c0161453a565b61088b60f21b60089184019182018190526a113a37b5b2b724b2111d1160a91b600a83015288516152d3816015850160208d0161453a565b601592019182018190526e113232b9b1b934b83a34b7b7111d1160891b60178301528751615308816026850160208c0161453a565b602692019182015261538961534661538361536f826153696153548261534060288a01681134b6b0b3b2911d1160b91b815260090190565b8e614f9a565b61088b60f21b815260020190565b681137bbb732b9111d1160b91b815260090190565b8a614f9a565b67113a3cb832911d1160c11b815260080190565b86614f9a565b9998505050505050505050565b600084516153a881846020890161453a565b8451908301906153bc81836020890161453a565b84519101906153cf81836020880161453a565b0195945050505050565b6f113234b9b83630bcafba3cb832911d1160811b8152815160009061540581601085016020870161453a565b61088b60f21b6010939091019283015250601201919050565b60008651615430818460208b0161453a565b6e3d913a3930b4ba2fba3cb832911d1160891b908301908152865161545c81600f840160208b0161453a565b61088b60f21b600f9290910191820152855161547f816011840160208a0161453a565b67113b30b63ab2911d60c11b6011929091019182015284516154a881601984016020890161453a565b607d60f81b6019929091019182015283516154ca81601a84016020880161453a565b01601a01979650505050505050565b6d2261747472696275746573223a5b60901b8152815160009061550381600e85016020870161453a565b605d60f81b600e939091019283015250600f0191905056fe360894a13ba1a3210667c828492db98dca3e2076cc3735a920a3ca505d382bbc4142434445464748494a4b4c4d4e4f505152535455565758595a6162636465666768696a6b6c6d6e6f707172737475767778797a303132333435363738392b2f416464726573733a206c6f772d6c6576656c2064656c65676174652063616c6c206661696c656468747470733a2f2f696d616765732e617263616469616e2e67616d652f3842616c6c4375652f364d3d7565c7a8300c96fd53e065d19b65848d7b23b3191adcd55621c744223ca2646970667358221220ab28256a263ba5fcb9c4cd79bb657aed73c458141d5e84083e74a2db2d94fbc364736f6c63430008100033",
  "linkReferences": {},
  "deployedLinkReferences": {}
}